{
	"finalProject/insuranceCompanyContract.sol": {
		"insurancecontract": {
			"abi": [
				{
					"anonymous": false,
					"inputs": [
						{
							"indexed": true,
							"internalType": "address",
							"name": "previousOwner",
							"type": "address"
						},
						{
							"indexed": true,
							"internalType": "address",
							"name": "newOwner",
							"type": "address"
						}
					],
					"name": "OwnershipTransferred",
					"type": "event"
				},
				{
					"inputs": [
						{
							"internalType": "address",
							"name": "",
							"type": "address"
						}
					],
					"name": "info",
					"outputs": [
						{
							"internalType": "string",
							"name": "name",
							"type": "string"
						},
						{
							"internalType": "string",
							"name": "addr",
							"type": "string"
						},
						{
							"internalType": "uint256",
							"name": "age",
							"type": "uint256"
						},
						{
							"internalType": "bool",
							"name": "subscribed",
							"type": "bool"
						}
					],
					"stateMutability": "view",
					"type": "function"
				},
				{
					"inputs": [],
					"name": "owner",
					"outputs": [
						{
							"internalType": "address",
							"name": "",
							"type": "address"
						}
					],
					"stateMutability": "view",
					"type": "function"
				},
				{
					"inputs": [],
					"name": "renounceOwnership",
					"outputs": [],
					"stateMutability": "nonpayable",
					"type": "function"
				},
				{
					"inputs": [
						{
							"internalType": "address",
							"name": "",
							"type": "address"
						}
					],
					"name": "requests",
					"outputs": [
						{
							"internalType": "address",
							"name": "user",
							"type": "address"
						},
						{
							"internalType": "uint256",
							"name": "amount",
							"type": "uint256"
						},
						{
							"internalType": "bool",
							"name": "approved",
							"type": "bool"
						}
					],
					"stateMutability": "view",
					"type": "function"
				},
				{
					"inputs": [
						{
							"internalType": "uint256",
							"name": "amount1",
							"type": "uint256"
						}
					],
					"name": "requiestpayout",
					"outputs": [],
					"stateMutability": "nonpayable",
					"type": "function"
				},
				{
					"inputs": [
						{
							"internalType": "string",
							"name": "name1",
							"type": "string"
						},
						{
							"internalType": "string",
							"name": "addr1",
							"type": "string"
						},
						{
							"internalType": "uint256",
							"name": "age1",
							"type": "uint256"
						}
					],
					"name": "sebscribe",
					"outputs": [],
					"stateMutability": "payable",
					"type": "function"
				},
				{
					"inputs": [
						{
							"internalType": "address",
							"name": "newOwner",
							"type": "address"
						}
					],
					"name": "transferOwnership",
					"outputs": [],
					"stateMutability": "nonpayable",
					"type": "function"
				},
				{
					"inputs": [
						{
							"internalType": "address",
							"name": "user1",
							"type": "address"
						}
					],
					"name": "withdraw",
					"outputs": [],
					"stateMutability": "nonpayable",
					"type": "function"
				}
			],
			"devdoc": {
				"kind": "dev",
				"methods": {
					"owner()": {
						"details": "Returns the address of the current owner."
					},
					"renounceOwnership()": {
						"details": "Leaves the contract without owner. It will not be possible to call `onlyOwner` functions. Can only be called by the current owner. NOTE: Renouncing ownership will leave the contract without an owner, thereby disabling any functionality that is only available to the owner."
					},
					"transferOwnership(address)": {
						"details": "Transfers ownership of the contract to a new account (`newOwner`). Can only be called by the current owner."
					}
				},
				"version": 1
			},
			"evm": {
				"assembly": "    /* \"finalProject/insuranceCompanyContract.sol\":111:1232  contract insurancecontract is Ownable {... */\n  mstore(0x40, 0x80)\n  callvalue\n  dup1\n  iszero\n  tag_1\n  jumpi\n  0x00\n  dup1\n  revert\ntag_1:\n  pop\n    /* \"@openzeppelin/contracts/access/Ownable.sol\":936:968  _transferOwnership(_msgSender()) */\n  tag_4\n    /* \"@openzeppelin/contracts/access/Ownable.sol\":955:967  _msgSender() */\n  tag_5\n    /* \"@openzeppelin/contracts/access/Ownable.sol\":955:965  _msgSender */\n  shl(0x20, tag_6)\n    /* \"@openzeppelin/contracts/access/Ownable.sol\":955:967  _msgSender() */\n  0x20\n  shr\n  jump\t// in\ntag_5:\n    /* \"@openzeppelin/contracts/access/Ownable.sol\":936:954  _transferOwnership */\n  shl(0x20, tag_7)\n    /* \"@openzeppelin/contracts/access/Ownable.sol\":936:968  _transferOwnership(_msgSender()) */\n  0x20\n  shr\n  jump\t// in\ntag_4:\n    /* \"finalProject/insuranceCompanyContract.sol\":111:1232  contract insurancecontract is Ownable {... */\n  jump(tag_8)\n    /* \"@openzeppelin/contracts/utils/Context.sol\":640:736  function _msgSender() internal view virtual returns (address) {... */\ntag_6:\n    /* \"@openzeppelin/contracts/utils/Context.sol\":693:700  address */\n  0x00\n    /* \"@openzeppelin/contracts/utils/Context.sol\":719:729  msg.sender */\n  caller\n    /* \"@openzeppelin/contracts/utils/Context.sol\":712:729  return msg.sender */\n  swap1\n  pop\n    /* \"@openzeppelin/contracts/utils/Context.sol\":640:736  function _msgSender() internal view virtual returns (address) {... */\n  swap1\n  jump\t// out\n    /* \"@openzeppelin/contracts/access/Ownable.sol\":2426:2613  function _transferOwnership(address newOwner) internal virtual {... */\ntag_7:\n    /* \"@openzeppelin/contracts/access/Ownable.sol\":2499:2515  address oldOwner */\n  0x00\n    /* \"@openzeppelin/contracts/access/Ownable.sol\":2518:2524  _owner */\n  dup1\n  0x00\n  swap1\n  sload\n  swap1\n  0x0100\n  exp\n  swap1\n  div\n  0xffffffffffffffffffffffffffffffffffffffff\n  and\n    /* \"@openzeppelin/contracts/access/Ownable.sol\":2499:2524  address oldOwner = _owner */\n  swap1\n  pop\n    /* \"@openzeppelin/contracts/access/Ownable.sol\":2543:2551  newOwner */\n  dup2\n    /* \"@openzeppelin/contracts/access/Ownable.sol\":2534:2540  _owner */\n  0x00\n  dup1\n    /* \"@openzeppelin/contracts/access/Ownable.sol\":2534:2551  _owner = newOwner */\n  0x0100\n  exp\n  dup2\n  sload\n  dup2\n  0xffffffffffffffffffffffffffffffffffffffff\n  mul\n  not\n  and\n  swap1\n  dup4\n  0xffffffffffffffffffffffffffffffffffffffff\n  and\n  mul\n  or\n  swap1\n  sstore\n  pop\n    /* \"@openzeppelin/contracts/access/Ownable.sol\":2597:2605  newOwner */\n  dup2\n    /* \"@openzeppelin/contracts/access/Ownable.sol\":2566:2606  OwnershipTransferred(oldOwner, newOwner) */\n  0xffffffffffffffffffffffffffffffffffffffff\n  and\n    /* \"@openzeppelin/contracts/access/Ownable.sol\":2587:2595  oldOwner */\n  dup2\n    /* \"@openzeppelin/contracts/access/Ownable.sol\":2566:2606  OwnershipTransferred(oldOwner, newOwner) */\n  0xffffffffffffffffffffffffffffffffffffffff\n  and\n  0x8be0079c531659141344cd1fd0a4f28419497f9722a3daafe3b4186f6b6457e0\n  mload(0x40)\n  mload(0x40)\n  dup1\n  swap2\n  sub\n  swap1\n  log3\n    /* \"@openzeppelin/contracts/access/Ownable.sol\":2489:2613  {... */\n  pop\n    /* \"@openzeppelin/contracts/access/Ownable.sol\":2426:2613  function _transferOwnership(address newOwner) internal virtual {... */\n  pop\n  jump\t// out\n    /* \"finalProject/insuranceCompanyContract.sol\":111:1232  contract insurancecontract is Ownable {... */\ntag_8:\n  dataSize(sub_0)\n  dup1\n  dataOffset(sub_0)\n  0x00\n  codecopy\n  0x00\n  return\nstop\n\nsub_0: assembly {\n        /* \"finalProject/insuranceCompanyContract.sol\":111:1232  contract insurancecontract is Ownable {... */\n      mstore(0x40, 0x80)\n      jumpi(tag_1, lt(calldatasize, 0x04))\n      shr(0xe0, calldataload(0x00))\n      dup1\n      0x82b57877\n      gt\n      tag_10\n      jumpi\n      dup1\n      0x82b57877\n      eq\n      tag_6\n      jumpi\n      dup1\n      0x8da5cb5b\n      eq\n      tag_7\n      jumpi\n      dup1\n      0xcd6bae05\n      eq\n      tag_8\n      jumpi\n      dup1\n      0xf2fde38b\n      eq\n      tag_9\n      jumpi\n      jump(tag_1)\n    tag_10:\n      dup1\n      0x0aae7a6b\n      eq\n      tag_2\n      jumpi\n      dup1\n      0x51cff8d9\n      eq\n      tag_3\n      jumpi\n      dup1\n      0x715018a6\n      eq\n      tag_4\n      jumpi\n      dup1\n      0x74adad1d\n      eq\n      tag_5\n      jumpi\n    tag_1:\n      0x00\n      dup1\n      revert\n        /* \"finalProject/insuranceCompanyContract.sol\":327:370  mapping(address => Information) public info */\n    tag_2:\n      callvalue\n      dup1\n      iszero\n      tag_11\n      jumpi\n      0x00\n      dup1\n      revert\n    tag_11:\n      pop\n      tag_12\n      0x04\n      dup1\n      calldatasize\n      sub\n      dup2\n      add\n      swap1\n      tag_13\n      swap2\n      swap1\n      tag_14\n      jump\t// in\n    tag_13:\n      tag_15\n      jump\t// in\n    tag_12:\n      mload(0x40)\n      tag_16\n      swap5\n      swap4\n      swap3\n      swap2\n      swap1\n      tag_17\n      jump\t// in\n    tag_16:\n      mload(0x40)\n      dup1\n      swap2\n      sub\n      swap1\n      return\n        /* \"finalProject/insuranceCompanyContract.sol\":926:1219  function withdraw(address user1) public onlyOwner {//opene... */\n    tag_3:\n      callvalue\n      dup1\n      iszero\n      tag_18\n      jumpi\n      0x00\n      dup1\n      revert\n    tag_18:\n      pop\n      tag_19\n      0x04\n      dup1\n      calldatasize\n      sub\n      dup2\n      add\n      swap1\n      tag_20\n      swap2\n      swap1\n      tag_14\n      jump\t// in\n    tag_20:\n      tag_21\n      jump\t// in\n    tag_19:\n      stop\n        /* \"@openzeppelin/contracts/access/Ownable.sol\":1824:1925  function renounceOwnership() public virtual onlyOwner {... */\n    tag_4:\n      callvalue\n      dup1\n      iszero\n      tag_22\n      jumpi\n      0x00\n      dup1\n      revert\n    tag_22:\n      pop\n      tag_23\n      tag_24\n      jump\t// in\n    tag_23:\n      stop\n        /* \"finalProject/insuranceCompanyContract.sol\":376:419  mapping(address => Request) public requests */\n    tag_5:\n      callvalue\n      dup1\n      iszero\n      tag_25\n      jumpi\n      0x00\n      dup1\n      revert\n    tag_25:\n      pop\n      tag_26\n      0x04\n      dup1\n      calldatasize\n      sub\n      dup2\n      add\n      swap1\n      tag_27\n      swap2\n      swap1\n      tag_14\n      jump\t// in\n    tag_27:\n      tag_28\n      jump\t// in\n    tag_26:\n      mload(0x40)\n      tag_29\n      swap4\n      swap3\n      swap2\n      swap1\n      tag_30\n      jump\t// in\n    tag_29:\n      mload(0x40)\n      dup1\n      swap2\n      sub\n      swap1\n      return\n        /* \"finalProject/insuranceCompanyContract.sol\":438:687  function sebscribe(string memory name1, string memory addr1, uint age1 ) public payable {//open... */\n    tag_6:\n      tag_31\n      0x04\n      dup1\n      calldatasize\n      sub\n      dup2\n      add\n      swap1\n      tag_32\n      swap2\n      swap1\n      tag_33\n      jump\t// in\n    tag_32:\n      tag_34\n      jump\t// in\n    tag_31:\n      stop\n        /* \"@openzeppelin/contracts/access/Ownable.sol\":1201:1286  function owner() public view virtual returns (address) {... */\n    tag_7:\n      callvalue\n      dup1\n      iszero\n      tag_35\n      jumpi\n      0x00\n      dup1\n      revert\n    tag_35:\n      pop\n      tag_36\n      tag_37\n      jump\t// in\n    tag_36:\n      mload(0x40)\n      tag_38\n      swap2\n      swap1\n      tag_39\n      jump\t// in\n    tag_38:\n      mload(0x40)\n      dup1\n      swap2\n      sub\n      swap1\n      return\n        /* \"finalProject/insuranceCompanyContract.sol\":700:913  function requiestpayout(uint amount1) public {//open... */\n    tag_8:\n      callvalue\n      dup1\n      iszero\n      tag_40\n      jumpi\n      0x00\n      dup1\n      revert\n    tag_40:\n      pop\n      tag_41\n      0x04\n      dup1\n      calldatasize\n      sub\n      dup2\n      add\n      swap1\n      tag_42\n      swap2\n      swap1\n      tag_43\n      jump\t// in\n    tag_42:\n      tag_44\n      jump\t// in\n    tag_41:\n      stop\n        /* \"@openzeppelin/contracts/access/Ownable.sol\":2074:2272  function transferOwnership(address newOwner) public virtual onlyOwner {... */\n    tag_9:\n      callvalue\n      dup1\n      iszero\n      tag_45\n      jumpi\n      0x00\n      dup1\n      revert\n    tag_45:\n      pop\n      tag_46\n      0x04\n      dup1\n      calldatasize\n      sub\n      dup2\n      add\n      swap1\n      tag_47\n      swap2\n      swap1\n      tag_14\n      jump\t// in\n    tag_47:\n      tag_48\n      jump\t// in\n    tag_46:\n      stop\n        /* \"finalProject/insuranceCompanyContract.sol\":327:370  mapping(address => Information) public info */\n    tag_15:\n      mstore(0x20, 0x01)\n      dup1\n      0x00\n      mstore\n      keccak256(0x00, 0x40)\n      0x00\n      swap2\n      pop\n      swap1\n      pop\n      dup1\n      0x00\n      add\n      dup1\n      sload\n      tag_49\n      swap1\n      tag_50\n      jump\t// in\n    tag_49:\n      dup1\n      0x1f\n      add\n      0x20\n      dup1\n      swap2\n      div\n      mul\n      0x20\n      add\n      mload(0x40)\n      swap1\n      dup2\n      add\n      0x40\n      mstore\n      dup1\n      swap3\n      swap2\n      swap1\n      dup2\n      dup2\n      mstore\n      0x20\n      add\n      dup3\n      dup1\n      sload\n      tag_51\n      swap1\n      tag_50\n      jump\t// in\n    tag_51:\n      dup1\n      iszero\n      tag_52\n      jumpi\n      dup1\n      0x1f\n      lt\n      tag_53\n      jumpi\n      0x0100\n      dup1\n      dup4\n      sload\n      div\n      mul\n      dup4\n      mstore\n      swap2\n      0x20\n      add\n      swap2\n      jump(tag_52)\n    tag_53:\n      dup3\n      add\n      swap2\n      swap1\n      0x00\n      mstore\n      keccak256(0x00, 0x20)\n      swap1\n    tag_54:\n      dup2\n      sload\n      dup2\n      mstore\n      swap1\n      0x01\n      add\n      swap1\n      0x20\n      add\n      dup1\n      dup4\n      gt\n      tag_54\n      jumpi\n      dup3\n      swap1\n      sub\n      0x1f\n      and\n      dup3\n      add\n      swap2\n    tag_52:\n      pop\n      pop\n      pop\n      pop\n      pop\n      swap1\n      dup1\n      0x01\n      add\n      dup1\n      sload\n      tag_55\n      swap1\n      tag_50\n      jump\t// in\n    tag_55:\n      dup1\n      0x1f\n      add\n      0x20\n      dup1\n      swap2\n      div\n      mul\n      0x20\n      add\n      mload(0x40)\n      swap1\n      dup2\n      add\n      0x40\n      mstore\n      dup1\n      swap3\n      swap2\n      swap1\n      dup2\n      dup2\n      mstore\n      0x20\n      add\n      dup3\n      dup1\n      sload\n      tag_56\n      swap1\n      tag_50\n      jump\t// in\n    tag_56:\n      dup1\n      iszero\n      tag_57\n      jumpi\n      dup1\n      0x1f\n      lt\n      tag_58\n      jumpi\n      0x0100\n      dup1\n      dup4\n      sload\n      div\n      mul\n      dup4\n      mstore\n      swap2\n      0x20\n      add\n      swap2\n      jump(tag_57)\n    tag_58:\n      dup3\n      add\n      swap2\n      swap1\n      0x00\n      mstore\n      keccak256(0x00, 0x20)\n      swap1\n    tag_59:\n      dup2\n      sload\n      dup2\n      mstore\n      swap1\n      0x01\n      add\n      swap1\n      0x20\n      add\n      dup1\n      dup4\n      gt\n      tag_59\n      jumpi\n      dup3\n      swap1\n      sub\n      0x1f\n      and\n      dup3\n      add\n      swap2\n    tag_57:\n      pop\n      pop\n      pop\n      pop\n      pop\n      swap1\n      dup1\n      0x02\n      add\n      sload\n      swap1\n      dup1\n      0x03\n      add\n      0x00\n      swap1\n      sload\n      swap1\n      0x0100\n      exp\n      swap1\n      div\n      0xff\n      and\n      swap1\n      pop\n      dup5\n      jump\t// out\n        /* \"finalProject/insuranceCompanyContract.sol\":926:1219  function withdraw(address user1) public onlyOwner {//opene... */\n    tag_21:\n        /* \"@openzeppelin/contracts/access/Ownable.sol\":1094:1107  _checkOwner() */\n      tag_61\n        /* \"@openzeppelin/contracts/access/Ownable.sol\":1094:1105  _checkOwner */\n      tag_62\n        /* \"@openzeppelin/contracts/access/Ownable.sol\":1094:1107  _checkOwner() */\n      jump\t// in\n    tag_61:\n        /* \"finalProject/insuranceCompanyContract.sol\":1024:1029  user1 */\n      dup1\n        /* \"finalProject/insuranceCompanyContract.sol\":1001:1029  requests[user1].user== user1 */\n      0xffffffffffffffffffffffffffffffffffffffff\n      and\n        /* \"finalProject/insuranceCompanyContract.sol\":1001:1009  requests */\n      0x02\n        /* \"finalProject/insuranceCompanyContract.sol\":1001:1016  requests[user1] */\n      0x00\n        /* \"finalProject/insuranceCompanyContract.sol\":1010:1015  user1 */\n      dup4\n        /* \"finalProject/insuranceCompanyContract.sol\":1001:1016  requests[user1] */\n      0xffffffffffffffffffffffffffffffffffffffff\n      and\n      0xffffffffffffffffffffffffffffffffffffffff\n      and\n      dup2\n      mstore\n      0x20\n      add\n      swap1\n      dup2\n      mstore\n      0x20\n      add\n      0x00\n      keccak256\n        /* \"finalProject/insuranceCompanyContract.sol\":1001:1021  requests[user1].user */\n      0x00\n      add\n      0x00\n      swap1\n      sload\n      swap1\n      0x0100\n      exp\n      swap1\n      div\n      0xffffffffffffffffffffffffffffffffffffffff\n      and\n        /* \"finalProject/insuranceCompanyContract.sol\":1001:1029  requests[user1].user== user1 */\n      0xffffffffffffffffffffffffffffffffffffffff\n      and\n      eq\n        /* \"finalProject/insuranceCompanyContract.sol\":993:1044  require(requests[user1].user== user1, \" noruquest\") */\n      tag_64\n      jumpi\n      mload(0x40)\n      0x08c379a000000000000000000000000000000000000000000000000000000000\n      dup2\n      mstore\n      0x04\n      add\n      tag_65\n      swap1\n      tag_66\n      jump\t// in\n    tag_65:\n      mload(0x40)\n      dup1\n      swap2\n      sub\n      swap1\n      revert\n    tag_64:\n        /* \"finalProject/insuranceCompanyContract.sol\":1088:1093  false */\n      0x00\n        /* \"finalProject/insuranceCompanyContract.sol\":1062:1093  requests[user1].approved==false */\n      iszero\n      iszero\n        /* \"finalProject/insuranceCompanyContract.sol\":1062:1070  requests */\n      0x02\n        /* \"finalProject/insuranceCompanyContract.sol\":1062:1077  requests[user1] */\n      0x00\n        /* \"finalProject/insuranceCompanyContract.sol\":1071:1076  user1 */\n      dup4\n        /* \"finalProject/insuranceCompanyContract.sol\":1062:1077  requests[user1] */\n      0xffffffffffffffffffffffffffffffffffffffff\n      and\n      0xffffffffffffffffffffffffffffffffffffffff\n      and\n      dup2\n      mstore\n      0x20\n      add\n      swap1\n      dup2\n      mstore\n      0x20\n      add\n      0x00\n      keccak256\n        /* \"finalProject/insuranceCompanyContract.sol\":1062:1086  requests[user1].approved */\n      0x02\n      add\n      0x00\n      swap1\n      sload\n      swap1\n      0x0100\n      exp\n      swap1\n      div\n      0xff\n      and\n        /* \"finalProject/insuranceCompanyContract.sol\":1062:1093  requests[user1].approved==false */\n      iszero\n      iszero\n      eq\n        /* \"finalProject/insuranceCompanyContract.sol\":1054:1114  require(requests[user1].approved==false, \"request approved\") */\n      tag_67\n      jumpi\n      mload(0x40)\n      0x08c379a000000000000000000000000000000000000000000000000000000000\n      dup2\n      mstore\n      0x04\n      add\n      tag_68\n      swap1\n      tag_69\n      jump\t// in\n    tag_68:\n      mload(0x40)\n      dup1\n      swap2\n      sub\n      swap1\n      revert\n    tag_67:\n        /* \"finalProject/insuranceCompanyContract.sol\":1151:1155  true */\n      0x01\n        /* \"finalProject/insuranceCompanyContract.sol\":1124:1132  requests */\n      0x02\n        /* \"finalProject/insuranceCompanyContract.sol\":1124:1139  requests[user1] */\n      0x00\n        /* \"finalProject/insuranceCompanyContract.sol\":1133:1138  user1 */\n      dup4\n        /* \"finalProject/insuranceCompanyContract.sol\":1124:1139  requests[user1] */\n      0xffffffffffffffffffffffffffffffffffffffff\n      and\n      0xffffffffffffffffffffffffffffffffffffffff\n      and\n      dup2\n      mstore\n      0x20\n      add\n      swap1\n      dup2\n      mstore\n      0x20\n      add\n      0x00\n      keccak256\n        /* \"finalProject/insuranceCompanyContract.sol\":1124:1148  requests[user1].approved */\n      0x02\n      add\n      0x00\n        /* \"finalProject/insuranceCompanyContract.sol\":1124:1155  requests[user1].approved = true */\n      0x0100\n      exp\n      dup2\n      sload\n      dup2\n      0xff\n      mul\n      not\n      and\n      swap1\n      dup4\n      iszero\n      iszero\n      mul\n      or\n      swap1\n      sstore\n      pop\n        /* \"finalProject/insuranceCompanyContract.sol\":1173:1178  user1 */\n      dup1\n        /* \"finalProject/insuranceCompanyContract.sol\":1165:1188  payable(user1).transfer */\n      0xffffffffffffffffffffffffffffffffffffffff\n      and\n        /* \"finalProject/insuranceCompanyContract.sol\":1165:1212  payable(user1).transfer(requests[user1].amount) */\n      0x08fc\n        /* \"finalProject/insuranceCompanyContract.sol\":1189:1197  requests */\n      0x02\n        /* \"finalProject/insuranceCompanyContract.sol\":1189:1204  requests[user1] */\n      0x00\n        /* \"finalProject/insuranceCompanyContract.sol\":1198:1203  user1 */\n      dup5\n        /* \"finalProject/insuranceCompanyContract.sol\":1189:1204  requests[user1] */\n      0xffffffffffffffffffffffffffffffffffffffff\n      and\n      0xffffffffffffffffffffffffffffffffffffffff\n      and\n      dup2\n      mstore\n      0x20\n      add\n      swap1\n      dup2\n      mstore\n      0x20\n      add\n      0x00\n      keccak256\n        /* \"finalProject/insuranceCompanyContract.sol\":1189:1211  requests[user1].amount */\n      0x01\n      add\n      sload\n        /* \"finalProject/insuranceCompanyContract.sol\":1165:1212  payable(user1).transfer(requests[user1].amount) */\n      swap1\n      dup2\n      iszero\n      mul\n      swap1\n      mload(0x40)\n      0x00\n      mload(0x40)\n      dup1\n      dup4\n      sub\n      dup2\n      dup6\n      dup9\n      dup9\n      call\n      swap4\n      pop\n      pop\n      pop\n      pop\n      iszero\n      dup1\n      iszero\n      tag_71\n      jumpi\n      returndatasize\n      0x00\n      dup1\n      returndatacopy\n      revert(0x00, returndatasize)\n    tag_71:\n      pop\n        /* \"finalProject/insuranceCompanyContract.sol\":926:1219  function withdraw(address user1) public onlyOwner {//opene... */\n      pop\n      jump\t// out\n        /* \"@openzeppelin/contracts/access/Ownable.sol\":1824:1925  function renounceOwnership() public virtual onlyOwner {... */\n    tag_24:\n        /* \"@openzeppelin/contracts/access/Ownable.sol\":1094:1107  _checkOwner() */\n      tag_73\n        /* \"@openzeppelin/contracts/access/Ownable.sol\":1094:1105  _checkOwner */\n      tag_62\n        /* \"@openzeppelin/contracts/access/Ownable.sol\":1094:1107  _checkOwner() */\n      jump\t// in\n    tag_73:\n        /* \"@openzeppelin/contracts/access/Ownable.sol\":1888:1918  _transferOwnership(address(0)) */\n      tag_75\n        /* \"@openzeppelin/contracts/access/Ownable.sol\":1915:1916  0 */\n      0x00\n        /* \"@openzeppelin/contracts/access/Ownable.sol\":1888:1906  _transferOwnership */\n      tag_76\n        /* \"@openzeppelin/contracts/access/Ownable.sol\":1888:1918  _transferOwnership(address(0)) */\n      jump\t// in\n    tag_75:\n        /* \"@openzeppelin/contracts/access/Ownable.sol\":1824:1925  function renounceOwnership() public virtual onlyOwner {... */\n      jump\t// out\n        /* \"finalProject/insuranceCompanyContract.sol\":376:419  mapping(address => Request) public requests */\n    tag_28:\n      mstore(0x20, 0x02)\n      dup1\n      0x00\n      mstore\n      keccak256(0x00, 0x40)\n      0x00\n      swap2\n      pop\n      swap1\n      pop\n      dup1\n      0x00\n      add\n      0x00\n      swap1\n      sload\n      swap1\n      0x0100\n      exp\n      swap1\n      div\n      0xffffffffffffffffffffffffffffffffffffffff\n      and\n      swap1\n      dup1\n      0x01\n      add\n      sload\n      swap1\n      dup1\n      0x02\n      add\n      0x00\n      swap1\n      sload\n      swap1\n      0x0100\n      exp\n      swap1\n      div\n      0xff\n      and\n      swap1\n      pop\n      dup4\n      jump\t// out\n        /* \"finalProject/insuranceCompanyContract.sol\":438:687  function sebscribe(string memory name1, string memory addr1, uint age1 ) public payable {//open... */\n    tag_34:\n        /* \"finalProject/insuranceCompanyContract.sol\":551:555  info */\n      0x01\n        /* \"finalProject/insuranceCompanyContract.sol\":551:567  info[msg.sender] */\n      0x00\n        /* \"finalProject/insuranceCompanyContract.sol\":556:566  msg.sender */\n      caller\n        /* \"finalProject/insuranceCompanyContract.sol\":551:567  info[msg.sender] */\n      0xffffffffffffffffffffffffffffffffffffffff\n      and\n      0xffffffffffffffffffffffffffffffffffffffff\n      and\n      dup2\n      mstore\n      0x20\n      add\n      swap1\n      dup2\n      mstore\n      0x20\n      add\n      0x00\n      keccak256\n        /* \"finalProject/insuranceCompanyContract.sol\":551:578  info[msg.sender].subscribed */\n      0x03\n      add\n      0x00\n      swap1\n      sload\n      swap1\n      0x0100\n      exp\n      swap1\n      div\n      0xff\n      and\n        /* \"finalProject/insuranceCompanyContract.sol\":550:578  !info[msg.sender].subscribed */\n      iszero\n        /* \"finalProject/insuranceCompanyContract.sol\":550:595  !info[msg.sender].subscribed && msg.value > 0 */\n      dup1\n      iszero\n      tag_78\n      jumpi\n      pop\n        /* \"finalProject/insuranceCompanyContract.sol\":594:595  0 */\n      0x00\n        /* \"finalProject/insuranceCompanyContract.sol\":582:591  msg.value */\n      callvalue\n        /* \"finalProject/insuranceCompanyContract.sol\":582:595  msg.value > 0 */\n      gt\n        /* \"finalProject/insuranceCompanyContract.sol\":550:595  !info[msg.sender].subscribed && msg.value > 0 */\n    tag_78:\n        /* \"finalProject/insuranceCompanyContract.sol\":542:608  require(!info[msg.sender].subscribed && msg.value > 0, \"invalied\") */\n      tag_79\n      jumpi\n      mload(0x40)\n      0x08c379a000000000000000000000000000000000000000000000000000000000\n      dup2\n      mstore\n      0x04\n      add\n      tag_80\n      swap1\n      tag_81\n      jump\t// in\n    tag_80:\n      mload(0x40)\n      dup1\n      swap2\n      sub\n      swap1\n      revert\n    tag_79:\n        /* \"finalProject/insuranceCompanyContract.sol\":639:675  Information(name1, addr1, age1,true) */\n      mload(0x40)\n      dup1\n      0x80\n      add\n      0x40\n      mstore\n      dup1\n        /* \"finalProject/insuranceCompanyContract.sol\":651:656  name1 */\n      dup5\n        /* \"finalProject/insuranceCompanyContract.sol\":639:675  Information(name1, addr1, age1,true) */\n      dup2\n      mstore\n      0x20\n      add\n        /* \"finalProject/insuranceCompanyContract.sol\":658:663  addr1 */\n      dup4\n        /* \"finalProject/insuranceCompanyContract.sol\":639:675  Information(name1, addr1, age1,true) */\n      dup2\n      mstore\n      0x20\n      add\n        /* \"finalProject/insuranceCompanyContract.sol\":665:669  age1 */\n      dup3\n        /* \"finalProject/insuranceCompanyContract.sol\":639:675  Information(name1, addr1, age1,true) */\n      dup2\n      mstore\n      0x20\n      add\n        /* \"finalProject/insuranceCompanyContract.sol\":670:674  true */\n      0x01\n        /* \"finalProject/insuranceCompanyContract.sol\":639:675  Information(name1, addr1, age1,true) */\n      iszero\n      iszero\n      dup2\n      mstore\n      pop\n        /* \"finalProject/insuranceCompanyContract.sol\":620:624  info */\n      0x01\n        /* \"finalProject/insuranceCompanyContract.sol\":620:636  info[msg.sender] */\n      0x00\n        /* \"finalProject/insuranceCompanyContract.sol\":625:635  msg.sender */\n      caller\n        /* \"finalProject/insuranceCompanyContract.sol\":620:636  info[msg.sender] */\n      0xffffffffffffffffffffffffffffffffffffffff\n      and\n      0xffffffffffffffffffffffffffffffffffffffff\n      and\n      dup2\n      mstore\n      0x20\n      add\n      swap1\n      dup2\n      mstore\n      0x20\n      add\n      0x00\n      keccak256\n        /* \"finalProject/insuranceCompanyContract.sol\":620:675  info[msg.sender] = Information(name1, addr1, age1,true) */\n      0x00\n      dup3\n      add\n      mload\n      dup2\n      0x00\n      add\n      swap1\n      dup2\n      tag_82\n      swap2\n      swap1\n      tag_83\n      jump\t// in\n    tag_82:\n      pop\n      0x20\n      dup3\n      add\n      mload\n      dup2\n      0x01\n      add\n      swap1\n      dup2\n      tag_84\n      swap2\n      swap1\n      tag_83\n      jump\t// in\n    tag_84:\n      pop\n      0x40\n      dup3\n      add\n      mload\n      dup2\n      0x02\n      add\n      sstore\n      0x60\n      dup3\n      add\n      mload\n      dup2\n      0x03\n      add\n      exp(0x0100, 0x00)\n      dup2\n      sload\n      dup2\n      0xff\n      mul\n      not\n      and\n      swap1\n      dup4\n      iszero\n      iszero\n      mul\n      or\n      swap1\n      sstore\n      pop\n      swap1\n      pop\n      pop\n        /* \"finalProject/insuranceCompanyContract.sol\":438:687  function sebscribe(string memory name1, string memory addr1, uint age1 ) public payable {//open... */\n      pop\n      pop\n      pop\n      jump\t// out\n        /* \"@openzeppelin/contracts/access/Ownable.sol\":1201:1286  function owner() public view virtual returns (address) {... */\n    tag_37:\n        /* \"@openzeppelin/contracts/access/Ownable.sol\":1247:1254  address */\n      0x00\n        /* \"@openzeppelin/contracts/access/Ownable.sol\":1273:1279  _owner */\n      dup1\n      0x00\n      swap1\n      sload\n      swap1\n      0x0100\n      exp\n      swap1\n      div\n      0xffffffffffffffffffffffffffffffffffffffff\n      and\n        /* \"@openzeppelin/contracts/access/Ownable.sol\":1266:1279  return _owner */\n      swap1\n      pop\n        /* \"@openzeppelin/contracts/access/Ownable.sol\":1201:1286  function owner() public view virtual returns (address) {... */\n      swap1\n      jump\t// out\n        /* \"finalProject/insuranceCompanyContract.sol\":700:913  function requiestpayout(uint amount1) public {//open... */\n    tag_44:\n        /* \"finalProject/insuranceCompanyContract.sol\":767:771  info */\n      0x01\n        /* \"finalProject/insuranceCompanyContract.sol\":767:783  info[msg.sender] */\n      0x00\n        /* \"finalProject/insuranceCompanyContract.sol\":772:782  msg.sender */\n      caller\n        /* \"finalProject/insuranceCompanyContract.sol\":767:783  info[msg.sender] */\n      0xffffffffffffffffffffffffffffffffffffffff\n      and\n      0xffffffffffffffffffffffffffffffffffffffff\n      and\n      dup2\n      mstore\n      0x20\n      add\n      swap1\n      dup2\n      mstore\n      0x20\n      add\n      0x00\n      keccak256\n        /* \"finalProject/insuranceCompanyContract.sol\":767:794  info[msg.sender].subscribed */\n      0x03\n      add\n      0x00\n      swap1\n      sload\n      swap1\n      0x0100\n      exp\n      swap1\n      div\n      0xff\n      and\n        /* \"finalProject/insuranceCompanyContract.sol\":759:814  require(info[msg.sender].subscribed , \"not subscribed\") */\n      tag_87\n      jumpi\n      mload(0x40)\n      0x08c379a000000000000000000000000000000000000000000000000000000000\n      dup2\n      mstore\n      0x04\n      add\n      tag_88\n      swap1\n      tag_89\n      jump\t// in\n    tag_88:\n      mload(0x40)\n      dup1\n      swap2\n      sub\n      swap1\n      revert\n    tag_87:\n        /* \"finalProject/insuranceCompanyContract.sol\":848:883  Request(msg.sender, amount1, false) */\n      mload(0x40)\n      dup1\n      0x60\n      add\n      0x40\n      mstore\n      dup1\n        /* \"finalProject/insuranceCompanyContract.sol\":856:866  msg.sender */\n      caller\n        /* \"finalProject/insuranceCompanyContract.sol\":848:883  Request(msg.sender, amount1, false) */\n      0xffffffffffffffffffffffffffffffffffffffff\n      and\n      dup2\n      mstore\n      0x20\n      add\n        /* \"finalProject/insuranceCompanyContract.sol\":868:875  amount1 */\n      dup3\n        /* \"finalProject/insuranceCompanyContract.sol\":848:883  Request(msg.sender, amount1, false) */\n      dup2\n      mstore\n      0x20\n      add\n        /* \"finalProject/insuranceCompanyContract.sol\":877:882  false */\n      0x00\n        /* \"finalProject/insuranceCompanyContract.sol\":848:883  Request(msg.sender, amount1, false) */\n      iszero\n      iszero\n      dup2\n      mstore\n      pop\n        /* \"finalProject/insuranceCompanyContract.sol\":825:833  requests */\n      0x02\n        /* \"finalProject/insuranceCompanyContract.sol\":825:845  requests[msg.sender] */\n      0x00\n        /* \"finalProject/insuranceCompanyContract.sol\":834:844  msg.sender */\n      caller\n        /* \"finalProject/insuranceCompanyContract.sol\":825:845  requests[msg.sender] */\n      0xffffffffffffffffffffffffffffffffffffffff\n      and\n      0xffffffffffffffffffffffffffffffffffffffff\n      and\n      dup2\n      mstore\n      0x20\n      add\n      swap1\n      dup2\n      mstore\n      0x20\n      add\n      0x00\n      keccak256\n        /* \"finalProject/insuranceCompanyContract.sol\":825:883  requests[msg.sender] = Request(msg.sender, amount1, false) */\n      0x00\n      dup3\n      add\n      mload\n      dup2\n      0x00\n      add\n      exp(0x0100, 0x00)\n      dup2\n      sload\n      dup2\n      0xffffffffffffffffffffffffffffffffffffffff\n      mul\n      not\n      and\n      swap1\n      dup4\n      0xffffffffffffffffffffffffffffffffffffffff\n      and\n      mul\n      or\n      swap1\n      sstore\n      pop\n      0x20\n      dup3\n      add\n      mload\n      dup2\n      0x01\n      add\n      sstore\n      0x40\n      dup3\n      add\n      mload\n      dup2\n      0x02\n      add\n      exp(0x0100, 0x00)\n      dup2\n      sload\n      dup2\n      0xff\n      mul\n      not\n      and\n      swap1\n      dup4\n      iszero\n      iszero\n      mul\n      or\n      swap1\n      sstore\n      pop\n      swap1\n      pop\n      pop\n        /* \"finalProject/insuranceCompanyContract.sol\":700:913  function requiestpayout(uint amount1) public {//open... */\n      pop\n      jump\t// out\n        /* \"@openzeppelin/contracts/access/Ownable.sol\":2074:2272  function transferOwnership(address newOwner) public virtual onlyOwner {... */\n    tag_48:\n        /* \"@openzeppelin/contracts/access/Ownable.sol\":1094:1107  _checkOwner() */\n      tag_91\n        /* \"@openzeppelin/contracts/access/Ownable.sol\":1094:1105  _checkOwner */\n      tag_62\n        /* \"@openzeppelin/contracts/access/Ownable.sol\":1094:1107  _checkOwner() */\n      jump\t// in\n    tag_91:\n        /* \"@openzeppelin/contracts/access/Ownable.sol\":2182:2183  0 */\n      0x00\n        /* \"@openzeppelin/contracts/access/Ownable.sol\":2162:2184  newOwner != address(0) */\n      0xffffffffffffffffffffffffffffffffffffffff\n      and\n        /* \"@openzeppelin/contracts/access/Ownable.sol\":2162:2170  newOwner */\n      dup2\n        /* \"@openzeppelin/contracts/access/Ownable.sol\":2162:2184  newOwner != address(0) */\n      0xffffffffffffffffffffffffffffffffffffffff\n      and\n      sub\n        /* \"@openzeppelin/contracts/access/Ownable.sol\":2154:2227  require(newOwner != address(0), \"Ownable: new owner is the zero address\") */\n      tag_93\n      jumpi\n      mload(0x40)\n      0x08c379a000000000000000000000000000000000000000000000000000000000\n      dup2\n      mstore\n      0x04\n      add\n      tag_94\n      swap1\n      tag_95\n      jump\t// in\n    tag_94:\n      mload(0x40)\n      dup1\n      swap2\n      sub\n      swap1\n      revert\n    tag_93:\n        /* \"@openzeppelin/contracts/access/Ownable.sol\":2237:2265  _transferOwnership(newOwner) */\n      tag_96\n        /* \"@openzeppelin/contracts/access/Ownable.sol\":2256:2264  newOwner */\n      dup2\n        /* \"@openzeppelin/contracts/access/Ownable.sol\":2237:2255  _transferOwnership */\n      tag_76\n        /* \"@openzeppelin/contracts/access/Ownable.sol\":2237:2265  _transferOwnership(newOwner) */\n      jump\t// in\n    tag_96:\n        /* \"@openzeppelin/contracts/access/Ownable.sol\":2074:2272  function transferOwnership(address newOwner) public virtual onlyOwner {... */\n      pop\n      jump\t// out\n        /* \"@openzeppelin/contracts/access/Ownable.sol\":1359:1489  function _checkOwner() internal view virtual {... */\n    tag_62:\n        /* \"@openzeppelin/contracts/access/Ownable.sol\":1433:1445  _msgSender() */\n      tag_98\n        /* \"@openzeppelin/contracts/access/Ownable.sol\":1433:1443  _msgSender */\n      tag_99\n        /* \"@openzeppelin/contracts/access/Ownable.sol\":1433:1445  _msgSender() */\n      jump\t// in\n    tag_98:\n        /* \"@openzeppelin/contracts/access/Ownable.sol\":1422:1445  owner() == _msgSender() */\n      0xffffffffffffffffffffffffffffffffffffffff\n      and\n        /* \"@openzeppelin/contracts/access/Ownable.sol\":1422:1429  owner() */\n      tag_100\n        /* \"@openzeppelin/contracts/access/Ownable.sol\":1422:1427  owner */\n      tag_37\n        /* \"@openzeppelin/contracts/access/Ownable.sol\":1422:1429  owner() */\n      jump\t// in\n    tag_100:\n        /* \"@openzeppelin/contracts/access/Ownable.sol\":1422:1445  owner() == _msgSender() */\n      0xffffffffffffffffffffffffffffffffffffffff\n      and\n      eq\n        /* \"@openzeppelin/contracts/access/Ownable.sol\":1414:1482  require(owner() == _msgSender(), \"Ownable: caller is not the owner\") */\n      tag_101\n      jumpi\n      mload(0x40)\n      0x08c379a000000000000000000000000000000000000000000000000000000000\n      dup2\n      mstore\n      0x04\n      add\n      tag_102\n      swap1\n      tag_103\n      jump\t// in\n    tag_102:\n      mload(0x40)\n      dup1\n      swap2\n      sub\n      swap1\n      revert\n    tag_101:\n        /* \"@openzeppelin/contracts/access/Ownable.sol\":1359:1489  function _checkOwner() internal view virtual {... */\n      jump\t// out\n        /* \"@openzeppelin/contracts/access/Ownable.sol\":2426:2613  function _transferOwnership(address newOwner) internal virtual {... */\n    tag_76:\n        /* \"@openzeppelin/contracts/access/Ownable.sol\":2499:2515  address oldOwner */\n      0x00\n        /* \"@openzeppelin/contracts/access/Ownable.sol\":2518:2524  _owner */\n      dup1\n      0x00\n      swap1\n      sload\n      swap1\n      0x0100\n      exp\n      swap1\n      div\n      0xffffffffffffffffffffffffffffffffffffffff\n      and\n        /* \"@openzeppelin/contracts/access/Ownable.sol\":2499:2524  address oldOwner = _owner */\n      swap1\n      pop\n        /* \"@openzeppelin/contracts/access/Ownable.sol\":2543:2551  newOwner */\n      dup2\n        /* \"@openzeppelin/contracts/access/Ownable.sol\":2534:2540  _owner */\n      0x00\n      dup1\n        /* \"@openzeppelin/contracts/access/Ownable.sol\":2534:2551  _owner = newOwner */\n      0x0100\n      exp\n      dup2\n      sload\n      dup2\n      0xffffffffffffffffffffffffffffffffffffffff\n      mul\n      not\n      and\n      swap1\n      dup4\n      0xffffffffffffffffffffffffffffffffffffffff\n      and\n      mul\n      or\n      swap1\n      sstore\n      pop\n        /* \"@openzeppelin/contracts/access/Ownable.sol\":2597:2605  newOwner */\n      dup2\n        /* \"@openzeppelin/contracts/access/Ownable.sol\":2566:2606  OwnershipTransferred(oldOwner, newOwner) */\n      0xffffffffffffffffffffffffffffffffffffffff\n      and\n        /* \"@openzeppelin/contracts/access/Ownable.sol\":2587:2595  oldOwner */\n      dup2\n        /* \"@openzeppelin/contracts/access/Ownable.sol\":2566:2606  OwnershipTransferred(oldOwner, newOwner) */\n      0xffffffffffffffffffffffffffffffffffffffff\n      and\n      0x8be0079c531659141344cd1fd0a4f28419497f9722a3daafe3b4186f6b6457e0\n      mload(0x40)\n      mload(0x40)\n      dup1\n      swap2\n      sub\n      swap1\n      log3\n        /* \"@openzeppelin/contracts/access/Ownable.sol\":2489:2613  {... */\n      pop\n        /* \"@openzeppelin/contracts/access/Ownable.sol\":2426:2613  function _transferOwnership(address newOwner) internal virtual {... */\n      pop\n      jump\t// out\n        /* \"@openzeppelin/contracts/utils/Context.sol\":640:736  function _msgSender() internal view virtual returns (address) {... */\n    tag_99:\n        /* \"@openzeppelin/contracts/utils/Context.sol\":693:700  address */\n      0x00\n        /* \"@openzeppelin/contracts/utils/Context.sol\":719:729  msg.sender */\n      caller\n        /* \"@openzeppelin/contracts/utils/Context.sol\":712:729  return msg.sender */\n      swap1\n      pop\n        /* \"@openzeppelin/contracts/utils/Context.sol\":640:736  function _msgSender() internal view virtual returns (address) {... */\n      swap1\n      jump\t// out\n        /* \"#utility.yul\":7:82   */\n    tag_106:\n        /* \"#utility.yul\":40:46   */\n      0x00\n        /* \"#utility.yul\":73:75   */\n      0x40\n        /* \"#utility.yul\":67:76   */\n      mload\n        /* \"#utility.yul\":57:76   */\n      swap1\n      pop\n        /* \"#utility.yul\":7:82   */\n      swap1\n      jump\t// out\n        /* \"#utility.yul\":88:205   */\n    tag_107:\n        /* \"#utility.yul\":197:198   */\n      0x00\n        /* \"#utility.yul\":194:195   */\n      dup1\n        /* \"#utility.yul\":187:199   */\n      revert\n        /* \"#utility.yul\":211:328   */\n    tag_108:\n        /* \"#utility.yul\":320:321   */\n      0x00\n        /* \"#utility.yul\":317:318   */\n      dup1\n        /* \"#utility.yul\":310:322   */\n      revert\n        /* \"#utility.yul\":334:460   */\n    tag_109:\n        /* \"#utility.yul\":371:378   */\n      0x00\n        /* \"#utility.yul\":411:453   */\n      0xffffffffffffffffffffffffffffffffffffffff\n        /* \"#utility.yul\":404:409   */\n      dup3\n        /* \"#utility.yul\":400:454   */\n      and\n        /* \"#utility.yul\":389:454   */\n      swap1\n      pop\n        /* \"#utility.yul\":334:460   */\n      swap2\n      swap1\n      pop\n      jump\t// out\n        /* \"#utility.yul\":466:562   */\n    tag_110:\n        /* \"#utility.yul\":503:510   */\n      0x00\n        /* \"#utility.yul\":532:556   */\n      tag_168\n        /* \"#utility.yul\":550:555   */\n      dup3\n        /* \"#utility.yul\":532:556   */\n      tag_109\n      jump\t// in\n    tag_168:\n        /* \"#utility.yul\":521:556   */\n      swap1\n      pop\n        /* \"#utility.yul\":466:562   */\n      swap2\n      swap1\n      pop\n      jump\t// out\n        /* \"#utility.yul\":568:690   */\n    tag_111:\n        /* \"#utility.yul\":641:665   */\n      tag_170\n        /* \"#utility.yul\":659:664   */\n      dup2\n        /* \"#utility.yul\":641:665   */\n      tag_110\n      jump\t// in\n    tag_170:\n        /* \"#utility.yul\":634:639   */\n      dup2\n        /* \"#utility.yul\":631:666   */\n      eq\n        /* \"#utility.yul\":621:684   */\n      tag_171\n      jumpi\n        /* \"#utility.yul\":680:681   */\n      0x00\n        /* \"#utility.yul\":677:678   */\n      dup1\n        /* \"#utility.yul\":670:682   */\n      revert\n        /* \"#utility.yul\":621:684   */\n    tag_171:\n        /* \"#utility.yul\":568:690   */\n      pop\n      jump\t// out\n        /* \"#utility.yul\":696:835   */\n    tag_112:\n        /* \"#utility.yul\":742:747   */\n      0x00\n        /* \"#utility.yul\":780:786   */\n      dup2\n        /* \"#utility.yul\":767:787   */\n      calldataload\n        /* \"#utility.yul\":758:787   */\n      swap1\n      pop\n        /* \"#utility.yul\":796:829   */\n      tag_173\n        /* \"#utility.yul\":823:828   */\n      dup2\n        /* \"#utility.yul\":796:829   */\n      tag_111\n      jump\t// in\n    tag_173:\n        /* \"#utility.yul\":696:835   */\n      swap3\n      swap2\n      pop\n      pop\n      jump\t// out\n        /* \"#utility.yul\":841:1170   */\n    tag_14:\n        /* \"#utility.yul\":900:906   */\n      0x00\n        /* \"#utility.yul\":949:951   */\n      0x20\n        /* \"#utility.yul\":937:946   */\n      dup3\n        /* \"#utility.yul\":928:935   */\n      dup5\n        /* \"#utility.yul\":924:947   */\n      sub\n        /* \"#utility.yul\":920:952   */\n      slt\n        /* \"#utility.yul\":917:1036   */\n      iszero\n      tag_175\n      jumpi\n        /* \"#utility.yul\":955:1034   */\n      tag_176\n      tag_107\n      jump\t// in\n    tag_176:\n        /* \"#utility.yul\":917:1036   */\n    tag_175:\n        /* \"#utility.yul\":1075:1076   */\n      0x00\n        /* \"#utility.yul\":1100:1153   */\n      tag_177\n        /* \"#utility.yul\":1145:1152   */\n      dup5\n        /* \"#utility.yul\":1136:1142   */\n      dup3\n        /* \"#utility.yul\":1125:1134   */\n      dup6\n        /* \"#utility.yul\":1121:1143   */\n      add\n        /* \"#utility.yul\":1100:1153   */\n      tag_112\n      jump\t// in\n    tag_177:\n        /* \"#utility.yul\":1090:1153   */\n      swap2\n      pop\n        /* \"#utility.yul\":1046:1163   */\n      pop\n        /* \"#utility.yul\":841:1170   */\n      swap3\n      swap2\n      pop\n      pop\n      jump\t// out\n        /* \"#utility.yul\":1176:1275   */\n    tag_113:\n        /* \"#utility.yul\":1228:1234   */\n      0x00\n        /* \"#utility.yul\":1262:1267   */\n      dup2\n        /* \"#utility.yul\":1256:1268   */\n      mload\n        /* \"#utility.yul\":1246:1268   */\n      swap1\n      pop\n        /* \"#utility.yul\":1176:1275   */\n      swap2\n      swap1\n      pop\n      jump\t// out\n        /* \"#utility.yul\":1281:1450   */\n    tag_114:\n        /* \"#utility.yul\":1365:1376   */\n      0x00\n        /* \"#utility.yul\":1399:1405   */\n      dup3\n        /* \"#utility.yul\":1394:1397   */\n      dup3\n        /* \"#utility.yul\":1387:1406   */\n      mstore\n        /* \"#utility.yul\":1439:1443   */\n      0x20\n        /* \"#utility.yul\":1434:1437   */\n      dup3\n        /* \"#utility.yul\":1430:1444   */\n      add\n        /* \"#utility.yul\":1415:1444   */\n      swap1\n      pop\n        /* \"#utility.yul\":1281:1450   */\n      swap3\n      swap2\n      pop\n      pop\n      jump\t// out\n        /* \"#utility.yul\":1456:1702   */\n    tag_115:\n        /* \"#utility.yul\":1537:1538   */\n      0x00\n        /* \"#utility.yul\":1547:1660   */\n    tag_181:\n        /* \"#utility.yul\":1561:1567   */\n      dup4\n        /* \"#utility.yul\":1558:1559   */\n      dup2\n        /* \"#utility.yul\":1555:1568   */\n      lt\n        /* \"#utility.yul\":1547:1660   */\n      iszero\n      tag_183\n      jumpi\n        /* \"#utility.yul\":1646:1647   */\n      dup1\n        /* \"#utility.yul\":1641:1644   */\n      dup3\n        /* \"#utility.yul\":1637:1648   */\n      add\n        /* \"#utility.yul\":1631:1649   */\n      mload\n        /* \"#utility.yul\":1627:1628   */\n      dup2\n        /* \"#utility.yul\":1622:1625   */\n      dup5\n        /* \"#utility.yul\":1618:1629   */\n      add\n        /* \"#utility.yul\":1611:1650   */\n      mstore\n        /* \"#utility.yul\":1583:1585   */\n      0x20\n        /* \"#utility.yul\":1580:1581   */\n      dup2\n        /* \"#utility.yul\":1576:1586   */\n      add\n        /* \"#utility.yul\":1571:1586   */\n      swap1\n      pop\n        /* \"#utility.yul\":1547:1660   */\n      jump(tag_181)\n    tag_183:\n        /* \"#utility.yul\":1694:1695   */\n      0x00\n        /* \"#utility.yul\":1685:1691   */\n      dup5\n        /* \"#utility.yul\":1680:1683   */\n      dup5\n        /* \"#utility.yul\":1676:1692   */\n      add\n        /* \"#utility.yul\":1669:1696   */\n      mstore\n        /* \"#utility.yul\":1518:1702   */\n      pop\n        /* \"#utility.yul\":1456:1702   */\n      pop\n      pop\n      pop\n      jump\t// out\n        /* \"#utility.yul\":1708:1810   */\n    tag_116:\n        /* \"#utility.yul\":1749:1755   */\n      0x00\n        /* \"#utility.yul\":1800:1802   */\n      0x1f\n        /* \"#utility.yul\":1796:1803   */\n      not\n        /* \"#utility.yul\":1791:1793   */\n      0x1f\n        /* \"#utility.yul\":1784:1789   */\n      dup4\n        /* \"#utility.yul\":1780:1794   */\n      add\n        /* \"#utility.yul\":1776:1804   */\n      and\n        /* \"#utility.yul\":1766:1804   */\n      swap1\n      pop\n        /* \"#utility.yul\":1708:1810   */\n      swap2\n      swap1\n      pop\n      jump\t// out\n        /* \"#utility.yul\":1816:2193   */\n    tag_117:\n        /* \"#utility.yul\":1904:1907   */\n      0x00\n        /* \"#utility.yul\":1932:1971   */\n      tag_186\n        /* \"#utility.yul\":1965:1970   */\n      dup3\n        /* \"#utility.yul\":1932:1971   */\n      tag_113\n      jump\t// in\n    tag_186:\n        /* \"#utility.yul\":1987:2058   */\n      tag_187\n        /* \"#utility.yul\":2051:2057   */\n      dup2\n        /* \"#utility.yul\":2046:2049   */\n      dup6\n        /* \"#utility.yul\":1987:2058   */\n      tag_114\n      jump\t// in\n    tag_187:\n        /* \"#utility.yul\":1980:2058   */\n      swap4\n      pop\n        /* \"#utility.yul\":2067:2132   */\n      tag_188\n        /* \"#utility.yul\":2125:2131   */\n      dup2\n        /* \"#utility.yul\":2120:2123   */\n      dup6\n        /* \"#utility.yul\":2113:2117   */\n      0x20\n        /* \"#utility.yul\":2106:2111   */\n      dup7\n        /* \"#utility.yul\":2102:2118   */\n      add\n        /* \"#utility.yul\":2067:2132   */\n      tag_115\n      jump\t// in\n    tag_188:\n        /* \"#utility.yul\":2157:2186   */\n      tag_189\n        /* \"#utility.yul\":2179:2185   */\n      dup2\n        /* \"#utility.yul\":2157:2186   */\n      tag_116\n      jump\t// in\n    tag_189:\n        /* \"#utility.yul\":2152:2155   */\n      dup5\n        /* \"#utility.yul\":2148:2187   */\n      add\n        /* \"#utility.yul\":2141:2187   */\n      swap2\n      pop\n        /* \"#utility.yul\":1908:2193   */\n      pop\n        /* \"#utility.yul\":1816:2193   */\n      swap3\n      swap2\n      pop\n      pop\n      jump\t// out\n        /* \"#utility.yul\":2199:2276   */\n    tag_118:\n        /* \"#utility.yul\":2236:2243   */\n      0x00\n        /* \"#utility.yul\":2265:2270   */\n      dup2\n        /* \"#utility.yul\":2254:2270   */\n      swap1\n      pop\n        /* \"#utility.yul\":2199:2276   */\n      swap2\n      swap1\n      pop\n      jump\t// out\n        /* \"#utility.yul\":2282:2400   */\n    tag_119:\n        /* \"#utility.yul\":2369:2393   */\n      tag_192\n        /* \"#utility.yul\":2387:2392   */\n      dup2\n        /* \"#utility.yul\":2369:2393   */\n      tag_118\n      jump\t// in\n    tag_192:\n        /* \"#utility.yul\":2364:2367   */\n      dup3\n        /* \"#utility.yul\":2357:2394   */\n      mstore\n        /* \"#utility.yul\":2282:2400   */\n      pop\n      pop\n      jump\t// out\n        /* \"#utility.yul\":2406:2496   */\n    tag_120:\n        /* \"#utility.yul\":2440:2447   */\n      0x00\n        /* \"#utility.yul\":2483:2488   */\n      dup2\n        /* \"#utility.yul\":2476:2489   */\n      iszero\n        /* \"#utility.yul\":2469:2490   */\n      iszero\n        /* \"#utility.yul\":2458:2490   */\n      swap1\n      pop\n        /* \"#utility.yul\":2406:2496   */\n      swap2\n      swap1\n      pop\n      jump\t// out\n        /* \"#utility.yul\":2502:2611   */\n    tag_121:\n        /* \"#utility.yul\":2583:2604   */\n      tag_195\n        /* \"#utility.yul\":2598:2603   */\n      dup2\n        /* \"#utility.yul\":2583:2604   */\n      tag_120\n      jump\t// in\n    tag_195:\n        /* \"#utility.yul\":2578:2581   */\n      dup3\n        /* \"#utility.yul\":2571:2605   */\n      mstore\n        /* \"#utility.yul\":2502:2611   */\n      pop\n      pop\n      jump\t// out\n        /* \"#utility.yul\":2617:3340   */\n    tag_17:\n        /* \"#utility.yul\":2828:2832   */\n      0x00\n        /* \"#utility.yul\":2866:2869   */\n      0x80\n        /* \"#utility.yul\":2855:2864   */\n      dup3\n        /* \"#utility.yul\":2851:2870   */\n      add\n        /* \"#utility.yul\":2843:2870   */\n      swap1\n      pop\n        /* \"#utility.yul\":2916:2925   */\n      dup2\n        /* \"#utility.yul\":2910:2914   */\n      dup2\n        /* \"#utility.yul\":2906:2926   */\n      sub\n        /* \"#utility.yul\":2902:2903   */\n      0x00\n        /* \"#utility.yul\":2891:2900   */\n      dup4\n        /* \"#utility.yul\":2887:2904   */\n      add\n        /* \"#utility.yul\":2880:2927   */\n      mstore\n        /* \"#utility.yul\":2944:3022   */\n      tag_197\n        /* \"#utility.yul\":3017:3021   */\n      dup2\n        /* \"#utility.yul\":3008:3014   */\n      dup8\n        /* \"#utility.yul\":2944:3022   */\n      tag_117\n      jump\t// in\n    tag_197:\n        /* \"#utility.yul\":2936:3022   */\n      swap1\n      pop\n        /* \"#utility.yul\":3069:3078   */\n      dup2\n        /* \"#utility.yul\":3063:3067   */\n      dup2\n        /* \"#utility.yul\":3059:3079   */\n      sub\n        /* \"#utility.yul\":3054:3056   */\n      0x20\n        /* \"#utility.yul\":3043:3052   */\n      dup4\n        /* \"#utility.yul\":3039:3057   */\n      add\n        /* \"#utility.yul\":3032:3080   */\n      mstore\n        /* \"#utility.yul\":3097:3175   */\n      tag_198\n        /* \"#utility.yul\":3170:3174   */\n      dup2\n        /* \"#utility.yul\":3161:3167   */\n      dup7\n        /* \"#utility.yul\":3097:3175   */\n      tag_117\n      jump\t// in\n    tag_198:\n        /* \"#utility.yul\":3089:3175   */\n      swap1\n      pop\n        /* \"#utility.yul\":3185:3257   */\n      tag_199\n        /* \"#utility.yul\":3253:3255   */\n      0x40\n        /* \"#utility.yul\":3242:3251   */\n      dup4\n        /* \"#utility.yul\":3238:3256   */\n      add\n        /* \"#utility.yul\":3229:3235   */\n      dup6\n        /* \"#utility.yul\":3185:3257   */\n      tag_119\n      jump\t// in\n    tag_199:\n        /* \"#utility.yul\":3267:3333   */\n      tag_200\n        /* \"#utility.yul\":3329:3331   */\n      0x60\n        /* \"#utility.yul\":3318:3327   */\n      dup4\n        /* \"#utility.yul\":3314:3332   */\n      add\n        /* \"#utility.yul\":3305:3311   */\n      dup5\n        /* \"#utility.yul\":3267:3333   */\n      tag_121\n      jump\t// in\n    tag_200:\n        /* \"#utility.yul\":2617:3340   */\n      swap6\n      swap5\n      pop\n      pop\n      pop\n      pop\n      pop\n      jump\t// out\n        /* \"#utility.yul\":3346:3464   */\n    tag_122:\n        /* \"#utility.yul\":3433:3457   */\n      tag_202\n        /* \"#utility.yul\":3451:3456   */\n      dup2\n        /* \"#utility.yul\":3433:3457   */\n      tag_110\n      jump\t// in\n    tag_202:\n        /* \"#utility.yul\":3428:3431   */\n      dup3\n        /* \"#utility.yul\":3421:3458   */\n      mstore\n        /* \"#utility.yul\":3346:3464   */\n      pop\n      pop\n      jump\t// out\n        /* \"#utility.yul\":3470:3900   */\n    tag_30:\n        /* \"#utility.yul\":3613:3617   */\n      0x00\n        /* \"#utility.yul\":3651:3653   */\n      0x60\n        /* \"#utility.yul\":3640:3649   */\n      dup3\n        /* \"#utility.yul\":3636:3654   */\n      add\n        /* \"#utility.yul\":3628:3654   */\n      swap1\n      pop\n        /* \"#utility.yul\":3664:3735   */\n      tag_204\n        /* \"#utility.yul\":3732:3733   */\n      0x00\n        /* \"#utility.yul\":3721:3730   */\n      dup4\n        /* \"#utility.yul\":3717:3734   */\n      add\n        /* \"#utility.yul\":3708:3714   */\n      dup7\n        /* \"#utility.yul\":3664:3735   */\n      tag_122\n      jump\t// in\n    tag_204:\n        /* \"#utility.yul\":3745:3817   */\n      tag_205\n        /* \"#utility.yul\":3813:3815   */\n      0x20\n        /* \"#utility.yul\":3802:3811   */\n      dup4\n        /* \"#utility.yul\":3798:3816   */\n      add\n        /* \"#utility.yul\":3789:3795   */\n      dup6\n        /* \"#utility.yul\":3745:3817   */\n      tag_119\n      jump\t// in\n    tag_205:\n        /* \"#utility.yul\":3827:3893   */\n      tag_206\n        /* \"#utility.yul\":3889:3891   */\n      0x40\n        /* \"#utility.yul\":3878:3887   */\n      dup4\n        /* \"#utility.yul\":3874:3892   */\n      add\n        /* \"#utility.yul\":3865:3871   */\n      dup5\n        /* \"#utility.yul\":3827:3893   */\n      tag_121\n      jump\t// in\n    tag_206:\n        /* \"#utility.yul\":3470:3900   */\n      swap5\n      swap4\n      pop\n      pop\n      pop\n      pop\n      jump\t// out\n        /* \"#utility.yul\":3906:4023   */\n    tag_123:\n        /* \"#utility.yul\":4015:4016   */\n      0x00\n        /* \"#utility.yul\":4012:4013   */\n      dup1\n        /* \"#utility.yul\":4005:4017   */\n      revert\n        /* \"#utility.yul\":4029:4146   */\n    tag_124:\n        /* \"#utility.yul\":4138:4139   */\n      0x00\n        /* \"#utility.yul\":4135:4136   */\n      dup1\n        /* \"#utility.yul\":4128:4140   */\n      revert\n        /* \"#utility.yul\":4152:4332   */\n    tag_125:\n        /* \"#utility.yul\":4200:4277   */\n      0x4e487b7100000000000000000000000000000000000000000000000000000000\n        /* \"#utility.yul\":4197:4198   */\n      0x00\n        /* \"#utility.yul\":4190:4278   */\n      mstore\n        /* \"#utility.yul\":4297:4301   */\n      0x41\n        /* \"#utility.yul\":4294:4295   */\n      0x04\n        /* \"#utility.yul\":4287:4302   */\n      mstore\n        /* \"#utility.yul\":4321:4325   */\n      0x24\n        /* \"#utility.yul\":4318:4319   */\n      0x00\n        /* \"#utility.yul\":4311:4326   */\n      revert\n        /* \"#utility.yul\":4338:4619   */\n    tag_126:\n        /* \"#utility.yul\":4421:4448   */\n      tag_211\n        /* \"#utility.yul\":4443:4447   */\n      dup3\n        /* \"#utility.yul\":4421:4448   */\n      tag_116\n      jump\t// in\n    tag_211:\n        /* \"#utility.yul\":4413:4419   */\n      dup2\n        /* \"#utility.yul\":4409:4449   */\n      add\n        /* \"#utility.yul\":4551:4557   */\n      dup2\n        /* \"#utility.yul\":4539:4549   */\n      dup2\n        /* \"#utility.yul\":4536:4558   */\n      lt\n        /* \"#utility.yul\":4515:4533   */\n      0xffffffffffffffff\n        /* \"#utility.yul\":4503:4513   */\n      dup3\n        /* \"#utility.yul\":4500:4534   */\n      gt\n        /* \"#utility.yul\":4497:4559   */\n      or\n        /* \"#utility.yul\":4494:4582   */\n      iszero\n      tag_212\n      jumpi\n        /* \"#utility.yul\":4562:4580   */\n      tag_213\n      tag_125\n      jump\t// in\n    tag_213:\n        /* \"#utility.yul\":4494:4582   */\n    tag_212:\n        /* \"#utility.yul\":4602:4612   */\n      dup1\n        /* \"#utility.yul\":4598:4600   */\n      0x40\n        /* \"#utility.yul\":4591:4613   */\n      mstore\n        /* \"#utility.yul\":4381:4619   */\n      pop\n        /* \"#utility.yul\":4338:4619   */\n      pop\n      pop\n      jump\t// out\n        /* \"#utility.yul\":4625:4754   */\n    tag_127:\n        /* \"#utility.yul\":4659:4665   */\n      0x00\n        /* \"#utility.yul\":4686:4706   */\n      tag_215\n      tag_106\n      jump\t// in\n    tag_215:\n        /* \"#utility.yul\":4676:4706   */\n      swap1\n      pop\n        /* \"#utility.yul\":4715:4748   */\n      tag_216\n        /* \"#utility.yul\":4743:4747   */\n      dup3\n        /* \"#utility.yul\":4735:4741   */\n      dup3\n        /* \"#utility.yul\":4715:4748   */\n      tag_126\n      jump\t// in\n    tag_216:\n        /* \"#utility.yul\":4625:4754   */\n      swap2\n      swap1\n      pop\n      jump\t// out\n        /* \"#utility.yul\":4760:5068   */\n    tag_128:\n        /* \"#utility.yul\":4822:4826   */\n      0x00\n        /* \"#utility.yul\":4912:4930   */\n      0xffffffffffffffff\n        /* \"#utility.yul\":4904:4910   */\n      dup3\n        /* \"#utility.yul\":4901:4931   */\n      gt\n        /* \"#utility.yul\":4898:4954   */\n      iszero\n      tag_218\n      jumpi\n        /* \"#utility.yul\":4934:4952   */\n      tag_219\n      tag_125\n      jump\t// in\n    tag_219:\n        /* \"#utility.yul\":4898:4954   */\n    tag_218:\n        /* \"#utility.yul\":4972:5001   */\n      tag_220\n        /* \"#utility.yul\":4994:5000   */\n      dup3\n        /* \"#utility.yul\":4972:5001   */\n      tag_116\n      jump\t// in\n    tag_220:\n        /* \"#utility.yul\":4964:5001   */\n      swap1\n      pop\n        /* \"#utility.yul\":5056:5060   */\n      0x20\n        /* \"#utility.yul\":5050:5054   */\n      dup2\n        /* \"#utility.yul\":5046:5061   */\n      add\n        /* \"#utility.yul\":5038:5061   */\n      swap1\n      pop\n        /* \"#utility.yul\":4760:5068   */\n      swap2\n      swap1\n      pop\n      jump\t// out\n        /* \"#utility.yul\":5074:5220   */\n    tag_129:\n        /* \"#utility.yul\":5171:5177   */\n      dup3\n        /* \"#utility.yul\":5166:5169   */\n      dup2\n        /* \"#utility.yul\":5161:5164   */\n      dup4\n        /* \"#utility.yul\":5148:5178   */\n      calldatacopy\n        /* \"#utility.yul\":5212:5213   */\n      0x00\n        /* \"#utility.yul\":5203:5209   */\n      dup4\n        /* \"#utility.yul\":5198:5201   */\n      dup4\n        /* \"#utility.yul\":5194:5210   */\n      add\n        /* \"#utility.yul\":5187:5214   */\n      mstore\n        /* \"#utility.yul\":5074:5220   */\n      pop\n      pop\n      pop\n      jump\t// out\n        /* \"#utility.yul\":5226:5651   */\n    tag_130:\n        /* \"#utility.yul\":5304:5309   */\n      0x00\n        /* \"#utility.yul\":5329:5395   */\n      tag_223\n        /* \"#utility.yul\":5345:5394   */\n      tag_224\n        /* \"#utility.yul\":5387:5393   */\n      dup5\n        /* \"#utility.yul\":5345:5394   */\n      tag_128\n      jump\t// in\n    tag_224:\n        /* \"#utility.yul\":5329:5395   */\n      tag_127\n      jump\t// in\n    tag_223:\n        /* \"#utility.yul\":5320:5395   */\n      swap1\n      pop\n        /* \"#utility.yul\":5418:5424   */\n      dup3\n        /* \"#utility.yul\":5411:5416   */\n      dup2\n        /* \"#utility.yul\":5404:5425   */\n      mstore\n        /* \"#utility.yul\":5456:5460   */\n      0x20\n        /* \"#utility.yul\":5449:5454   */\n      dup2\n        /* \"#utility.yul\":5445:5461   */\n      add\n        /* \"#utility.yul\":5494:5497   */\n      dup5\n        /* \"#utility.yul\":5485:5491   */\n      dup5\n        /* \"#utility.yul\":5480:5483   */\n      dup5\n        /* \"#utility.yul\":5476:5492   */\n      add\n        /* \"#utility.yul\":5473:5498   */\n      gt\n        /* \"#utility.yul\":5470:5582   */\n      iszero\n      tag_225\n      jumpi\n        /* \"#utility.yul\":5501:5580   */\n      tag_226\n      tag_124\n      jump\t// in\n    tag_226:\n        /* \"#utility.yul\":5470:5582   */\n    tag_225:\n        /* \"#utility.yul\":5591:5645   */\n      tag_227\n        /* \"#utility.yul\":5638:5644   */\n      dup5\n        /* \"#utility.yul\":5633:5636   */\n      dup3\n        /* \"#utility.yul\":5628:5631   */\n      dup6\n        /* \"#utility.yul\":5591:5645   */\n      tag_129\n      jump\t// in\n    tag_227:\n        /* \"#utility.yul\":5310:5651   */\n      pop\n        /* \"#utility.yul\":5226:5651   */\n      swap4\n      swap3\n      pop\n      pop\n      pop\n      jump\t// out\n        /* \"#utility.yul\":5671:6011   */\n    tag_131:\n        /* \"#utility.yul\":5727:5732   */\n      0x00\n        /* \"#utility.yul\":5776:5779   */\n      dup3\n        /* \"#utility.yul\":5769:5773   */\n      0x1f\n        /* \"#utility.yul\":5761:5767   */\n      dup4\n        /* \"#utility.yul\":5757:5774   */\n      add\n        /* \"#utility.yul\":5753:5780   */\n      slt\n        /* \"#utility.yul\":5743:5865   */\n      tag_229\n      jumpi\n        /* \"#utility.yul\":5784:5863   */\n      tag_230\n      tag_123\n      jump\t// in\n    tag_230:\n        /* \"#utility.yul\":5743:5865   */\n    tag_229:\n        /* \"#utility.yul\":5901:5907   */\n      dup2\n        /* \"#utility.yul\":5888:5908   */\n      calldataload\n        /* \"#utility.yul\":5926:6005   */\n      tag_231\n        /* \"#utility.yul\":6001:6004   */\n      dup5\n        /* \"#utility.yul\":5993:5999   */\n      dup3\n        /* \"#utility.yul\":5986:5990   */\n      0x20\n        /* \"#utility.yul\":5978:5984   */\n      dup7\n        /* \"#utility.yul\":5974:5991   */\n      add\n        /* \"#utility.yul\":5926:6005   */\n      tag_130\n      jump\t// in\n    tag_231:\n        /* \"#utility.yul\":5917:6005   */\n      swap2\n      pop\n        /* \"#utility.yul\":5733:6011   */\n      pop\n        /* \"#utility.yul\":5671:6011   */\n      swap3\n      swap2\n      pop\n      pop\n      jump\t// out\n        /* \"#utility.yul\":6017:6139   */\n    tag_132:\n        /* \"#utility.yul\":6090:6114   */\n      tag_233\n        /* \"#utility.yul\":6108:6113   */\n      dup2\n        /* \"#utility.yul\":6090:6114   */\n      tag_118\n      jump\t// in\n    tag_233:\n        /* \"#utility.yul\":6083:6088   */\n      dup2\n        /* \"#utility.yul\":6080:6115   */\n      eq\n        /* \"#utility.yul\":6070:6133   */\n      tag_234\n      jumpi\n        /* \"#utility.yul\":6129:6130   */\n      0x00\n        /* \"#utility.yul\":6126:6127   */\n      dup1\n        /* \"#utility.yul\":6119:6131   */\n      revert\n        /* \"#utility.yul\":6070:6133   */\n    tag_234:\n        /* \"#utility.yul\":6017:6139   */\n      pop\n      jump\t// out\n        /* \"#utility.yul\":6145:6284   */\n    tag_133:\n        /* \"#utility.yul\":6191:6196   */\n      0x00\n        /* \"#utility.yul\":6229:6235   */\n      dup2\n        /* \"#utility.yul\":6216:6236   */\n      calldataload\n        /* \"#utility.yul\":6207:6236   */\n      swap1\n      pop\n        /* \"#utility.yul\":6245:6278   */\n      tag_236\n        /* \"#utility.yul\":6272:6277   */\n      dup2\n        /* \"#utility.yul\":6245:6278   */\n      tag_132\n      jump\t// in\n    tag_236:\n        /* \"#utility.yul\":6145:6284   */\n      swap3\n      swap2\n      pop\n      pop\n      jump\t// out\n        /* \"#utility.yul\":6290:7269   */\n    tag_33:\n        /* \"#utility.yul\":6387:6393   */\n      0x00\n        /* \"#utility.yul\":6395:6401   */\n      dup1\n        /* \"#utility.yul\":6403:6409   */\n      0x00\n        /* \"#utility.yul\":6452:6454   */\n      0x60\n        /* \"#utility.yul\":6440:6449   */\n      dup5\n        /* \"#utility.yul\":6431:6438   */\n      dup7\n        /* \"#utility.yul\":6427:6450   */\n      sub\n        /* \"#utility.yul\":6423:6455   */\n      slt\n        /* \"#utility.yul\":6420:6539   */\n      iszero\n      tag_238\n      jumpi\n        /* \"#utility.yul\":6458:6537   */\n      tag_239\n      tag_107\n      jump\t// in\n    tag_239:\n        /* \"#utility.yul\":6420:6539   */\n    tag_238:\n        /* \"#utility.yul\":6606:6607   */\n      0x00\n        /* \"#utility.yul\":6595:6604   */\n      dup5\n        /* \"#utility.yul\":6591:6608   */\n      add\n        /* \"#utility.yul\":6578:6609   */\n      calldataload\n        /* \"#utility.yul\":6636:6654   */\n      0xffffffffffffffff\n        /* \"#utility.yul\":6628:6634   */\n      dup2\n        /* \"#utility.yul\":6625:6655   */\n      gt\n        /* \"#utility.yul\":6622:6739   */\n      iszero\n      tag_240\n      jumpi\n        /* \"#utility.yul\":6658:6737   */\n      tag_241\n      tag_108\n      jump\t// in\n    tag_241:\n        /* \"#utility.yul\":6622:6739   */\n    tag_240:\n        /* \"#utility.yul\":6763:6826   */\n      tag_242\n        /* \"#utility.yul\":6818:6825   */\n      dup7\n        /* \"#utility.yul\":6809:6815   */\n      dup3\n        /* \"#utility.yul\":6798:6807   */\n      dup8\n        /* \"#utility.yul\":6794:6816   */\n      add\n        /* \"#utility.yul\":6763:6826   */\n      tag_131\n      jump\t// in\n    tag_242:\n        /* \"#utility.yul\":6753:6826   */\n      swap4\n      pop\n        /* \"#utility.yul\":6549:6836   */\n      pop\n        /* \"#utility.yul\":6903:6905   */\n      0x20\n        /* \"#utility.yul\":6892:6901   */\n      dup5\n        /* \"#utility.yul\":6888:6906   */\n      add\n        /* \"#utility.yul\":6875:6907   */\n      calldataload\n        /* \"#utility.yul\":6934:6952   */\n      0xffffffffffffffff\n        /* \"#utility.yul\":6926:6932   */\n      dup2\n        /* \"#utility.yul\":6923:6953   */\n      gt\n        /* \"#utility.yul\":6920:7037   */\n      iszero\n      tag_243\n      jumpi\n        /* \"#utility.yul\":6956:7035   */\n      tag_244\n      tag_108\n      jump\t// in\n    tag_244:\n        /* \"#utility.yul\":6920:7037   */\n    tag_243:\n        /* \"#utility.yul\":7061:7124   */\n      tag_245\n        /* \"#utility.yul\":7116:7123   */\n      dup7\n        /* \"#utility.yul\":7107:7113   */\n      dup3\n        /* \"#utility.yul\":7096:7105   */\n      dup8\n        /* \"#utility.yul\":7092:7114   */\n      add\n        /* \"#utility.yul\":7061:7124   */\n      tag_131\n      jump\t// in\n    tag_245:\n        /* \"#utility.yul\":7051:7124   */\n      swap3\n      pop\n        /* \"#utility.yul\":6846:7134   */\n      pop\n        /* \"#utility.yul\":7173:7175   */\n      0x40\n        /* \"#utility.yul\":7199:7252   */\n      tag_246\n        /* \"#utility.yul\":7244:7251   */\n      dup7\n        /* \"#utility.yul\":7235:7241   */\n      dup3\n        /* \"#utility.yul\":7224:7233   */\n      dup8\n        /* \"#utility.yul\":7220:7242   */\n      add\n        /* \"#utility.yul\":7199:7252   */\n      tag_133\n      jump\t// in\n    tag_246:\n        /* \"#utility.yul\":7189:7252   */\n      swap2\n      pop\n        /* \"#utility.yul\":7144:7262   */\n      pop\n        /* \"#utility.yul\":6290:7269   */\n      swap3\n      pop\n      swap3\n      pop\n      swap3\n      jump\t// out\n        /* \"#utility.yul\":7275:7497   */\n    tag_39:\n        /* \"#utility.yul\":7368:7372   */\n      0x00\n        /* \"#utility.yul\":7406:7408   */\n      0x20\n        /* \"#utility.yul\":7395:7404   */\n      dup3\n        /* \"#utility.yul\":7391:7409   */\n      add\n        /* \"#utility.yul\":7383:7409   */\n      swap1\n      pop\n        /* \"#utility.yul\":7419:7490   */\n      tag_248\n        /* \"#utility.yul\":7487:7488   */\n      0x00\n        /* \"#utility.yul\":7476:7485   */\n      dup4\n        /* \"#utility.yul\":7472:7489   */\n      add\n        /* \"#utility.yul\":7463:7469   */\n      dup5\n        /* \"#utility.yul\":7419:7490   */\n      tag_122\n      jump\t// in\n    tag_248:\n        /* \"#utility.yul\":7275:7497   */\n      swap3\n      swap2\n      pop\n      pop\n      jump\t// out\n        /* \"#utility.yul\":7503:7832   */\n    tag_43:\n        /* \"#utility.yul\":7562:7568   */\n      0x00\n        /* \"#utility.yul\":7611:7613   */\n      0x20\n        /* \"#utility.yul\":7599:7608   */\n      dup3\n        /* \"#utility.yul\":7590:7597   */\n      dup5\n        /* \"#utility.yul\":7586:7609   */\n      sub\n        /* \"#utility.yul\":7582:7614   */\n      slt\n        /* \"#utility.yul\":7579:7698   */\n      iszero\n      tag_250\n      jumpi\n        /* \"#utility.yul\":7617:7696   */\n      tag_251\n      tag_107\n      jump\t// in\n    tag_251:\n        /* \"#utility.yul\":7579:7698   */\n    tag_250:\n        /* \"#utility.yul\":7737:7738   */\n      0x00\n        /* \"#utility.yul\":7762:7815   */\n      tag_252\n        /* \"#utility.yul\":7807:7814   */\n      dup5\n        /* \"#utility.yul\":7798:7804   */\n      dup3\n        /* \"#utility.yul\":7787:7796   */\n      dup6\n        /* \"#utility.yul\":7783:7805   */\n      add\n        /* \"#utility.yul\":7762:7815   */\n      tag_133\n      jump\t// in\n    tag_252:\n        /* \"#utility.yul\":7752:7815   */\n      swap2\n      pop\n        /* \"#utility.yul\":7708:7825   */\n      pop\n        /* \"#utility.yul\":7503:7832   */\n      swap3\n      swap2\n      pop\n      pop\n      jump\t// out\n        /* \"#utility.yul\":7838:8018   */\n    tag_134:\n        /* \"#utility.yul\":7886:7963   */\n      0x4e487b7100000000000000000000000000000000000000000000000000000000\n        /* \"#utility.yul\":7883:7884   */\n      0x00\n        /* \"#utility.yul\":7876:7964   */\n      mstore\n        /* \"#utility.yul\":7983:7987   */\n      0x22\n        /* \"#utility.yul\":7980:7981   */\n      0x04\n        /* \"#utility.yul\":7973:7988   */\n      mstore\n        /* \"#utility.yul\":8007:8011   */\n      0x24\n        /* \"#utility.yul\":8004:8005   */\n      0x00\n        /* \"#utility.yul\":7997:8012   */\n      revert\n        /* \"#utility.yul\":8024:8344   */\n    tag_50:\n        /* \"#utility.yul\":8068:8074   */\n      0x00\n        /* \"#utility.yul\":8105:8106   */\n      0x02\n        /* \"#utility.yul\":8099:8103   */\n      dup3\n        /* \"#utility.yul\":8095:8107   */\n      div\n        /* \"#utility.yul\":8085:8107   */\n      swap1\n      pop\n        /* \"#utility.yul\":8152:8153   */\n      0x01\n        /* \"#utility.yul\":8146:8150   */\n      dup3\n        /* \"#utility.yul\":8142:8154   */\n      and\n        /* \"#utility.yul\":8173:8191   */\n      dup1\n        /* \"#utility.yul\":8163:8244   */\n      tag_255\n      jumpi\n        /* \"#utility.yul\":8229:8233   */\n      0x7f\n        /* \"#utility.yul\":8221:8227   */\n      dup3\n        /* \"#utility.yul\":8217:8234   */\n      and\n        /* \"#utility.yul\":8207:8234   */\n      swap2\n      pop\n        /* \"#utility.yul\":8163:8244   */\n    tag_255:\n        /* \"#utility.yul\":8291:8293   */\n      0x20\n        /* \"#utility.yul\":8283:8289   */\n      dup3\n        /* \"#utility.yul\":8280:8294   */\n      lt\n        /* \"#utility.yul\":8260:8278   */\n      dup2\n        /* \"#utility.yul\":8257:8295   */\n      sub\n        /* \"#utility.yul\":8254:8338   */\n      tag_256\n      jumpi\n        /* \"#utility.yul\":8310:8328   */\n      tag_257\n      tag_134\n      jump\t// in\n    tag_257:\n        /* \"#utility.yul\":8254:8338   */\n    tag_256:\n        /* \"#utility.yul\":8075:8344   */\n      pop\n        /* \"#utility.yul\":8024:8344   */\n      swap2\n      swap1\n      pop\n      jump\t// out\n        /* \"#utility.yul\":8350:8510   */\n    tag_135:\n        /* \"#utility.yul\":8490:8502   */\n      0x206e6f7275717565737400000000000000000000000000000000000000000000\n        /* \"#utility.yul\":8486:8487   */\n      0x00\n        /* \"#utility.yul\":8478:8484   */\n      dup3\n        /* \"#utility.yul\":8474:8488   */\n      add\n        /* \"#utility.yul\":8467:8503   */\n      mstore\n        /* \"#utility.yul\":8350:8510   */\n      pop\n      jump\t// out\n        /* \"#utility.yul\":8516:8882   */\n    tag_136:\n        /* \"#utility.yul\":8658:8661   */\n      0x00\n        /* \"#utility.yul\":8679:8746   */\n      tag_260\n        /* \"#utility.yul\":8743:8745   */\n      0x0a\n        /* \"#utility.yul\":8738:8741   */\n      dup4\n        /* \"#utility.yul\":8679:8746   */\n      tag_114\n      jump\t// in\n    tag_260:\n        /* \"#utility.yul\":8672:8746   */\n      swap2\n      pop\n        /* \"#utility.yul\":8755:8848   */\n      tag_261\n        /* \"#utility.yul\":8844:8847   */\n      dup3\n        /* \"#utility.yul\":8755:8848   */\n      tag_135\n      jump\t// in\n    tag_261:\n        /* \"#utility.yul\":8873:8875   */\n      0x20\n        /* \"#utility.yul\":8868:8871   */\n      dup3\n        /* \"#utility.yul\":8864:8876   */\n      add\n        /* \"#utility.yul\":8857:8876   */\n      swap1\n      pop\n        /* \"#utility.yul\":8516:8882   */\n      swap2\n      swap1\n      pop\n      jump\t// out\n        /* \"#utility.yul\":8888:9307   */\n    tag_66:\n        /* \"#utility.yul\":9054:9058   */\n      0x00\n        /* \"#utility.yul\":9092:9094   */\n      0x20\n        /* \"#utility.yul\":9081:9090   */\n      dup3\n        /* \"#utility.yul\":9077:9095   */\n      add\n        /* \"#utility.yul\":9069:9095   */\n      swap1\n      pop\n        /* \"#utility.yul\":9141:9150   */\n      dup2\n        /* \"#utility.yul\":9135:9139   */\n      dup2\n        /* \"#utility.yul\":9131:9151   */\n      sub\n        /* \"#utility.yul\":9127:9128   */\n      0x00\n        /* \"#utility.yul\":9116:9125   */\n      dup4\n        /* \"#utility.yul\":9112:9129   */\n      add\n        /* \"#utility.yul\":9105:9152   */\n      mstore\n        /* \"#utility.yul\":9169:9300   */\n      tag_263\n        /* \"#utility.yul\":9295:9299   */\n      dup2\n        /* \"#utility.yul\":9169:9300   */\n      tag_136\n      jump\t// in\n    tag_263:\n        /* \"#utility.yul\":9161:9300   */\n      swap1\n      pop\n        /* \"#utility.yul\":8888:9307   */\n      swap2\n      swap1\n      pop\n      jump\t// out\n        /* \"#utility.yul\":9313:9479   */\n    tag_137:\n        /* \"#utility.yul\":9453:9471   */\n      0x7265717565737420617070726f76656400000000000000000000000000000000\n        /* \"#utility.yul\":9449:9450   */\n      0x00\n        /* \"#utility.yul\":9441:9447   */\n      dup3\n        /* \"#utility.yul\":9437:9451   */\n      add\n        /* \"#utility.yul\":9430:9472   */\n      mstore\n        /* \"#utility.yul\":9313:9479   */\n      pop\n      jump\t// out\n        /* \"#utility.yul\":9485:9851   */\n    tag_138:\n        /* \"#utility.yul\":9627:9630   */\n      0x00\n        /* \"#utility.yul\":9648:9715   */\n      tag_266\n        /* \"#utility.yul\":9712:9714   */\n      0x10\n        /* \"#utility.yul\":9707:9710   */\n      dup4\n        /* \"#utility.yul\":9648:9715   */\n      tag_114\n      jump\t// in\n    tag_266:\n        /* \"#utility.yul\":9641:9715   */\n      swap2\n      pop\n        /* \"#utility.yul\":9724:9817   */\n      tag_267\n        /* \"#utility.yul\":9813:9816   */\n      dup3\n        /* \"#utility.yul\":9724:9817   */\n      tag_137\n      jump\t// in\n    tag_267:\n        /* \"#utility.yul\":9842:9844   */\n      0x20\n        /* \"#utility.yul\":9837:9840   */\n      dup3\n        /* \"#utility.yul\":9833:9845   */\n      add\n        /* \"#utility.yul\":9826:9845   */\n      swap1\n      pop\n        /* \"#utility.yul\":9485:9851   */\n      swap2\n      swap1\n      pop\n      jump\t// out\n        /* \"#utility.yul\":9857:10276   */\n    tag_69:\n        /* \"#utility.yul\":10023:10027   */\n      0x00\n        /* \"#utility.yul\":10061:10063   */\n      0x20\n        /* \"#utility.yul\":10050:10059   */\n      dup3\n        /* \"#utility.yul\":10046:10064   */\n      add\n        /* \"#utility.yul\":10038:10064   */\n      swap1\n      pop\n        /* \"#utility.yul\":10110:10119   */\n      dup2\n        /* \"#utility.yul\":10104:10108   */\n      dup2\n        /* \"#utility.yul\":10100:10120   */\n      sub\n        /* \"#utility.yul\":10096:10097   */\n      0x00\n        /* \"#utility.yul\":10085:10094   */\n      dup4\n        /* \"#utility.yul\":10081:10098   */\n      add\n        /* \"#utility.yul\":10074:10121   */\n      mstore\n        /* \"#utility.yul\":10138:10269   */\n      tag_269\n        /* \"#utility.yul\":10264:10268   */\n      dup2\n        /* \"#utility.yul\":10138:10269   */\n      tag_138\n      jump\t// in\n    tag_269:\n        /* \"#utility.yul\":10130:10269   */\n      swap1\n      pop\n        /* \"#utility.yul\":9857:10276   */\n      swap2\n      swap1\n      pop\n      jump\t// out\n        /* \"#utility.yul\":10282:10440   */\n    tag_139:\n        /* \"#utility.yul\":10422:10432   */\n      0x696e76616c696564000000000000000000000000000000000000000000000000\n        /* \"#utility.yul\":10418:10419   */\n      0x00\n        /* \"#utility.yul\":10410:10416   */\n      dup3\n        /* \"#utility.yul\":10406:10420   */\n      add\n        /* \"#utility.yul\":10399:10433   */\n      mstore\n        /* \"#utility.yul\":10282:10440   */\n      pop\n      jump\t// out\n        /* \"#utility.yul\":10446:10811   */\n    tag_140:\n        /* \"#utility.yul\":10588:10591   */\n      0x00\n        /* \"#utility.yul\":10609:10675   */\n      tag_272\n        /* \"#utility.yul\":10673:10674   */\n      0x08\n        /* \"#utility.yul\":10668:10671   */\n      dup4\n        /* \"#utility.yul\":10609:10675   */\n      tag_114\n      jump\t// in\n    tag_272:\n        /* \"#utility.yul\":10602:10675   */\n      swap2\n      pop\n        /* \"#utility.yul\":10684:10777   */\n      tag_273\n        /* \"#utility.yul\":10773:10776   */\n      dup3\n        /* \"#utility.yul\":10684:10777   */\n      tag_139\n      jump\t// in\n    tag_273:\n        /* \"#utility.yul\":10802:10804   */\n      0x20\n        /* \"#utility.yul\":10797:10800   */\n      dup3\n        /* \"#utility.yul\":10793:10805   */\n      add\n        /* \"#utility.yul\":10786:10805   */\n      swap1\n      pop\n        /* \"#utility.yul\":10446:10811   */\n      swap2\n      swap1\n      pop\n      jump\t// out\n        /* \"#utility.yul\":10817:11236   */\n    tag_81:\n        /* \"#utility.yul\":10983:10987   */\n      0x00\n        /* \"#utility.yul\":11021:11023   */\n      0x20\n        /* \"#utility.yul\":11010:11019   */\n      dup3\n        /* \"#utility.yul\":11006:11024   */\n      add\n        /* \"#utility.yul\":10998:11024   */\n      swap1\n      pop\n        /* \"#utility.yul\":11070:11079   */\n      dup2\n        /* \"#utility.yul\":11064:11068   */\n      dup2\n        /* \"#utility.yul\":11060:11080   */\n      sub\n        /* \"#utility.yul\":11056:11057   */\n      0x00\n        /* \"#utility.yul\":11045:11054   */\n      dup4\n        /* \"#utility.yul\":11041:11058   */\n      add\n        /* \"#utility.yul\":11034:11081   */\n      mstore\n        /* \"#utility.yul\":11098:11229   */\n      tag_275\n        /* \"#utility.yul\":11224:11228   */\n      dup2\n        /* \"#utility.yul\":11098:11229   */\n      tag_140\n      jump\t// in\n    tag_275:\n        /* \"#utility.yul\":11090:11229   */\n      swap1\n      pop\n        /* \"#utility.yul\":10817:11236   */\n      swap2\n      swap1\n      pop\n      jump\t// out\n        /* \"#utility.yul\":11242:11383   */\n    tag_141:\n        /* \"#utility.yul\":11291:11295   */\n      0x00\n        /* \"#utility.yul\":11314:11317   */\n      dup2\n        /* \"#utility.yul\":11306:11317   */\n      swap1\n      pop\n        /* \"#utility.yul\":11337:11340   */\n      dup2\n        /* \"#utility.yul\":11334:11335   */\n      0x00\n        /* \"#utility.yul\":11327:11341   */\n      mstore\n        /* \"#utility.yul\":11371:11375   */\n      0x20\n        /* \"#utility.yul\":11368:11369   */\n      0x00\n        /* \"#utility.yul\":11358:11376   */\n      keccak256\n        /* \"#utility.yul\":11350:11376   */\n      swap1\n      pop\n        /* \"#utility.yul\":11242:11383   */\n      swap2\n      swap1\n      pop\n      jump\t// out\n        /* \"#utility.yul\":11389:11482   */\n    tag_142:\n        /* \"#utility.yul\":11426:11432   */\n      0x00\n        /* \"#utility.yul\":11473:11475   */\n      0x20\n        /* \"#utility.yul\":11468:11470   */\n      0x1f\n        /* \"#utility.yul\":11461:11466   */\n      dup4\n        /* \"#utility.yul\":11457:11471   */\n      add\n        /* \"#utility.yul\":11453:11476   */\n      div\n        /* \"#utility.yul\":11443:11476   */\n      swap1\n      pop\n        /* \"#utility.yul\":11389:11482   */\n      swap2\n      swap1\n      pop\n      jump\t// out\n        /* \"#utility.yul\":11488:11595   */\n    tag_143:\n        /* \"#utility.yul\":11532:11540   */\n      0x00\n        /* \"#utility.yul\":11582:11587   */\n      dup3\n        /* \"#utility.yul\":11576:11580   */\n      dup3\n        /* \"#utility.yul\":11572:11588   */\n      shl\n        /* \"#utility.yul\":11551:11588   */\n      swap1\n      pop\n        /* \"#utility.yul\":11488:11595   */\n      swap3\n      swap2\n      pop\n      pop\n      jump\t// out\n        /* \"#utility.yul\":11601:11994   */\n    tag_144:\n        /* \"#utility.yul\":11670:11676   */\n      0x00\n        /* \"#utility.yul\":11720:11721   */\n      0x08\n        /* \"#utility.yul\":11708:11718   */\n      dup4\n        /* \"#utility.yul\":11704:11722   */\n      mul\n        /* \"#utility.yul\":11743:11840   */\n      tag_280\n        /* \"#utility.yul\":11773:11839   */\n      0xffffffffffffffffffffffffffffffffffffffffffffffffffffffffffffffff\n        /* \"#utility.yul\":11762:11771   */\n      dup3\n        /* \"#utility.yul\":11743:11840   */\n      tag_143\n      jump\t// in\n    tag_280:\n        /* \"#utility.yul\":11861:11900   */\n      tag_281\n        /* \"#utility.yul\":11891:11899   */\n      dup7\n        /* \"#utility.yul\":11880:11889   */\n      dup4\n        /* \"#utility.yul\":11861:11900   */\n      tag_143\n      jump\t// in\n    tag_281:\n        /* \"#utility.yul\":11849:11900   */\n      swap6\n      pop\n        /* \"#utility.yul\":11933:11937   */\n      dup1\n        /* \"#utility.yul\":11929:11938   */\n      not\n        /* \"#utility.yul\":11922:11927   */\n      dup5\n        /* \"#utility.yul\":11918:11939   */\n      and\n        /* \"#utility.yul\":11909:11939   */\n      swap4\n      pop\n        /* \"#utility.yul\":11982:11986   */\n      dup1\n        /* \"#utility.yul\":11972:11980   */\n      dup7\n        /* \"#utility.yul\":11968:11987   */\n      and\n        /* \"#utility.yul\":11961:11966   */\n      dup5\n        /* \"#utility.yul\":11958:11988   */\n      or\n        /* \"#utility.yul\":11948:11988   */\n      swap3\n      pop\n        /* \"#utility.yul\":11677:11994   */\n      pop\n      pop\n        /* \"#utility.yul\":11601:11994   */\n      swap4\n      swap3\n      pop\n      pop\n      pop\n      jump\t// out\n        /* \"#utility.yul\":12000:12060   */\n    tag_145:\n        /* \"#utility.yul\":12028:12031   */\n      0x00\n        /* \"#utility.yul\":12049:12054   */\n      dup2\n        /* \"#utility.yul\":12042:12054   */\n      swap1\n      pop\n        /* \"#utility.yul\":12000:12060   */\n      swap2\n      swap1\n      pop\n      jump\t// out\n        /* \"#utility.yul\":12066:12208   */\n    tag_146:\n        /* \"#utility.yul\":12116:12125   */\n      0x00\n        /* \"#utility.yul\":12149:12202   */\n      tag_284\n        /* \"#utility.yul\":12167:12201   */\n      tag_285\n        /* \"#utility.yul\":12176:12200   */\n      tag_286\n        /* \"#utility.yul\":12194:12199   */\n      dup5\n        /* \"#utility.yul\":12176:12200   */\n      tag_118\n      jump\t// in\n    tag_286:\n        /* \"#utility.yul\":12167:12201   */\n      tag_145\n      jump\t// in\n    tag_285:\n        /* \"#utility.yul\":12149:12202   */\n      tag_118\n      jump\t// in\n    tag_284:\n        /* \"#utility.yul\":12136:12202   */\n      swap1\n      pop\n        /* \"#utility.yul\":12066:12208   */\n      swap2\n      swap1\n      pop\n      jump\t// out\n        /* \"#utility.yul\":12214:12289   */\n    tag_147:\n        /* \"#utility.yul\":12257:12260   */\n      0x00\n        /* \"#utility.yul\":12278:12283   */\n      dup2\n        /* \"#utility.yul\":12271:12283   */\n      swap1\n      pop\n        /* \"#utility.yul\":12214:12289   */\n      swap2\n      swap1\n      pop\n      jump\t// out\n        /* \"#utility.yul\":12295:12564   */\n    tag_148:\n        /* \"#utility.yul\":12405:12444   */\n      tag_289\n        /* \"#utility.yul\":12436:12443   */\n      dup4\n        /* \"#utility.yul\":12405:12444   */\n      tag_146\n      jump\t// in\n    tag_289:\n        /* \"#utility.yul\":12466:12557   */\n      tag_290\n        /* \"#utility.yul\":12515:12556   */\n      tag_291\n        /* \"#utility.yul\":12539:12555   */\n      dup3\n        /* \"#utility.yul\":12515:12556   */\n      tag_147\n      jump\t// in\n    tag_291:\n        /* \"#utility.yul\":12507:12513   */\n      dup5\n        /* \"#utility.yul\":12500:12504   */\n      dup5\n        /* \"#utility.yul\":12494:12505   */\n      sload\n        /* \"#utility.yul\":12466:12557   */\n      tag_144\n      jump\t// in\n    tag_290:\n        /* \"#utility.yul\":12460:12464   */\n      dup3\n        /* \"#utility.yul\":12453:12558   */\n      sstore\n        /* \"#utility.yul\":12371:12564   */\n      pop\n        /* \"#utility.yul\":12295:12564   */\n      pop\n      pop\n      pop\n      jump\t// out\n        /* \"#utility.yul\":12570:12643   */\n    tag_149:\n        /* \"#utility.yul\":12615:12618   */\n      0x00\n        /* \"#utility.yul\":12570:12643   */\n      swap1\n      jump\t// out\n        /* \"#utility.yul\":12649:12838   */\n    tag_150:\n        /* \"#utility.yul\":12726:12758   */\n      tag_294\n      tag_149\n      jump\t// in\n    tag_294:\n        /* \"#utility.yul\":12767:12832   */\n      tag_295\n        /* \"#utility.yul\":12825:12831   */\n      dup2\n        /* \"#utility.yul\":12817:12823   */\n      dup5\n        /* \"#utility.yul\":12811:12815   */\n      dup5\n        /* \"#utility.yul\":12767:12832   */\n      tag_148\n      jump\t// in\n    tag_295:\n        /* \"#utility.yul\":12702:12838   */\n      pop\n        /* \"#utility.yul\":12649:12838   */\n      pop\n      pop\n      jump\t// out\n        /* \"#utility.yul\":12844:13030   */\n    tag_151:\n        /* \"#utility.yul\":12904:13024   */\n    tag_297:\n        /* \"#utility.yul\":12921:12924   */\n      dup2\n        /* \"#utility.yul\":12914:12919   */\n      dup2\n        /* \"#utility.yul\":12911:12925   */\n      lt\n        /* \"#utility.yul\":12904:13024   */\n      iszero\n      tag_299\n      jumpi\n        /* \"#utility.yul\":12975:13014   */\n      tag_300\n        /* \"#utility.yul\":13012:13013   */\n      0x00\n        /* \"#utility.yul\":13005:13010   */\n      dup3\n        /* \"#utility.yul\":12975:13014   */\n      tag_150\n      jump\t// in\n    tag_300:\n        /* \"#utility.yul\":12948:12949   */\n      0x01\n        /* \"#utility.yul\":12941:12946   */\n      dup2\n        /* \"#utility.yul\":12937:12950   */\n      add\n        /* \"#utility.yul\":12928:12950   */\n      swap1\n      pop\n        /* \"#utility.yul\":12904:13024   */\n      jump(tag_297)\n    tag_299:\n        /* \"#utility.yul\":12844:13030   */\n      pop\n      pop\n      jump\t// out\n        /* \"#utility.yul\":13036:13579   */\n    tag_152:\n        /* \"#utility.yul\":13137:13139   */\n      0x1f\n        /* \"#utility.yul\":13132:13135   */\n      dup3\n        /* \"#utility.yul\":13129:13140   */\n      gt\n        /* \"#utility.yul\":13126:13572   */\n      iszero\n      tag_302\n      jumpi\n        /* \"#utility.yul\":13171:13209   */\n      tag_303\n        /* \"#utility.yul\":13203:13208   */\n      dup2\n        /* \"#utility.yul\":13171:13209   */\n      tag_141\n      jump\t// in\n    tag_303:\n        /* \"#utility.yul\":13255:13284   */\n      tag_304\n        /* \"#utility.yul\":13273:13283   */\n      dup5\n        /* \"#utility.yul\":13255:13284   */\n      tag_142\n      jump\t// in\n    tag_304:\n        /* \"#utility.yul\":13245:13253   */\n      dup2\n        /* \"#utility.yul\":13241:13285   */\n      add\n        /* \"#utility.yul\":13438:13440   */\n      0x20\n        /* \"#utility.yul\":13426:13436   */\n      dup6\n        /* \"#utility.yul\":13423:13441   */\n      lt\n        /* \"#utility.yul\":13420:13469   */\n      iszero\n      tag_305\n      jumpi\n        /* \"#utility.yul\":13459:13467   */\n      dup2\n        /* \"#utility.yul\":13444:13467   */\n      swap1\n      pop\n        /* \"#utility.yul\":13420:13469   */\n    tag_305:\n        /* \"#utility.yul\":13482:13562   */\n      tag_306\n        /* \"#utility.yul\":13538:13560   */\n      tag_307\n        /* \"#utility.yul\":13556:13559   */\n      dup6\n        /* \"#utility.yul\":13538:13560   */\n      tag_142\n      jump\t// in\n    tag_307:\n        /* \"#utility.yul\":13528:13536   */\n      dup4\n        /* \"#utility.yul\":13524:13561   */\n      add\n        /* \"#utility.yul\":13511:13522   */\n      dup3\n        /* \"#utility.yul\":13482:13562   */\n      tag_151\n      jump\t// in\n    tag_306:\n        /* \"#utility.yul\":13141:13572   */\n      pop\n      pop\n        /* \"#utility.yul\":13126:13572   */\n    tag_302:\n        /* \"#utility.yul\":13036:13579   */\n      pop\n      pop\n      pop\n      jump\t// out\n        /* \"#utility.yul\":13585:13702   */\n    tag_153:\n        /* \"#utility.yul\":13639:13647   */\n      0x00\n        /* \"#utility.yul\":13689:13694   */\n      dup3\n        /* \"#utility.yul\":13683:13687   */\n      dup3\n        /* \"#utility.yul\":13679:13695   */\n      shr\n        /* \"#utility.yul\":13658:13695   */\n      swap1\n      pop\n        /* \"#utility.yul\":13585:13702   */\n      swap3\n      swap2\n      pop\n      pop\n      jump\t// out\n        /* \"#utility.yul\":13708:13877   */\n    tag_154:\n        /* \"#utility.yul\":13752:13758   */\n      0x00\n        /* \"#utility.yul\":13785:13836   */\n      tag_310\n        /* \"#utility.yul\":13833:13834   */\n      0x00\n        /* \"#utility.yul\":13829:13835   */\n      not\n        /* \"#utility.yul\":13821:13826   */\n      dup5\n        /* \"#utility.yul\":13818:13819   */\n      0x08\n        /* \"#utility.yul\":13814:13827   */\n      mul\n        /* \"#utility.yul\":13785:13836   */\n      tag_153\n      jump\t// in\n    tag_310:\n        /* \"#utility.yul\":13781:13837   */\n      not\n        /* \"#utility.yul\":13866:13870   */\n      dup1\n        /* \"#utility.yul\":13860:13864   */\n      dup4\n        /* \"#utility.yul\":13856:13871   */\n      and\n        /* \"#utility.yul\":13846:13871   */\n      swap2\n      pop\n        /* \"#utility.yul\":13759:13877   */\n      pop\n        /* \"#utility.yul\":13708:13877   */\n      swap3\n      swap2\n      pop\n      pop\n      jump\t// out\n        /* \"#utility.yul\":13882:14177   */\n    tag_155:\n        /* \"#utility.yul\":13958:13962   */\n      0x00\n        /* \"#utility.yul\":14104:14133   */\n      tag_312\n        /* \"#utility.yul\":14129:14132   */\n      dup4\n        /* \"#utility.yul\":14123:14127   */\n      dup4\n        /* \"#utility.yul\":14104:14133   */\n      tag_154\n      jump\t// in\n    tag_312:\n        /* \"#utility.yul\":14096:14133   */\n      swap2\n      pop\n        /* \"#utility.yul\":14166:14169   */\n      dup3\n        /* \"#utility.yul\":14163:14164   */\n      0x02\n        /* \"#utility.yul\":14159:14170   */\n      mul\n        /* \"#utility.yul\":14153:14157   */\n      dup3\n        /* \"#utility.yul\":14150:14171   */\n      or\n        /* \"#utility.yul\":14142:14171   */\n      swap1\n      pop\n        /* \"#utility.yul\":13882:14177   */\n      swap3\n      swap2\n      pop\n      pop\n      jump\t// out\n        /* \"#utility.yul\":14182:15577   */\n    tag_83:\n        /* \"#utility.yul\":14299:14336   */\n      tag_314\n        /* \"#utility.yul\":14332:14335   */\n      dup3\n        /* \"#utility.yul\":14299:14336   */\n      tag_113\n      jump\t// in\n    tag_314:\n        /* \"#utility.yul\":14401:14419   */\n      0xffffffffffffffff\n        /* \"#utility.yul\":14393:14399   */\n      dup2\n        /* \"#utility.yul\":14390:14420   */\n      gt\n        /* \"#utility.yul\":14387:14443   */\n      iszero\n      tag_315\n      jumpi\n        /* \"#utility.yul\":14423:14441   */\n      tag_316\n      tag_125\n      jump\t// in\n    tag_316:\n        /* \"#utility.yul\":14387:14443   */\n    tag_315:\n        /* \"#utility.yul\":14467:14505   */\n      tag_317\n        /* \"#utility.yul\":14499:14503   */\n      dup3\n        /* \"#utility.yul\":14493:14504   */\n      sload\n        /* \"#utility.yul\":14467:14505   */\n      tag_50\n      jump\t// in\n    tag_317:\n        /* \"#utility.yul\":14552:14619   */\n      tag_318\n        /* \"#utility.yul\":14612:14618   */\n      dup3\n        /* \"#utility.yul\":14604:14610   */\n      dup3\n        /* \"#utility.yul\":14598:14602   */\n      dup6\n        /* \"#utility.yul\":14552:14619   */\n      tag_152\n      jump\t// in\n    tag_318:\n        /* \"#utility.yul\":14646:14647   */\n      0x00\n        /* \"#utility.yul\":14670:14674   */\n      0x20\n        /* \"#utility.yul\":14657:14674   */\n      swap1\n      pop\n        /* \"#utility.yul\":14702:14704   */\n      0x1f\n        /* \"#utility.yul\":14694:14700   */\n      dup4\n        /* \"#utility.yul\":14691:14705   */\n      gt\n        /* \"#utility.yul\":14719:14720   */\n      0x01\n        /* \"#utility.yul\":14714:15332   */\n      dup2\n      eq\n      tag_320\n      jumpi\n        /* \"#utility.yul\":15376:15377   */\n      0x00\n        /* \"#utility.yul\":15393:15399   */\n      dup5\n        /* \"#utility.yul\":15390:15467   */\n      iszero\n      tag_321\n      jumpi\n        /* \"#utility.yul\":15442:15451   */\n      dup3\n        /* \"#utility.yul\":15437:15440   */\n      dup8\n        /* \"#utility.yul\":15433:15452   */\n      add\n        /* \"#utility.yul\":15427:15453   */\n      mload\n        /* \"#utility.yul\":15418:15453   */\n      swap1\n      pop\n        /* \"#utility.yul\":15390:15467   */\n    tag_321:\n        /* \"#utility.yul\":15493:15560   */\n      tag_322\n        /* \"#utility.yul\":15553:15559   */\n      dup6\n        /* \"#utility.yul\":15546:15551   */\n      dup3\n        /* \"#utility.yul\":15493:15560   */\n      tag_155\n      jump\t// in\n    tag_322:\n        /* \"#utility.yul\":15487:15491   */\n      dup7\n        /* \"#utility.yul\":15480:15561   */\n      sstore\n        /* \"#utility.yul\":15349:15571   */\n      pop\n        /* \"#utility.yul\":14684:15571   */\n      jump(tag_319)\n        /* \"#utility.yul\":14714:15332   */\n    tag_320:\n        /* \"#utility.yul\":14766:14770   */\n      0x1f\n        /* \"#utility.yul\":14762:14771   */\n      not\n        /* \"#utility.yul\":14754:14760   */\n      dup5\n        /* \"#utility.yul\":14750:14772   */\n      and\n        /* \"#utility.yul\":14800:14837   */\n      tag_323\n        /* \"#utility.yul\":14832:14836   */\n      dup7\n        /* \"#utility.yul\":14800:14837   */\n      tag_141\n      jump\t// in\n    tag_323:\n        /* \"#utility.yul\":14859:14860   */\n      0x00\n        /* \"#utility.yul\":14873:15081   */\n    tag_324:\n        /* \"#utility.yul\":14887:14894   */\n      dup3\n        /* \"#utility.yul\":14884:14885   */\n      dup2\n        /* \"#utility.yul\":14881:14895   */\n      lt\n        /* \"#utility.yul\":14873:15081   */\n      iszero\n      tag_326\n      jumpi\n        /* \"#utility.yul\":14966:14975   */\n      dup5\n        /* \"#utility.yul\":14961:14964   */\n      dup10\n        /* \"#utility.yul\":14957:14976   */\n      add\n        /* \"#utility.yul\":14951:14977   */\n      mload\n        /* \"#utility.yul\":14943:14949   */\n      dup3\n        /* \"#utility.yul\":14936:14978   */\n      sstore\n        /* \"#utility.yul\":15017:15018   */\n      0x01\n        /* \"#utility.yul\":15009:15015   */\n      dup3\n        /* \"#utility.yul\":15005:15019   */\n      add\n        /* \"#utility.yul\":14995:15019   */\n      swap2\n      pop\n        /* \"#utility.yul\":15064:15066   */\n      0x20\n        /* \"#utility.yul\":15053:15062   */\n      dup6\n        /* \"#utility.yul\":15049:15067   */\n      add\n        /* \"#utility.yul\":15036:15067   */\n      swap5\n      pop\n        /* \"#utility.yul\":14910:14914   */\n      0x20\n        /* \"#utility.yul\":14907:14908   */\n      dup2\n        /* \"#utility.yul\":14903:14915   */\n      add\n        /* \"#utility.yul\":14898:14915   */\n      swap1\n      pop\n        /* \"#utility.yul\":14873:15081   */\n      jump(tag_324)\n    tag_326:\n        /* \"#utility.yul\":15109:15115   */\n      dup7\n        /* \"#utility.yul\":15100:15107   */\n      dup4\n        /* \"#utility.yul\":15097:15116   */\n      lt\n        /* \"#utility.yul\":15094:15273   */\n      iszero\n      tag_327\n      jumpi\n        /* \"#utility.yul\":15167:15176   */\n      dup5\n        /* \"#utility.yul\":15162:15165   */\n      dup10\n        /* \"#utility.yul\":15158:15177   */\n      add\n        /* \"#utility.yul\":15152:15178   */\n      mload\n        /* \"#utility.yul\":15210:15258   */\n      tag_328\n        /* \"#utility.yul\":15252:15256   */\n      0x1f\n        /* \"#utility.yul\":15244:15250   */\n      dup10\n        /* \"#utility.yul\":15240:15257   */\n      and\n        /* \"#utility.yul\":15229:15238   */\n      dup3\n        /* \"#utility.yul\":15210:15258   */\n      tag_154\n      jump\t// in\n    tag_328:\n        /* \"#utility.yul\":15202:15208   */\n      dup4\n        /* \"#utility.yul\":15195:15259   */\n      sstore\n        /* \"#utility.yul\":15117:15273   */\n      pop\n        /* \"#utility.yul\":15094:15273   */\n    tag_327:\n        /* \"#utility.yul\":15319:15320   */\n      0x01\n        /* \"#utility.yul\":15315:15316   */\n      0x02\n        /* \"#utility.yul\":15307:15313   */\n      dup9\n        /* \"#utility.yul\":15303:15317   */\n      mul\n        /* \"#utility.yul\":15299:15321   */\n      add\n        /* \"#utility.yul\":15293:15297   */\n      dup9\n        /* \"#utility.yul\":15286:15322   */\n      sstore\n        /* \"#utility.yul\":14721:15332   */\n      pop\n      pop\n      pop\n        /* \"#utility.yul\":14684:15571   */\n    tag_319:\n      pop\n        /* \"#utility.yul\":14274:15577   */\n      pop\n      pop\n      pop\n        /* \"#utility.yul\":14182:15577   */\n      pop\n      pop\n      jump\t// out\n        /* \"#utility.yul\":15583:15747   */\n    tag_156:\n        /* \"#utility.yul\":15723:15739   */\n      0x6e6f742073756273637269626564000000000000000000000000000000000000\n        /* \"#utility.yul\":15719:15720   */\n      0x00\n        /* \"#utility.yul\":15711:15717   */\n      dup3\n        /* \"#utility.yul\":15707:15721   */\n      add\n        /* \"#utility.yul\":15700:15740   */\n      mstore\n        /* \"#utility.yul\":15583:15747   */\n      pop\n      jump\t// out\n        /* \"#utility.yul\":15753:16119   */\n    tag_157:\n        /* \"#utility.yul\":15895:15898   */\n      0x00\n        /* \"#utility.yul\":15916:15983   */\n      tag_331\n        /* \"#utility.yul\":15980:15982   */\n      0x0e\n        /* \"#utility.yul\":15975:15978   */\n      dup4\n        /* \"#utility.yul\":15916:15983   */\n      tag_114\n      jump\t// in\n    tag_331:\n        /* \"#utility.yul\":15909:15983   */\n      swap2\n      pop\n        /* \"#utility.yul\":15992:16085   */\n      tag_332\n        /* \"#utility.yul\":16081:16084   */\n      dup3\n        /* \"#utility.yul\":15992:16085   */\n      tag_156\n      jump\t// in\n    tag_332:\n        /* \"#utility.yul\":16110:16112   */\n      0x20\n        /* \"#utility.yul\":16105:16108   */\n      dup3\n        /* \"#utility.yul\":16101:16113   */\n      add\n        /* \"#utility.yul\":16094:16113   */\n      swap1\n      pop\n        /* \"#utility.yul\":15753:16119   */\n      swap2\n      swap1\n      pop\n      jump\t// out\n        /* \"#utility.yul\":16125:16544   */\n    tag_89:\n        /* \"#utility.yul\":16291:16295   */\n      0x00\n        /* \"#utility.yul\":16329:16331   */\n      0x20\n        /* \"#utility.yul\":16318:16327   */\n      dup3\n        /* \"#utility.yul\":16314:16332   */\n      add\n        /* \"#utility.yul\":16306:16332   */\n      swap1\n      pop\n        /* \"#utility.yul\":16378:16387   */\n      dup2\n        /* \"#utility.yul\":16372:16376   */\n      dup2\n        /* \"#utility.yul\":16368:16388   */\n      sub\n        /* \"#utility.yul\":16364:16365   */\n      0x00\n        /* \"#utility.yul\":16353:16362   */\n      dup4\n        /* \"#utility.yul\":16349:16366   */\n      add\n        /* \"#utility.yul\":16342:16389   */\n      mstore\n        /* \"#utility.yul\":16406:16537   */\n      tag_334\n        /* \"#utility.yul\":16532:16536   */\n      dup2\n        /* \"#utility.yul\":16406:16537   */\n      tag_157\n      jump\t// in\n    tag_334:\n        /* \"#utility.yul\":16398:16537   */\n      swap1\n      pop\n        /* \"#utility.yul\":16125:16544   */\n      swap2\n      swap1\n      pop\n      jump\t// out\n        /* \"#utility.yul\":16550:16775   */\n    tag_158:\n        /* \"#utility.yul\":16690:16724   */\n      0x4f776e61626c653a206e6577206f776e657220697320746865207a65726f2061\n        /* \"#utility.yul\":16686:16687   */\n      0x00\n        /* \"#utility.yul\":16678:16684   */\n      dup3\n        /* \"#utility.yul\":16674:16688   */\n      add\n        /* \"#utility.yul\":16667:16725   */\n      mstore\n        /* \"#utility.yul\":16759:16767   */\n      0x6464726573730000000000000000000000000000000000000000000000000000\n        /* \"#utility.yul\":16754:16756   */\n      0x20\n        /* \"#utility.yul\":16746:16752   */\n      dup3\n        /* \"#utility.yul\":16742:16757   */\n      add\n        /* \"#utility.yul\":16735:16768   */\n      mstore\n        /* \"#utility.yul\":16550:16775   */\n      pop\n      jump\t// out\n        /* \"#utility.yul\":16781:17147   */\n    tag_159:\n        /* \"#utility.yul\":16923:16926   */\n      0x00\n        /* \"#utility.yul\":16944:17011   */\n      tag_337\n        /* \"#utility.yul\":17008:17010   */\n      0x26\n        /* \"#utility.yul\":17003:17006   */\n      dup4\n        /* \"#utility.yul\":16944:17011   */\n      tag_114\n      jump\t// in\n    tag_337:\n        /* \"#utility.yul\":16937:17011   */\n      swap2\n      pop\n        /* \"#utility.yul\":17020:17113   */\n      tag_338\n        /* \"#utility.yul\":17109:17112   */\n      dup3\n        /* \"#utility.yul\":17020:17113   */\n      tag_158\n      jump\t// in\n    tag_338:\n        /* \"#utility.yul\":17138:17140   */\n      0x40\n        /* \"#utility.yul\":17133:17136   */\n      dup3\n        /* \"#utility.yul\":17129:17141   */\n      add\n        /* \"#utility.yul\":17122:17141   */\n      swap1\n      pop\n        /* \"#utility.yul\":16781:17147   */\n      swap2\n      swap1\n      pop\n      jump\t// out\n        /* \"#utility.yul\":17153:17572   */\n    tag_95:\n        /* \"#utility.yul\":17319:17323   */\n      0x00\n        /* \"#utility.yul\":17357:17359   */\n      0x20\n        /* \"#utility.yul\":17346:17355   */\n      dup3\n        /* \"#utility.yul\":17342:17360   */\n      add\n        /* \"#utility.yul\":17334:17360   */\n      swap1\n      pop\n        /* \"#utility.yul\":17406:17415   */\n      dup2\n        /* \"#utility.yul\":17400:17404   */\n      dup2\n        /* \"#utility.yul\":17396:17416   */\n      sub\n        /* \"#utility.yul\":17392:17393   */\n      0x00\n        /* \"#utility.yul\":17381:17390   */\n      dup4\n        /* \"#utility.yul\":17377:17394   */\n      add\n        /* \"#utility.yul\":17370:17417   */\n      mstore\n        /* \"#utility.yul\":17434:17565   */\n      tag_340\n        /* \"#utility.yul\":17560:17564   */\n      dup2\n        /* \"#utility.yul\":17434:17565   */\n      tag_159\n      jump\t// in\n    tag_340:\n        /* \"#utility.yul\":17426:17565   */\n      swap1\n      pop\n        /* \"#utility.yul\":17153:17572   */\n      swap2\n      swap1\n      pop\n      jump\t// out\n        /* \"#utility.yul\":17578:17760   */\n    tag_160:\n        /* \"#utility.yul\":17718:17752   */\n      0x4f776e61626c653a2063616c6c6572206973206e6f7420746865206f776e6572\n        /* \"#utility.yul\":17714:17715   */\n      0x00\n        /* \"#utility.yul\":17706:17712   */\n      dup3\n        /* \"#utility.yul\":17702:17716   */\n      add\n        /* \"#utility.yul\":17695:17753   */\n      mstore\n        /* \"#utility.yul\":17578:17760   */\n      pop\n      jump\t// out\n        /* \"#utility.yul\":17766:18132   */\n    tag_161:\n        /* \"#utility.yul\":17908:17911   */\n      0x00\n        /* \"#utility.yul\":17929:17996   */\n      tag_343\n        /* \"#utility.yul\":17993:17995   */\n      0x20\n        /* \"#utility.yul\":17988:17991   */\n      dup4\n        /* \"#utility.yul\":17929:17996   */\n      tag_114\n      jump\t// in\n    tag_343:\n        /* \"#utility.yul\":17922:17996   */\n      swap2\n      pop\n        /* \"#utility.yul\":18005:18098   */\n      tag_344\n        /* \"#utility.yul\":18094:18097   */\n      dup3\n        /* \"#utility.yul\":18005:18098   */\n      tag_160\n      jump\t// in\n    tag_344:\n        /* \"#utility.yul\":18123:18125   */\n      0x20\n        /* \"#utility.yul\":18118:18121   */\n      dup3\n        /* \"#utility.yul\":18114:18126   */\n      add\n        /* \"#utility.yul\":18107:18126   */\n      swap1\n      pop\n        /* \"#utility.yul\":17766:18132   */\n      swap2\n      swap1\n      pop\n      jump\t// out\n        /* \"#utility.yul\":18138:18557   */\n    tag_103:\n        /* \"#utility.yul\":18304:18308   */\n      0x00\n        /* \"#utility.yul\":18342:18344   */\n      0x20\n        /* \"#utility.yul\":18331:18340   */\n      dup3\n        /* \"#utility.yul\":18327:18345   */\n      add\n        /* \"#utility.yul\":18319:18345   */\n      swap1\n      pop\n        /* \"#utility.yul\":18391:18400   */\n      dup2\n        /* \"#utility.yul\":18385:18389   */\n      dup2\n        /* \"#utility.yul\":18381:18401   */\n      sub\n        /* \"#utility.yul\":18377:18378   */\n      0x00\n        /* \"#utility.yul\":18366:18375   */\n      dup4\n        /* \"#utility.yul\":18362:18379   */\n      add\n        /* \"#utility.yul\":18355:18402   */\n      mstore\n        /* \"#utility.yul\":18419:18550   */\n      tag_346\n        /* \"#utility.yul\":18545:18549   */\n      dup2\n        /* \"#utility.yul\":18419:18550   */\n      tag_161\n      jump\t// in\n    tag_346:\n        /* \"#utility.yul\":18411:18550   */\n      swap1\n      pop\n        /* \"#utility.yul\":18138:18557   */\n      swap2\n      swap1\n      pop\n      jump\t// out\n\n    auxdata: 0xa2646970667358221220070970e6c413e00a5e03b7e512caa07ccf9debf774a3abc631581c4bf00950d964736f6c63430008140033\n}\n",
				"bytecode": {
					"linkReferences": {},
					"object": "608060405234801561000f575f80fd5b5061002c61002161003160201b60201c565b61003860201b60201c565b6100f9565b5f33905090565b5f805f9054906101000a900473ffffffffffffffffffffffffffffffffffffffff169050815f806101000a81548173ffffffffffffffffffffffffffffffffffffffff021916908373ffffffffffffffffffffffffffffffffffffffff1602179055508173ffffffffffffffffffffffffffffffffffffffff168173ffffffffffffffffffffffffffffffffffffffff167f8be0079c531659141344cd1fd0a4f28419497f9722a3daafe3b4186f6b6457e060405160405180910390a35050565b61140c806101065f395ff3fe60806040526004361061007a575f3560e01c806382b578771161004d57806382b57877146101395780638da5cb5b14610155578063cd6bae051461017f578063f2fde38b146101a75761007a565b80630aae7a6b1461007e57806351cff8d9146100bd578063715018a6146100e557806374adad1d146100fb575b5f80fd5b348015610089575f80fd5b506100a4600480360381019061009f9190610ad9565b6101cf565b6040516100b49493929190610bc0565b60405180910390f35b3480156100c8575f80fd5b506100e360048036038101906100de9190610ad9565b610313565b005b3480156100f0575f80fd5b506100f9610558565b005b348015610106575f80fd5b50610121600480360381019061011c9190610ad9565b61056b565b60405161013093929190610c20565b60405180910390f35b610153600480360381019061014e9190610dab565b6105bc565b005b348015610160575f80fd5b50610169610710565b6040516101769190610e33565b60405180910390f35b34801561018a575f80fd5b506101a560048036038101906101a09190610e4c565b610737565b005b3480156101b2575f80fd5b506101cd60048036038101906101c89190610ad9565b6108a6565b005b6001602052805f5260405f205f91509050805f0180546101ee90610ea4565b80601f016020809104026020016040519081016040528092919081815260200182805461021a90610ea4565b80156102655780601f1061023c57610100808354040283529160200191610265565b820191905f5260205f20905b81548152906001019060200180831161024857829003601f168201915b50505050509080600101805461027a90610ea4565b80601f01602080910402602001604051908101604052809291908181526020018280546102a690610ea4565b80156102f15780601f106102c8576101008083540402835291602001916102f1565b820191905f5260205f20905b8154815290600101906020018083116102d457829003601f168201915b505050505090806002015490806003015f9054906101000a900460ff16905084565b61031b610928565b8073ffffffffffffffffffffffffffffffffffffffff1660025f8373ffffffffffffffffffffffffffffffffffffffff1673ffffffffffffffffffffffffffffffffffffffff1681526020019081526020015f205f015f9054906101000a900473ffffffffffffffffffffffffffffffffffffffff1673ffffffffffffffffffffffffffffffffffffffff16146103e7576040517f08c379a00000000000000000000000000000000000000000000000000000000081526004016103de90610f1e565b60405180910390fd5b5f151560025f8373ffffffffffffffffffffffffffffffffffffffff1673ffffffffffffffffffffffffffffffffffffffff1681526020019081526020015f206002015f9054906101000a900460ff16151514610479576040517f08c379a000000000000000000000000000000000000000000000000000000000815260040161047090610f86565b60405180910390fd5b600160025f8373ffffffffffffffffffffffffffffffffffffffff1673ffffffffffffffffffffffffffffffffffffffff1681526020019081526020015f206002015f6101000a81548160ff0219169083151502179055508073ffffffffffffffffffffffffffffffffffffffff166108fc60025f8473ffffffffffffffffffffffffffffffffffffffff1673ffffffffffffffffffffffffffffffffffffffff1681526020019081526020015f206001015490811502906040515f60405180830381858888f19350505050158015610554573d5f803e3d5ffd5b5050565b610560610928565b6105695f6109a6565b565b6002602052805f5260405f205f91509050805f015f9054906101000a900473ffffffffffffffffffffffffffffffffffffffff1690806001015490806002015f9054906101000a900460ff16905083565b60015f3373ffffffffffffffffffffffffffffffffffffffff1673ffffffffffffffffffffffffffffffffffffffff1681526020019081526020015f206003015f9054906101000a900460ff1615801561061557505f34115b610654576040517f08c379a000000000000000000000000000000000000000000000000000000000815260040161064b90610fee565b60405180910390fd5b60405180608001604052808481526020018381526020018281526020016001151581525060015f3373ffffffffffffffffffffffffffffffffffffffff1673ffffffffffffffffffffffffffffffffffffffff1681526020019081526020015f205f820151815f0190816106c891906111a9565b5060208201518160010190816106de91906111a9565b50604082015181600201556060820151816003015f6101000a81548160ff021916908315150217905550905050505050565b5f805f9054906101000a900473ffffffffffffffffffffffffffffffffffffffff16905090565b60015f3373ffffffffffffffffffffffffffffffffffffffff1673ffffffffffffffffffffffffffffffffffffffff1681526020019081526020015f206003015f9054906101000a900460ff166107c3576040517f08c379a00000000000000000000000000000000000000000000000000000000081526004016107ba906112c2565b60405180910390fd5b60405180606001604052803373ffffffffffffffffffffffffffffffffffffffff1681526020018281526020015f151581525060025f3373ffffffffffffffffffffffffffffffffffffffff1673ffffffffffffffffffffffffffffffffffffffff1681526020019081526020015f205f820151815f015f6101000a81548173ffffffffffffffffffffffffffffffffffffffff021916908373ffffffffffffffffffffffffffffffffffffffff160217905550602082015181600101556040820151816002015f6101000a81548160ff02191690831515021790555090505050565b6108ae610928565b5f73ffffffffffffffffffffffffffffffffffffffff168173ffffffffffffffffffffffffffffffffffffffff160361091c576040517f08c379a000000000000000000000000000000000000000000000000000000000815260040161091390611350565b60405180910390fd5b610925816109a6565b50565b610930610a67565b73ffffffffffffffffffffffffffffffffffffffff1661094e610710565b73ffffffffffffffffffffffffffffffffffffffff16146109a4576040517f08c379a000000000000000000000000000000000000000000000000000000000815260040161099b906113b8565b60405180910390fd5b565b5f805f9054906101000a900473ffffffffffffffffffffffffffffffffffffffff169050815f806101000a81548173ffffffffffffffffffffffffffffffffffffffff021916908373ffffffffffffffffffffffffffffffffffffffff1602179055508173ffffffffffffffffffffffffffffffffffffffff168173ffffffffffffffffffffffffffffffffffffffff167f8be0079c531659141344cd1fd0a4f28419497f9722a3daafe3b4186f6b6457e060405160405180910390a35050565b5f33905090565b5f604051905090565b5f80fd5b5f80fd5b5f73ffffffffffffffffffffffffffffffffffffffff82169050919050565b5f610aa882610a7f565b9050919050565b610ab881610a9e565b8114610ac2575f80fd5b50565b5f81359050610ad381610aaf565b92915050565b5f60208284031215610aee57610aed610a77565b5b5f610afb84828501610ac5565b91505092915050565b5f81519050919050565b5f82825260208201905092915050565b5f5b83811015610b3b578082015181840152602081019050610b20565b5f8484015250505050565b5f601f19601f8301169050919050565b5f610b6082610b04565b610b6a8185610b0e565b9350610b7a818560208601610b1e565b610b8381610b46565b840191505092915050565b5f819050919050565b610ba081610b8e565b82525050565b5f8115159050919050565b610bba81610ba6565b82525050565b5f6080820190508181035f830152610bd88187610b56565b90508181036020830152610bec8186610b56565b9050610bfb6040830185610b97565b610c086060830184610bb1565b95945050505050565b610c1a81610a9e565b82525050565b5f606082019050610c335f830186610c11565b610c406020830185610b97565b610c4d6040830184610bb1565b949350505050565b5f80fd5b5f80fd5b7f4e487b71000000000000000000000000000000000000000000000000000000005f52604160045260245ffd5b610c9382610b46565b810181811067ffffffffffffffff82111715610cb257610cb1610c5d565b5b80604052505050565b5f610cc4610a6e565b9050610cd08282610c8a565b919050565b5f67ffffffffffffffff821115610cef57610cee610c5d565b5b610cf882610b46565b9050602081019050919050565b828183375f83830152505050565b5f610d25610d2084610cd5565b610cbb565b905082815260208101848484011115610d4157610d40610c59565b5b610d4c848285610d05565b509392505050565b5f82601f830112610d6857610d67610c55565b5b8135610d78848260208601610d13565b91505092915050565b610d8a81610b8e565b8114610d94575f80fd5b50565b5f81359050610da581610d81565b92915050565b5f805f60608486031215610dc257610dc1610a77565b5b5f84013567ffffffffffffffff811115610ddf57610dde610a7b565b5b610deb86828701610d54565b935050602084013567ffffffffffffffff811115610e0c57610e0b610a7b565b5b610e1886828701610d54565b9250506040610e2986828701610d97565b9150509250925092565b5f602082019050610e465f830184610c11565b92915050565b5f60208284031215610e6157610e60610a77565b5b5f610e6e84828501610d97565b91505092915050565b7f4e487b71000000000000000000000000000000000000000000000000000000005f52602260045260245ffd5b5f6002820490506001821680610ebb57607f821691505b602082108103610ece57610ecd610e77565b5b50919050565b7f206e6f72757175657374000000000000000000000000000000000000000000005f82015250565b5f610f08600a83610b0e565b9150610f1382610ed4565b602082019050919050565b5f6020820190508181035f830152610f3581610efc565b9050919050565b7f7265717565737420617070726f766564000000000000000000000000000000005f82015250565b5f610f70601083610b0e565b9150610f7b82610f3c565b602082019050919050565b5f6020820190508181035f830152610f9d81610f64565b9050919050565b7f696e76616c6965640000000000000000000000000000000000000000000000005f82015250565b5f610fd8600883610b0e565b9150610fe382610fa4565b602082019050919050565b5f6020820190508181035f83015261100581610fcc565b9050919050565b5f819050815f5260205f209050919050565b5f6020601f8301049050919050565b5f82821b905092915050565b5f600883026110687fffffffffffffffffffffffffffffffffffffffffffffffffffffffffffffffff8261102d565b611072868361102d565b95508019841693508086168417925050509392505050565b5f819050919050565b5f6110ad6110a86110a384610b8e565b61108a565b610b8e565b9050919050565b5f819050919050565b6110c683611093565b6110da6110d2826110b4565b848454611039565b825550505050565b5f90565b6110ee6110e2565b6110f98184846110bd565b505050565b5b8181101561111c576111115f826110e6565b6001810190506110ff565b5050565b601f821115611161576111328161100c565b61113b8461101e565b8101602085101561114a578190505b61115e6111568561101e565b8301826110fe565b50505b505050565b5f82821c905092915050565b5f6111815f1984600802611166565b1980831691505092915050565b5f6111998383611172565b9150826002028217905092915050565b6111b282610b04565b67ffffffffffffffff8111156111cb576111ca610c5d565b5b6111d58254610ea4565b6111e0828285611120565b5f60209050601f831160018114611211575f84156111ff578287015190505b611209858261118e565b865550611270565b601f19841661121f8661100c565b5f5b8281101561124657848901518255600182019150602085019450602081019050611221565b86831015611263578489015161125f601f891682611172565b8355505b6001600288020188555050505b505050505050565b7f6e6f7420737562736372696265640000000000000000000000000000000000005f82015250565b5f6112ac600e83610b0e565b91506112b782611278565b602082019050919050565b5f6020820190508181035f8301526112d9816112a0565b9050919050565b7f4f776e61626c653a206e6577206f776e657220697320746865207a65726f20615f8201527f6464726573730000000000000000000000000000000000000000000000000000602082015250565b5f61133a602683610b0e565b9150611345826112e0565b604082019050919050565b5f6020820190508181035f8301526113678161132e565b9050919050565b7f4f776e61626c653a2063616c6c6572206973206e6f7420746865206f776e65725f82015250565b5f6113a2602083610b0e565b91506113ad8261136e565b602082019050919050565b5f6020820190508181035f8301526113cf81611396565b905091905056fea2646970667358221220070970e6c413e00a5e03b7e512caa07ccf9debf774a3abc631581c4bf00950d964736f6c63430008140033",
					"opcodes": "PUSH1 0x80 PUSH1 0x40 MSTORE CALLVALUE DUP1 ISZERO PUSH2 0xF JUMPI PUSH0 DUP1 REVERT JUMPDEST POP PUSH2 0x2C PUSH2 0x21 PUSH2 0x31 PUSH1 0x20 SHL PUSH1 0x20 SHR JUMP JUMPDEST PUSH2 0x38 PUSH1 0x20 SHL PUSH1 0x20 SHR JUMP JUMPDEST PUSH2 0xF9 JUMP JUMPDEST PUSH0 CALLER SWAP1 POP SWAP1 JUMP JUMPDEST PUSH0 DUP1 PUSH0 SWAP1 SLOAD SWAP1 PUSH2 0x100 EXP SWAP1 DIV PUSH20 0xFFFFFFFFFFFFFFFFFFFFFFFFFFFFFFFFFFFFFFFF AND SWAP1 POP DUP2 PUSH0 DUP1 PUSH2 0x100 EXP DUP2 SLOAD DUP2 PUSH20 0xFFFFFFFFFFFFFFFFFFFFFFFFFFFFFFFFFFFFFFFF MUL NOT AND SWAP1 DUP4 PUSH20 0xFFFFFFFFFFFFFFFFFFFFFFFFFFFFFFFFFFFFFFFF AND MUL OR SWAP1 SSTORE POP DUP2 PUSH20 0xFFFFFFFFFFFFFFFFFFFFFFFFFFFFFFFFFFFFFFFF AND DUP2 PUSH20 0xFFFFFFFFFFFFFFFFFFFFFFFFFFFFFFFFFFFFFFFF AND PUSH32 0x8BE0079C531659141344CD1FD0A4F28419497F9722A3DAAFE3B4186F6B6457E0 PUSH1 0x40 MLOAD PUSH1 0x40 MLOAD DUP1 SWAP2 SUB SWAP1 LOG3 POP POP JUMP JUMPDEST PUSH2 0x140C DUP1 PUSH2 0x106 PUSH0 CODECOPY PUSH0 RETURN INVALID PUSH1 0x80 PUSH1 0x40 MSTORE PUSH1 0x4 CALLDATASIZE LT PUSH2 0x7A JUMPI PUSH0 CALLDATALOAD PUSH1 0xE0 SHR DUP1 PUSH4 0x82B57877 GT PUSH2 0x4D JUMPI DUP1 PUSH4 0x82B57877 EQ PUSH2 0x139 JUMPI DUP1 PUSH4 0x8DA5CB5B EQ PUSH2 0x155 JUMPI DUP1 PUSH4 0xCD6BAE05 EQ PUSH2 0x17F JUMPI DUP1 PUSH4 0xF2FDE38B EQ PUSH2 0x1A7 JUMPI PUSH2 0x7A JUMP JUMPDEST DUP1 PUSH4 0xAAE7A6B EQ PUSH2 0x7E JUMPI DUP1 PUSH4 0x51CFF8D9 EQ PUSH2 0xBD JUMPI DUP1 PUSH4 0x715018A6 EQ PUSH2 0xE5 JUMPI DUP1 PUSH4 0x74ADAD1D EQ PUSH2 0xFB JUMPI JUMPDEST PUSH0 DUP1 REVERT JUMPDEST CALLVALUE DUP1 ISZERO PUSH2 0x89 JUMPI PUSH0 DUP1 REVERT JUMPDEST POP PUSH2 0xA4 PUSH1 0x4 DUP1 CALLDATASIZE SUB DUP2 ADD SWAP1 PUSH2 0x9F SWAP2 SWAP1 PUSH2 0xAD9 JUMP JUMPDEST PUSH2 0x1CF JUMP JUMPDEST PUSH1 0x40 MLOAD PUSH2 0xB4 SWAP5 SWAP4 SWAP3 SWAP2 SWAP1 PUSH2 0xBC0 JUMP JUMPDEST PUSH1 0x40 MLOAD DUP1 SWAP2 SUB SWAP1 RETURN JUMPDEST CALLVALUE DUP1 ISZERO PUSH2 0xC8 JUMPI PUSH0 DUP1 REVERT JUMPDEST POP PUSH2 0xE3 PUSH1 0x4 DUP1 CALLDATASIZE SUB DUP2 ADD SWAP1 PUSH2 0xDE SWAP2 SWAP1 PUSH2 0xAD9 JUMP JUMPDEST PUSH2 0x313 JUMP JUMPDEST STOP JUMPDEST CALLVALUE DUP1 ISZERO PUSH2 0xF0 JUMPI PUSH0 DUP1 REVERT JUMPDEST POP PUSH2 0xF9 PUSH2 0x558 JUMP JUMPDEST STOP JUMPDEST CALLVALUE DUP1 ISZERO PUSH2 0x106 JUMPI PUSH0 DUP1 REVERT JUMPDEST POP PUSH2 0x121 PUSH1 0x4 DUP1 CALLDATASIZE SUB DUP2 ADD SWAP1 PUSH2 0x11C SWAP2 SWAP1 PUSH2 0xAD9 JUMP JUMPDEST PUSH2 0x56B JUMP JUMPDEST PUSH1 0x40 MLOAD PUSH2 0x130 SWAP4 SWAP3 SWAP2 SWAP1 PUSH2 0xC20 JUMP JUMPDEST PUSH1 0x40 MLOAD DUP1 SWAP2 SUB SWAP1 RETURN JUMPDEST PUSH2 0x153 PUSH1 0x4 DUP1 CALLDATASIZE SUB DUP2 ADD SWAP1 PUSH2 0x14E SWAP2 SWAP1 PUSH2 0xDAB JUMP JUMPDEST PUSH2 0x5BC JUMP JUMPDEST STOP JUMPDEST CALLVALUE DUP1 ISZERO PUSH2 0x160 JUMPI PUSH0 DUP1 REVERT JUMPDEST POP PUSH2 0x169 PUSH2 0x710 JUMP JUMPDEST PUSH1 0x40 MLOAD PUSH2 0x176 SWAP2 SWAP1 PUSH2 0xE33 JUMP JUMPDEST PUSH1 0x40 MLOAD DUP1 SWAP2 SUB SWAP1 RETURN JUMPDEST CALLVALUE DUP1 ISZERO PUSH2 0x18A JUMPI PUSH0 DUP1 REVERT JUMPDEST POP PUSH2 0x1A5 PUSH1 0x4 DUP1 CALLDATASIZE SUB DUP2 ADD SWAP1 PUSH2 0x1A0 SWAP2 SWAP1 PUSH2 0xE4C JUMP JUMPDEST PUSH2 0x737 JUMP JUMPDEST STOP JUMPDEST CALLVALUE DUP1 ISZERO PUSH2 0x1B2 JUMPI PUSH0 DUP1 REVERT JUMPDEST POP PUSH2 0x1CD PUSH1 0x4 DUP1 CALLDATASIZE SUB DUP2 ADD SWAP1 PUSH2 0x1C8 SWAP2 SWAP1 PUSH2 0xAD9 JUMP JUMPDEST PUSH2 0x8A6 JUMP JUMPDEST STOP JUMPDEST PUSH1 0x1 PUSH1 0x20 MSTORE DUP1 PUSH0 MSTORE PUSH1 0x40 PUSH0 KECCAK256 PUSH0 SWAP2 POP SWAP1 POP DUP1 PUSH0 ADD DUP1 SLOAD PUSH2 0x1EE SWAP1 PUSH2 0xEA4 JUMP JUMPDEST DUP1 PUSH1 0x1F ADD PUSH1 0x20 DUP1 SWAP2 DIV MUL PUSH1 0x20 ADD PUSH1 0x40 MLOAD SWAP1 DUP2 ADD PUSH1 0x40 MSTORE DUP1 SWAP3 SWAP2 SWAP1 DUP2 DUP2 MSTORE PUSH1 0x20 ADD DUP3 DUP1 SLOAD PUSH2 0x21A SWAP1 PUSH2 0xEA4 JUMP JUMPDEST DUP1 ISZERO PUSH2 0x265 JUMPI DUP1 PUSH1 0x1F LT PUSH2 0x23C JUMPI PUSH2 0x100 DUP1 DUP4 SLOAD DIV MUL DUP4 MSTORE SWAP2 PUSH1 0x20 ADD SWAP2 PUSH2 0x265 JUMP JUMPDEST DUP3 ADD SWAP2 SWAP1 PUSH0 MSTORE PUSH1 0x20 PUSH0 KECCAK256 SWAP1 JUMPDEST DUP2 SLOAD DUP2 MSTORE SWAP1 PUSH1 0x1 ADD SWAP1 PUSH1 0x20 ADD DUP1 DUP4 GT PUSH2 0x248 JUMPI DUP3 SWAP1 SUB PUSH1 0x1F AND DUP3 ADD SWAP2 JUMPDEST POP POP POP POP POP SWAP1 DUP1 PUSH1 0x1 ADD DUP1 SLOAD PUSH2 0x27A SWAP1 PUSH2 0xEA4 JUMP JUMPDEST DUP1 PUSH1 0x1F ADD PUSH1 0x20 DUP1 SWAP2 DIV MUL PUSH1 0x20 ADD PUSH1 0x40 MLOAD SWAP1 DUP2 ADD PUSH1 0x40 MSTORE DUP1 SWAP3 SWAP2 SWAP1 DUP2 DUP2 MSTORE PUSH1 0x20 ADD DUP3 DUP1 SLOAD PUSH2 0x2A6 SWAP1 PUSH2 0xEA4 JUMP JUMPDEST DUP1 ISZERO PUSH2 0x2F1 JUMPI DUP1 PUSH1 0x1F LT PUSH2 0x2C8 JUMPI PUSH2 0x100 DUP1 DUP4 SLOAD DIV MUL DUP4 MSTORE SWAP2 PUSH1 0x20 ADD SWAP2 PUSH2 0x2F1 JUMP JUMPDEST DUP3 ADD SWAP2 SWAP1 PUSH0 MSTORE PUSH1 0x20 PUSH0 KECCAK256 SWAP1 JUMPDEST DUP2 SLOAD DUP2 MSTORE SWAP1 PUSH1 0x1 ADD SWAP1 PUSH1 0x20 ADD DUP1 DUP4 GT PUSH2 0x2D4 JUMPI DUP3 SWAP1 SUB PUSH1 0x1F AND DUP3 ADD SWAP2 JUMPDEST POP POP POP POP POP SWAP1 DUP1 PUSH1 0x2 ADD SLOAD SWAP1 DUP1 PUSH1 0x3 ADD PUSH0 SWAP1 SLOAD SWAP1 PUSH2 0x100 EXP SWAP1 DIV PUSH1 0xFF AND SWAP1 POP DUP5 JUMP JUMPDEST PUSH2 0x31B PUSH2 0x928 JUMP JUMPDEST DUP1 PUSH20 0xFFFFFFFFFFFFFFFFFFFFFFFFFFFFFFFFFFFFFFFF AND PUSH1 0x2 PUSH0 DUP4 PUSH20 0xFFFFFFFFFFFFFFFFFFFFFFFFFFFFFFFFFFFFFFFF AND PUSH20 0xFFFFFFFFFFFFFFFFFFFFFFFFFFFFFFFFFFFFFFFF AND DUP2 MSTORE PUSH1 0x20 ADD SWAP1 DUP2 MSTORE PUSH1 0x20 ADD PUSH0 KECCAK256 PUSH0 ADD PUSH0 SWAP1 SLOAD SWAP1 PUSH2 0x100 EXP SWAP1 DIV PUSH20 0xFFFFFFFFFFFFFFFFFFFFFFFFFFFFFFFFFFFFFFFF AND PUSH20 0xFFFFFFFFFFFFFFFFFFFFFFFFFFFFFFFFFFFFFFFF AND EQ PUSH2 0x3E7 JUMPI PUSH1 0x40 MLOAD PUSH32 0x8C379A000000000000000000000000000000000000000000000000000000000 DUP2 MSTORE PUSH1 0x4 ADD PUSH2 0x3DE SWAP1 PUSH2 0xF1E JUMP JUMPDEST PUSH1 0x40 MLOAD DUP1 SWAP2 SUB SWAP1 REVERT JUMPDEST PUSH0 ISZERO ISZERO PUSH1 0x2 PUSH0 DUP4 PUSH20 0xFFFFFFFFFFFFFFFFFFFFFFFFFFFFFFFFFFFFFFFF AND PUSH20 0xFFFFFFFFFFFFFFFFFFFFFFFFFFFFFFFFFFFFFFFF AND DUP2 MSTORE PUSH1 0x20 ADD SWAP1 DUP2 MSTORE PUSH1 0x20 ADD PUSH0 KECCAK256 PUSH1 0x2 ADD PUSH0 SWAP1 SLOAD SWAP1 PUSH2 0x100 EXP SWAP1 DIV PUSH1 0xFF AND ISZERO ISZERO EQ PUSH2 0x479 JUMPI PUSH1 0x40 MLOAD PUSH32 0x8C379A000000000000000000000000000000000000000000000000000000000 DUP2 MSTORE PUSH1 0x4 ADD PUSH2 0x470 SWAP1 PUSH2 0xF86 JUMP JUMPDEST PUSH1 0x40 MLOAD DUP1 SWAP2 SUB SWAP1 REVERT JUMPDEST PUSH1 0x1 PUSH1 0x2 PUSH0 DUP4 PUSH20 0xFFFFFFFFFFFFFFFFFFFFFFFFFFFFFFFFFFFFFFFF AND PUSH20 0xFFFFFFFFFFFFFFFFFFFFFFFFFFFFFFFFFFFFFFFF AND DUP2 MSTORE PUSH1 0x20 ADD SWAP1 DUP2 MSTORE PUSH1 0x20 ADD PUSH0 KECCAK256 PUSH1 0x2 ADD PUSH0 PUSH2 0x100 EXP DUP2 SLOAD DUP2 PUSH1 0xFF MUL NOT AND SWAP1 DUP4 ISZERO ISZERO MUL OR SWAP1 SSTORE POP DUP1 PUSH20 0xFFFFFFFFFFFFFFFFFFFFFFFFFFFFFFFFFFFFFFFF AND PUSH2 0x8FC PUSH1 0x2 PUSH0 DUP5 PUSH20 0xFFFFFFFFFFFFFFFFFFFFFFFFFFFFFFFFFFFFFFFF AND PUSH20 0xFFFFFFFFFFFFFFFFFFFFFFFFFFFFFFFFFFFFFFFF AND DUP2 MSTORE PUSH1 0x20 ADD SWAP1 DUP2 MSTORE PUSH1 0x20 ADD PUSH0 KECCAK256 PUSH1 0x1 ADD SLOAD SWAP1 DUP2 ISZERO MUL SWAP1 PUSH1 0x40 MLOAD PUSH0 PUSH1 0x40 MLOAD DUP1 DUP4 SUB DUP2 DUP6 DUP9 DUP9 CALL SWAP4 POP POP POP POP ISZERO DUP1 ISZERO PUSH2 0x554 JUMPI RETURNDATASIZE PUSH0 DUP1 RETURNDATACOPY RETURNDATASIZE PUSH0 REVERT JUMPDEST POP POP JUMP JUMPDEST PUSH2 0x560 PUSH2 0x928 JUMP JUMPDEST PUSH2 0x569 PUSH0 PUSH2 0x9A6 JUMP JUMPDEST JUMP JUMPDEST PUSH1 0x2 PUSH1 0x20 MSTORE DUP1 PUSH0 MSTORE PUSH1 0x40 PUSH0 KECCAK256 PUSH0 SWAP2 POP SWAP1 POP DUP1 PUSH0 ADD PUSH0 SWAP1 SLOAD SWAP1 PUSH2 0x100 EXP SWAP1 DIV PUSH20 0xFFFFFFFFFFFFFFFFFFFFFFFFFFFFFFFFFFFFFFFF AND SWAP1 DUP1 PUSH1 0x1 ADD SLOAD SWAP1 DUP1 PUSH1 0x2 ADD PUSH0 SWAP1 SLOAD SWAP1 PUSH2 0x100 EXP SWAP1 DIV PUSH1 0xFF AND SWAP1 POP DUP4 JUMP JUMPDEST PUSH1 0x1 PUSH0 CALLER PUSH20 0xFFFFFFFFFFFFFFFFFFFFFFFFFFFFFFFFFFFFFFFF AND PUSH20 0xFFFFFFFFFFFFFFFFFFFFFFFFFFFFFFFFFFFFFFFF AND DUP2 MSTORE PUSH1 0x20 ADD SWAP1 DUP2 MSTORE PUSH1 0x20 ADD PUSH0 KECCAK256 PUSH1 0x3 ADD PUSH0 SWAP1 SLOAD SWAP1 PUSH2 0x100 EXP SWAP1 DIV PUSH1 0xFF AND ISZERO DUP1 ISZERO PUSH2 0x615 JUMPI POP PUSH0 CALLVALUE GT JUMPDEST PUSH2 0x654 JUMPI PUSH1 0x40 MLOAD PUSH32 0x8C379A000000000000000000000000000000000000000000000000000000000 DUP2 MSTORE PUSH1 0x4 ADD PUSH2 0x64B SWAP1 PUSH2 0xFEE JUMP JUMPDEST PUSH1 0x40 MLOAD DUP1 SWAP2 SUB SWAP1 REVERT JUMPDEST PUSH1 0x40 MLOAD DUP1 PUSH1 0x80 ADD PUSH1 0x40 MSTORE DUP1 DUP5 DUP2 MSTORE PUSH1 0x20 ADD DUP4 DUP2 MSTORE PUSH1 0x20 ADD DUP3 DUP2 MSTORE PUSH1 0x20 ADD PUSH1 0x1 ISZERO ISZERO DUP2 MSTORE POP PUSH1 0x1 PUSH0 CALLER PUSH20 0xFFFFFFFFFFFFFFFFFFFFFFFFFFFFFFFFFFFFFFFF AND PUSH20 0xFFFFFFFFFFFFFFFFFFFFFFFFFFFFFFFFFFFFFFFF AND DUP2 MSTORE PUSH1 0x20 ADD SWAP1 DUP2 MSTORE PUSH1 0x20 ADD PUSH0 KECCAK256 PUSH0 DUP3 ADD MLOAD DUP2 PUSH0 ADD SWAP1 DUP2 PUSH2 0x6C8 SWAP2 SWAP1 PUSH2 0x11A9 JUMP JUMPDEST POP PUSH1 0x20 DUP3 ADD MLOAD DUP2 PUSH1 0x1 ADD SWAP1 DUP2 PUSH2 0x6DE SWAP2 SWAP1 PUSH2 0x11A9 JUMP JUMPDEST POP PUSH1 0x40 DUP3 ADD MLOAD DUP2 PUSH1 0x2 ADD SSTORE PUSH1 0x60 DUP3 ADD MLOAD DUP2 PUSH1 0x3 ADD PUSH0 PUSH2 0x100 EXP DUP2 SLOAD DUP2 PUSH1 0xFF MUL NOT AND SWAP1 DUP4 ISZERO ISZERO MUL OR SWAP1 SSTORE POP SWAP1 POP POP POP POP POP JUMP JUMPDEST PUSH0 DUP1 PUSH0 SWAP1 SLOAD SWAP1 PUSH2 0x100 EXP SWAP1 DIV PUSH20 0xFFFFFFFFFFFFFFFFFFFFFFFFFFFFFFFFFFFFFFFF AND SWAP1 POP SWAP1 JUMP JUMPDEST PUSH1 0x1 PUSH0 CALLER PUSH20 0xFFFFFFFFFFFFFFFFFFFFFFFFFFFFFFFFFFFFFFFF AND PUSH20 0xFFFFFFFFFFFFFFFFFFFFFFFFFFFFFFFFFFFFFFFF AND DUP2 MSTORE PUSH1 0x20 ADD SWAP1 DUP2 MSTORE PUSH1 0x20 ADD PUSH0 KECCAK256 PUSH1 0x3 ADD PUSH0 SWAP1 SLOAD SWAP1 PUSH2 0x100 EXP SWAP1 DIV PUSH1 0xFF AND PUSH2 0x7C3 JUMPI PUSH1 0x40 MLOAD PUSH32 0x8C379A000000000000000000000000000000000000000000000000000000000 DUP2 MSTORE PUSH1 0x4 ADD PUSH2 0x7BA SWAP1 PUSH2 0x12C2 JUMP JUMPDEST PUSH1 0x40 MLOAD DUP1 SWAP2 SUB SWAP1 REVERT JUMPDEST PUSH1 0x40 MLOAD DUP1 PUSH1 0x60 ADD PUSH1 0x40 MSTORE DUP1 CALLER PUSH20 0xFFFFFFFFFFFFFFFFFFFFFFFFFFFFFFFFFFFFFFFF AND DUP2 MSTORE PUSH1 0x20 ADD DUP3 DUP2 MSTORE PUSH1 0x20 ADD PUSH0 ISZERO ISZERO DUP2 MSTORE POP PUSH1 0x2 PUSH0 CALLER PUSH20 0xFFFFFFFFFFFFFFFFFFFFFFFFFFFFFFFFFFFFFFFF AND PUSH20 0xFFFFFFFFFFFFFFFFFFFFFFFFFFFFFFFFFFFFFFFF AND DUP2 MSTORE PUSH1 0x20 ADD SWAP1 DUP2 MSTORE PUSH1 0x20 ADD PUSH0 KECCAK256 PUSH0 DUP3 ADD MLOAD DUP2 PUSH0 ADD PUSH0 PUSH2 0x100 EXP DUP2 SLOAD DUP2 PUSH20 0xFFFFFFFFFFFFFFFFFFFFFFFFFFFFFFFFFFFFFFFF MUL NOT AND SWAP1 DUP4 PUSH20 0xFFFFFFFFFFFFFFFFFFFFFFFFFFFFFFFFFFFFFFFF AND MUL OR SWAP1 SSTORE POP PUSH1 0x20 DUP3 ADD MLOAD DUP2 PUSH1 0x1 ADD SSTORE PUSH1 0x40 DUP3 ADD MLOAD DUP2 PUSH1 0x2 ADD PUSH0 PUSH2 0x100 EXP DUP2 SLOAD DUP2 PUSH1 0xFF MUL NOT AND SWAP1 DUP4 ISZERO ISZERO MUL OR SWAP1 SSTORE POP SWAP1 POP POP POP JUMP JUMPDEST PUSH2 0x8AE PUSH2 0x928 JUMP JUMPDEST PUSH0 PUSH20 0xFFFFFFFFFFFFFFFFFFFFFFFFFFFFFFFFFFFFFFFF AND DUP2 PUSH20 0xFFFFFFFFFFFFFFFFFFFFFFFFFFFFFFFFFFFFFFFF AND SUB PUSH2 0x91C JUMPI PUSH1 0x40 MLOAD PUSH32 0x8C379A000000000000000000000000000000000000000000000000000000000 DUP2 MSTORE PUSH1 0x4 ADD PUSH2 0x913 SWAP1 PUSH2 0x1350 JUMP JUMPDEST PUSH1 0x40 MLOAD DUP1 SWAP2 SUB SWAP1 REVERT JUMPDEST PUSH2 0x925 DUP2 PUSH2 0x9A6 JUMP JUMPDEST POP JUMP JUMPDEST PUSH2 0x930 PUSH2 0xA67 JUMP JUMPDEST PUSH20 0xFFFFFFFFFFFFFFFFFFFFFFFFFFFFFFFFFFFFFFFF AND PUSH2 0x94E PUSH2 0x710 JUMP JUMPDEST PUSH20 0xFFFFFFFFFFFFFFFFFFFFFFFFFFFFFFFFFFFFFFFF AND EQ PUSH2 0x9A4 JUMPI PUSH1 0x40 MLOAD PUSH32 0x8C379A000000000000000000000000000000000000000000000000000000000 DUP2 MSTORE PUSH1 0x4 ADD PUSH2 0x99B SWAP1 PUSH2 0x13B8 JUMP JUMPDEST PUSH1 0x40 MLOAD DUP1 SWAP2 SUB SWAP1 REVERT JUMPDEST JUMP JUMPDEST PUSH0 DUP1 PUSH0 SWAP1 SLOAD SWAP1 PUSH2 0x100 EXP SWAP1 DIV PUSH20 0xFFFFFFFFFFFFFFFFFFFFFFFFFFFFFFFFFFFFFFFF AND SWAP1 POP DUP2 PUSH0 DUP1 PUSH2 0x100 EXP DUP2 SLOAD DUP2 PUSH20 0xFFFFFFFFFFFFFFFFFFFFFFFFFFFFFFFFFFFFFFFF MUL NOT AND SWAP1 DUP4 PUSH20 0xFFFFFFFFFFFFFFFFFFFFFFFFFFFFFFFFFFFFFFFF AND MUL OR SWAP1 SSTORE POP DUP2 PUSH20 0xFFFFFFFFFFFFFFFFFFFFFFFFFFFFFFFFFFFFFFFF AND DUP2 PUSH20 0xFFFFFFFFFFFFFFFFFFFFFFFFFFFFFFFFFFFFFFFF AND PUSH32 0x8BE0079C531659141344CD1FD0A4F28419497F9722A3DAAFE3B4186F6B6457E0 PUSH1 0x40 MLOAD PUSH1 0x40 MLOAD DUP1 SWAP2 SUB SWAP1 LOG3 POP POP JUMP JUMPDEST PUSH0 CALLER SWAP1 POP SWAP1 JUMP JUMPDEST PUSH0 PUSH1 0x40 MLOAD SWAP1 POP SWAP1 JUMP JUMPDEST PUSH0 DUP1 REVERT JUMPDEST PUSH0 DUP1 REVERT JUMPDEST PUSH0 PUSH20 0xFFFFFFFFFFFFFFFFFFFFFFFFFFFFFFFFFFFFFFFF DUP3 AND SWAP1 POP SWAP2 SWAP1 POP JUMP JUMPDEST PUSH0 PUSH2 0xAA8 DUP3 PUSH2 0xA7F JUMP JUMPDEST SWAP1 POP SWAP2 SWAP1 POP JUMP JUMPDEST PUSH2 0xAB8 DUP2 PUSH2 0xA9E JUMP JUMPDEST DUP2 EQ PUSH2 0xAC2 JUMPI PUSH0 DUP1 REVERT JUMPDEST POP JUMP JUMPDEST PUSH0 DUP2 CALLDATALOAD SWAP1 POP PUSH2 0xAD3 DUP2 PUSH2 0xAAF JUMP JUMPDEST SWAP3 SWAP2 POP POP JUMP JUMPDEST PUSH0 PUSH1 0x20 DUP3 DUP5 SUB SLT ISZERO PUSH2 0xAEE JUMPI PUSH2 0xAED PUSH2 0xA77 JUMP JUMPDEST JUMPDEST PUSH0 PUSH2 0xAFB DUP5 DUP3 DUP6 ADD PUSH2 0xAC5 JUMP JUMPDEST SWAP2 POP POP SWAP3 SWAP2 POP POP JUMP JUMPDEST PUSH0 DUP2 MLOAD SWAP1 POP SWAP2 SWAP1 POP JUMP JUMPDEST PUSH0 DUP3 DUP3 MSTORE PUSH1 0x20 DUP3 ADD SWAP1 POP SWAP3 SWAP2 POP POP JUMP JUMPDEST PUSH0 JUMPDEST DUP4 DUP2 LT ISZERO PUSH2 0xB3B JUMPI DUP1 DUP3 ADD MLOAD DUP2 DUP5 ADD MSTORE PUSH1 0x20 DUP2 ADD SWAP1 POP PUSH2 0xB20 JUMP JUMPDEST PUSH0 DUP5 DUP5 ADD MSTORE POP POP POP POP JUMP JUMPDEST PUSH0 PUSH1 0x1F NOT PUSH1 0x1F DUP4 ADD AND SWAP1 POP SWAP2 SWAP1 POP JUMP JUMPDEST PUSH0 PUSH2 0xB60 DUP3 PUSH2 0xB04 JUMP JUMPDEST PUSH2 0xB6A DUP2 DUP6 PUSH2 0xB0E JUMP JUMPDEST SWAP4 POP PUSH2 0xB7A DUP2 DUP6 PUSH1 0x20 DUP7 ADD PUSH2 0xB1E JUMP JUMPDEST PUSH2 0xB83 DUP2 PUSH2 0xB46 JUMP JUMPDEST DUP5 ADD SWAP2 POP POP SWAP3 SWAP2 POP POP JUMP JUMPDEST PUSH0 DUP2 SWAP1 POP SWAP2 SWAP1 POP JUMP JUMPDEST PUSH2 0xBA0 DUP2 PUSH2 0xB8E JUMP JUMPDEST DUP3 MSTORE POP POP JUMP JUMPDEST PUSH0 DUP2 ISZERO ISZERO SWAP1 POP SWAP2 SWAP1 POP JUMP JUMPDEST PUSH2 0xBBA DUP2 PUSH2 0xBA6 JUMP JUMPDEST DUP3 MSTORE POP POP JUMP JUMPDEST PUSH0 PUSH1 0x80 DUP3 ADD SWAP1 POP DUP2 DUP2 SUB PUSH0 DUP4 ADD MSTORE PUSH2 0xBD8 DUP2 DUP8 PUSH2 0xB56 JUMP JUMPDEST SWAP1 POP DUP2 DUP2 SUB PUSH1 0x20 DUP4 ADD MSTORE PUSH2 0xBEC DUP2 DUP7 PUSH2 0xB56 JUMP JUMPDEST SWAP1 POP PUSH2 0xBFB PUSH1 0x40 DUP4 ADD DUP6 PUSH2 0xB97 JUMP JUMPDEST PUSH2 0xC08 PUSH1 0x60 DUP4 ADD DUP5 PUSH2 0xBB1 JUMP JUMPDEST SWAP6 SWAP5 POP POP POP POP POP JUMP JUMPDEST PUSH2 0xC1A DUP2 PUSH2 0xA9E JUMP JUMPDEST DUP3 MSTORE POP POP JUMP JUMPDEST PUSH0 PUSH1 0x60 DUP3 ADD SWAP1 POP PUSH2 0xC33 PUSH0 DUP4 ADD DUP7 PUSH2 0xC11 JUMP JUMPDEST PUSH2 0xC40 PUSH1 0x20 DUP4 ADD DUP6 PUSH2 0xB97 JUMP JUMPDEST PUSH2 0xC4D PUSH1 0x40 DUP4 ADD DUP5 PUSH2 0xBB1 JUMP JUMPDEST SWAP5 SWAP4 POP POP POP POP JUMP JUMPDEST PUSH0 DUP1 REVERT JUMPDEST PUSH0 DUP1 REVERT JUMPDEST PUSH32 0x4E487B7100000000000000000000000000000000000000000000000000000000 PUSH0 MSTORE PUSH1 0x41 PUSH1 0x4 MSTORE PUSH1 0x24 PUSH0 REVERT JUMPDEST PUSH2 0xC93 DUP3 PUSH2 0xB46 JUMP JUMPDEST DUP2 ADD DUP2 DUP2 LT PUSH8 0xFFFFFFFFFFFFFFFF DUP3 GT OR ISZERO PUSH2 0xCB2 JUMPI PUSH2 0xCB1 PUSH2 0xC5D JUMP JUMPDEST JUMPDEST DUP1 PUSH1 0x40 MSTORE POP POP POP JUMP JUMPDEST PUSH0 PUSH2 0xCC4 PUSH2 0xA6E JUMP JUMPDEST SWAP1 POP PUSH2 0xCD0 DUP3 DUP3 PUSH2 0xC8A JUMP JUMPDEST SWAP2 SWAP1 POP JUMP JUMPDEST PUSH0 PUSH8 0xFFFFFFFFFFFFFFFF DUP3 GT ISZERO PUSH2 0xCEF JUMPI PUSH2 0xCEE PUSH2 0xC5D JUMP JUMPDEST JUMPDEST PUSH2 0xCF8 DUP3 PUSH2 0xB46 JUMP JUMPDEST SWAP1 POP PUSH1 0x20 DUP2 ADD SWAP1 POP SWAP2 SWAP1 POP JUMP JUMPDEST DUP3 DUP2 DUP4 CALLDATACOPY PUSH0 DUP4 DUP4 ADD MSTORE POP POP POP JUMP JUMPDEST PUSH0 PUSH2 0xD25 PUSH2 0xD20 DUP5 PUSH2 0xCD5 JUMP JUMPDEST PUSH2 0xCBB JUMP JUMPDEST SWAP1 POP DUP3 DUP2 MSTORE PUSH1 0x20 DUP2 ADD DUP5 DUP5 DUP5 ADD GT ISZERO PUSH2 0xD41 JUMPI PUSH2 0xD40 PUSH2 0xC59 JUMP JUMPDEST JUMPDEST PUSH2 0xD4C DUP5 DUP3 DUP6 PUSH2 0xD05 JUMP JUMPDEST POP SWAP4 SWAP3 POP POP POP JUMP JUMPDEST PUSH0 DUP3 PUSH1 0x1F DUP4 ADD SLT PUSH2 0xD68 JUMPI PUSH2 0xD67 PUSH2 0xC55 JUMP JUMPDEST JUMPDEST DUP2 CALLDATALOAD PUSH2 0xD78 DUP5 DUP3 PUSH1 0x20 DUP7 ADD PUSH2 0xD13 JUMP JUMPDEST SWAP2 POP POP SWAP3 SWAP2 POP POP JUMP JUMPDEST PUSH2 0xD8A DUP2 PUSH2 0xB8E JUMP JUMPDEST DUP2 EQ PUSH2 0xD94 JUMPI PUSH0 DUP1 REVERT JUMPDEST POP JUMP JUMPDEST PUSH0 DUP2 CALLDATALOAD SWAP1 POP PUSH2 0xDA5 DUP2 PUSH2 0xD81 JUMP JUMPDEST SWAP3 SWAP2 POP POP JUMP JUMPDEST PUSH0 DUP1 PUSH0 PUSH1 0x60 DUP5 DUP7 SUB SLT ISZERO PUSH2 0xDC2 JUMPI PUSH2 0xDC1 PUSH2 0xA77 JUMP JUMPDEST JUMPDEST PUSH0 DUP5 ADD CALLDATALOAD PUSH8 0xFFFFFFFFFFFFFFFF DUP2 GT ISZERO PUSH2 0xDDF JUMPI PUSH2 0xDDE PUSH2 0xA7B JUMP JUMPDEST JUMPDEST PUSH2 0xDEB DUP7 DUP3 DUP8 ADD PUSH2 0xD54 JUMP JUMPDEST SWAP4 POP POP PUSH1 0x20 DUP5 ADD CALLDATALOAD PUSH8 0xFFFFFFFFFFFFFFFF DUP2 GT ISZERO PUSH2 0xE0C JUMPI PUSH2 0xE0B PUSH2 0xA7B JUMP JUMPDEST JUMPDEST PUSH2 0xE18 DUP7 DUP3 DUP8 ADD PUSH2 0xD54 JUMP JUMPDEST SWAP3 POP POP PUSH1 0x40 PUSH2 0xE29 DUP7 DUP3 DUP8 ADD PUSH2 0xD97 JUMP JUMPDEST SWAP2 POP POP SWAP3 POP SWAP3 POP SWAP3 JUMP JUMPDEST PUSH0 PUSH1 0x20 DUP3 ADD SWAP1 POP PUSH2 0xE46 PUSH0 DUP4 ADD DUP5 PUSH2 0xC11 JUMP JUMPDEST SWAP3 SWAP2 POP POP JUMP JUMPDEST PUSH0 PUSH1 0x20 DUP3 DUP5 SUB SLT ISZERO PUSH2 0xE61 JUMPI PUSH2 0xE60 PUSH2 0xA77 JUMP JUMPDEST JUMPDEST PUSH0 PUSH2 0xE6E DUP5 DUP3 DUP6 ADD PUSH2 0xD97 JUMP JUMPDEST SWAP2 POP POP SWAP3 SWAP2 POP POP JUMP JUMPDEST PUSH32 0x4E487B7100000000000000000000000000000000000000000000000000000000 PUSH0 MSTORE PUSH1 0x22 PUSH1 0x4 MSTORE PUSH1 0x24 PUSH0 REVERT JUMPDEST PUSH0 PUSH1 0x2 DUP3 DIV SWAP1 POP PUSH1 0x1 DUP3 AND DUP1 PUSH2 0xEBB JUMPI PUSH1 0x7F DUP3 AND SWAP2 POP JUMPDEST PUSH1 0x20 DUP3 LT DUP2 SUB PUSH2 0xECE JUMPI PUSH2 0xECD PUSH2 0xE77 JUMP JUMPDEST JUMPDEST POP SWAP2 SWAP1 POP JUMP JUMPDEST PUSH32 0x206E6F7275717565737400000000000000000000000000000000000000000000 PUSH0 DUP3 ADD MSTORE POP JUMP JUMPDEST PUSH0 PUSH2 0xF08 PUSH1 0xA DUP4 PUSH2 0xB0E JUMP JUMPDEST SWAP2 POP PUSH2 0xF13 DUP3 PUSH2 0xED4 JUMP JUMPDEST PUSH1 0x20 DUP3 ADD SWAP1 POP SWAP2 SWAP1 POP JUMP JUMPDEST PUSH0 PUSH1 0x20 DUP3 ADD SWAP1 POP DUP2 DUP2 SUB PUSH0 DUP4 ADD MSTORE PUSH2 0xF35 DUP2 PUSH2 0xEFC JUMP JUMPDEST SWAP1 POP SWAP2 SWAP1 POP JUMP JUMPDEST PUSH32 0x7265717565737420617070726F76656400000000000000000000000000000000 PUSH0 DUP3 ADD MSTORE POP JUMP JUMPDEST PUSH0 PUSH2 0xF70 PUSH1 0x10 DUP4 PUSH2 0xB0E JUMP JUMPDEST SWAP2 POP PUSH2 0xF7B DUP3 PUSH2 0xF3C JUMP JUMPDEST PUSH1 0x20 DUP3 ADD SWAP1 POP SWAP2 SWAP1 POP JUMP JUMPDEST PUSH0 PUSH1 0x20 DUP3 ADD SWAP1 POP DUP2 DUP2 SUB PUSH0 DUP4 ADD MSTORE PUSH2 0xF9D DUP2 PUSH2 0xF64 JUMP JUMPDEST SWAP1 POP SWAP2 SWAP1 POP JUMP JUMPDEST PUSH32 0x696E76616C696564000000000000000000000000000000000000000000000000 PUSH0 DUP3 ADD MSTORE POP JUMP JUMPDEST PUSH0 PUSH2 0xFD8 PUSH1 0x8 DUP4 PUSH2 0xB0E JUMP JUMPDEST SWAP2 POP PUSH2 0xFE3 DUP3 PUSH2 0xFA4 JUMP JUMPDEST PUSH1 0x20 DUP3 ADD SWAP1 POP SWAP2 SWAP1 POP JUMP JUMPDEST PUSH0 PUSH1 0x20 DUP3 ADD SWAP1 POP DUP2 DUP2 SUB PUSH0 DUP4 ADD MSTORE PUSH2 0x1005 DUP2 PUSH2 0xFCC JUMP JUMPDEST SWAP1 POP SWAP2 SWAP1 POP JUMP JUMPDEST PUSH0 DUP2 SWAP1 POP DUP2 PUSH0 MSTORE PUSH1 0x20 PUSH0 KECCAK256 SWAP1 POP SWAP2 SWAP1 POP JUMP JUMPDEST PUSH0 PUSH1 0x20 PUSH1 0x1F DUP4 ADD DIV SWAP1 POP SWAP2 SWAP1 POP JUMP JUMPDEST PUSH0 DUP3 DUP3 SHL SWAP1 POP SWAP3 SWAP2 POP POP JUMP JUMPDEST PUSH0 PUSH1 0x8 DUP4 MUL PUSH2 0x1068 PUSH32 0xFFFFFFFFFFFFFFFFFFFFFFFFFFFFFFFFFFFFFFFFFFFFFFFFFFFFFFFFFFFFFFFF DUP3 PUSH2 0x102D JUMP JUMPDEST PUSH2 0x1072 DUP7 DUP4 PUSH2 0x102D JUMP JUMPDEST SWAP6 POP DUP1 NOT DUP5 AND SWAP4 POP DUP1 DUP7 AND DUP5 OR SWAP3 POP POP POP SWAP4 SWAP3 POP POP POP JUMP JUMPDEST PUSH0 DUP2 SWAP1 POP SWAP2 SWAP1 POP JUMP JUMPDEST PUSH0 PUSH2 0x10AD PUSH2 0x10A8 PUSH2 0x10A3 DUP5 PUSH2 0xB8E JUMP JUMPDEST PUSH2 0x108A JUMP JUMPDEST PUSH2 0xB8E JUMP JUMPDEST SWAP1 POP SWAP2 SWAP1 POP JUMP JUMPDEST PUSH0 DUP2 SWAP1 POP SWAP2 SWAP1 POP JUMP JUMPDEST PUSH2 0x10C6 DUP4 PUSH2 0x1093 JUMP JUMPDEST PUSH2 0x10DA PUSH2 0x10D2 DUP3 PUSH2 0x10B4 JUMP JUMPDEST DUP5 DUP5 SLOAD PUSH2 0x1039 JUMP JUMPDEST DUP3 SSTORE POP POP POP POP JUMP JUMPDEST PUSH0 SWAP1 JUMP JUMPDEST PUSH2 0x10EE PUSH2 0x10E2 JUMP JUMPDEST PUSH2 0x10F9 DUP2 DUP5 DUP5 PUSH2 0x10BD JUMP JUMPDEST POP POP POP JUMP JUMPDEST JUMPDEST DUP2 DUP2 LT ISZERO PUSH2 0x111C JUMPI PUSH2 0x1111 PUSH0 DUP3 PUSH2 0x10E6 JUMP JUMPDEST PUSH1 0x1 DUP2 ADD SWAP1 POP PUSH2 0x10FF JUMP JUMPDEST POP POP JUMP JUMPDEST PUSH1 0x1F DUP3 GT ISZERO PUSH2 0x1161 JUMPI PUSH2 0x1132 DUP2 PUSH2 0x100C JUMP JUMPDEST PUSH2 0x113B DUP5 PUSH2 0x101E JUMP JUMPDEST DUP2 ADD PUSH1 0x20 DUP6 LT ISZERO PUSH2 0x114A JUMPI DUP2 SWAP1 POP JUMPDEST PUSH2 0x115E PUSH2 0x1156 DUP6 PUSH2 0x101E JUMP JUMPDEST DUP4 ADD DUP3 PUSH2 0x10FE JUMP JUMPDEST POP POP JUMPDEST POP POP POP JUMP JUMPDEST PUSH0 DUP3 DUP3 SHR SWAP1 POP SWAP3 SWAP2 POP POP JUMP JUMPDEST PUSH0 PUSH2 0x1181 PUSH0 NOT DUP5 PUSH1 0x8 MUL PUSH2 0x1166 JUMP JUMPDEST NOT DUP1 DUP4 AND SWAP2 POP POP SWAP3 SWAP2 POP POP JUMP JUMPDEST PUSH0 PUSH2 0x1199 DUP4 DUP4 PUSH2 0x1172 JUMP JUMPDEST SWAP2 POP DUP3 PUSH1 0x2 MUL DUP3 OR SWAP1 POP SWAP3 SWAP2 POP POP JUMP JUMPDEST PUSH2 0x11B2 DUP3 PUSH2 0xB04 JUMP JUMPDEST PUSH8 0xFFFFFFFFFFFFFFFF DUP2 GT ISZERO PUSH2 0x11CB JUMPI PUSH2 0x11CA PUSH2 0xC5D JUMP JUMPDEST JUMPDEST PUSH2 0x11D5 DUP3 SLOAD PUSH2 0xEA4 JUMP JUMPDEST PUSH2 0x11E0 DUP3 DUP3 DUP6 PUSH2 0x1120 JUMP JUMPDEST PUSH0 PUSH1 0x20 SWAP1 POP PUSH1 0x1F DUP4 GT PUSH1 0x1 DUP2 EQ PUSH2 0x1211 JUMPI PUSH0 DUP5 ISZERO PUSH2 0x11FF JUMPI DUP3 DUP8 ADD MLOAD SWAP1 POP JUMPDEST PUSH2 0x1209 DUP6 DUP3 PUSH2 0x118E JUMP JUMPDEST DUP7 SSTORE POP PUSH2 0x1270 JUMP JUMPDEST PUSH1 0x1F NOT DUP5 AND PUSH2 0x121F DUP7 PUSH2 0x100C JUMP JUMPDEST PUSH0 JUMPDEST DUP3 DUP2 LT ISZERO PUSH2 0x1246 JUMPI DUP5 DUP10 ADD MLOAD DUP3 SSTORE PUSH1 0x1 DUP3 ADD SWAP2 POP PUSH1 0x20 DUP6 ADD SWAP5 POP PUSH1 0x20 DUP2 ADD SWAP1 POP PUSH2 0x1221 JUMP JUMPDEST DUP7 DUP4 LT ISZERO PUSH2 0x1263 JUMPI DUP5 DUP10 ADD MLOAD PUSH2 0x125F PUSH1 0x1F DUP10 AND DUP3 PUSH2 0x1172 JUMP JUMPDEST DUP4 SSTORE POP JUMPDEST PUSH1 0x1 PUSH1 0x2 DUP9 MUL ADD DUP9 SSTORE POP POP POP JUMPDEST POP POP POP POP POP POP JUMP JUMPDEST PUSH32 0x6E6F742073756273637269626564000000000000000000000000000000000000 PUSH0 DUP3 ADD MSTORE POP JUMP JUMPDEST PUSH0 PUSH2 0x12AC PUSH1 0xE DUP4 PUSH2 0xB0E JUMP JUMPDEST SWAP2 POP PUSH2 0x12B7 DUP3 PUSH2 0x1278 JUMP JUMPDEST PUSH1 0x20 DUP3 ADD SWAP1 POP SWAP2 SWAP1 POP JUMP JUMPDEST PUSH0 PUSH1 0x20 DUP3 ADD SWAP1 POP DUP2 DUP2 SUB PUSH0 DUP4 ADD MSTORE PUSH2 0x12D9 DUP2 PUSH2 0x12A0 JUMP JUMPDEST SWAP1 POP SWAP2 SWAP1 POP JUMP JUMPDEST PUSH32 0x4F776E61626C653A206E6577206F776E657220697320746865207A65726F2061 PUSH0 DUP3 ADD MSTORE PUSH32 0x6464726573730000000000000000000000000000000000000000000000000000 PUSH1 0x20 DUP3 ADD MSTORE POP JUMP JUMPDEST PUSH0 PUSH2 0x133A PUSH1 0x26 DUP4 PUSH2 0xB0E JUMP JUMPDEST SWAP2 POP PUSH2 0x1345 DUP3 PUSH2 0x12E0 JUMP JUMPDEST PUSH1 0x40 DUP3 ADD SWAP1 POP SWAP2 SWAP1 POP JUMP JUMPDEST PUSH0 PUSH1 0x20 DUP3 ADD SWAP1 POP DUP2 DUP2 SUB PUSH0 DUP4 ADD MSTORE PUSH2 0x1367 DUP2 PUSH2 0x132E JUMP JUMPDEST SWAP1 POP SWAP2 SWAP1 POP JUMP JUMPDEST PUSH32 0x4F776E61626C653A2063616C6C6572206973206E6F7420746865206F776E6572 PUSH0 DUP3 ADD MSTORE POP JUMP JUMPDEST PUSH0 PUSH2 0x13A2 PUSH1 0x20 DUP4 PUSH2 0xB0E JUMP JUMPDEST SWAP2 POP PUSH2 0x13AD DUP3 PUSH2 0x136E JUMP JUMPDEST PUSH1 0x20 DUP3 ADD SWAP1 POP SWAP2 SWAP1 POP JUMP JUMPDEST PUSH0 PUSH1 0x20 DUP3 ADD SWAP1 POP DUP2 DUP2 SUB PUSH0 DUP4 ADD MSTORE PUSH2 0x13CF DUP2 PUSH2 0x1396 JUMP JUMPDEST SWAP1 POP SWAP2 SWAP1 POP JUMP INVALID LOG2 PUSH5 0x6970667358 0x22 SLT KECCAK256 SMOD MULMOD PUSH17 0xE6C413E00A5E03B7E512CAA07CCF9DEBF7 PUSH21 0xA3ABC631581C4BF00950D964736F6C634300081400 CALLER "
				},
				"gasEstimates": {
					"creation": {
						"codeDepositCost": "1026400",
						"executionCost": "infinite",
						"totalCost": "infinite"
					},
					"external": {
						"info(address)": "infinite",
						"owner()": "2537",
						"renounceOwnership()": "30435",
						"requests(address)": "infinite",
						"requiestpayout(uint256)": "73555",
						"sebscribe(string,string,uint256)": "infinite",
						"transferOwnership(address)": "30797",
						"withdraw(address)": "infinite"
					}
				},
				"methodIdentifiers": {
					"info(address)": "0aae7a6b",
					"owner()": "8da5cb5b",
					"renounceOwnership()": "715018a6",
					"requests(address)": "74adad1d",
					"requiestpayout(uint256)": "cd6bae05",
					"sebscribe(string,string,uint256)": "82b57877",
					"transferOwnership(address)": "f2fde38b",
					"withdraw(address)": "51cff8d9"
				}
			},
			"storageLayout": {
				"storage": [
					{
						"astId": 7,
						"contract": "finalProject/insuranceCompanyContract.sol:insurancecontract",
						"label": "_owner",
						"offset": 0,
						"slot": "0",
						"type": "t_address"
					},
					{
						"astId": 160,
						"contract": "finalProject/insuranceCompanyContract.sol:insurancecontract",
						"label": "info",
						"offset": 0,
						"slot": "1",
						"type": "t_mapping(t_address,t_struct(Information)148_storage)"
					},
					{
						"astId": 165,
						"contract": "finalProject/insuranceCompanyContract.sol:insurancecontract",
						"label": "requests",
						"offset": 0,
						"slot": "2",
						"type": "t_mapping(t_address,t_struct(Request)155_storage)"
					}
				],
				"types": {
					"t_address": {
						"encoding": "inplace",
						"label": "address",
						"numberOfBytes": "20"
					},
					"t_bool": {
						"encoding": "inplace",
						"label": "bool",
						"numberOfBytes": "1"
					},
					"t_mapping(t_address,t_struct(Information)148_storage)": {
						"encoding": "mapping",
						"key": "t_address",
						"label": "mapping(address => struct insurancecontract.Information)",
						"numberOfBytes": "32",
						"value": "t_struct(Information)148_storage"
					},
					"t_mapping(t_address,t_struct(Request)155_storage)": {
						"encoding": "mapping",
						"key": "t_address",
						"label": "mapping(address => struct insurancecontract.Request)",
						"numberOfBytes": "32",
						"value": "t_struct(Request)155_storage"
					},
					"t_string_storage": {
						"encoding": "bytes",
						"label": "string",
						"numberOfBytes": "32"
					},
					"t_struct(Information)148_storage": {
						"encoding": "inplace",
						"label": "struct insurancecontract.Information",
						"members": [
							{
								"astId": 141,
								"contract": "finalProject/insuranceCompanyContract.sol:insurancecontract",
								"label": "name",
								"offset": 0,
								"slot": "0",
								"type": "t_string_storage"
							},
							{
								"astId": 143,
								"contract": "finalProject/insuranceCompanyContract.sol:insurancecontract",
								"label": "addr",
								"offset": 0,
								"slot": "1",
								"type": "t_string_storage"
							},
							{
								"astId": 145,
								"contract": "finalProject/insuranceCompanyContract.sol:insurancecontract",
								"label": "age",
								"offset": 0,
								"slot": "2",
								"type": "t_uint256"
							},
							{
								"astId": 147,
								"contract": "finalProject/insuranceCompanyContract.sol:insurancecontract",
								"label": "subscribed",
								"offset": 0,
								"slot": "3",
								"type": "t_bool"
							}
						],
						"numberOfBytes": "128"
					},
					"t_struct(Request)155_storage": {
						"encoding": "inplace",
						"label": "struct insurancecontract.Request",
						"members": [
							{
								"astId": 150,
								"contract": "finalProject/insuranceCompanyContract.sol:insurancecontract",
								"label": "user",
								"offset": 0,
								"slot": "0",
								"type": "t_address"
							},
							{
								"astId": 152,
								"contract": "finalProject/insuranceCompanyContract.sol:insurancecontract",
								"label": "amount",
								"offset": 0,
								"slot": "1",
								"type": "t_uint256"
							},
							{
								"astId": 154,
								"contract": "finalProject/insuranceCompanyContract.sol:insurancecontract",
								"label": "approved",
								"offset": 0,
								"slot": "2",
								"type": "t_bool"
							}
						],
						"numberOfBytes": "96"
					},
					"t_uint256": {
						"encoding": "inplace",
						"label": "uint256",
						"numberOfBytes": "32"
					}
				}
			},
			"userdoc": {
				"kind": "user",
				"methods": {},
				"version": 1
			}
		}
	}
}