{
	"data": {
		"bytecode": {
			"linkReferences": {},
			"object": "608060405234801561001057600080fd5b5061002d61002261003260201b60201c565b61003a60201b60201c565b6100fe565b600033905090565b60008060009054906101000a900473ffffffffffffffffffffffffffffffffffffffff169050816000806101000a81548173ffffffffffffffffffffffffffffffffffffffff021916908373ffffffffffffffffffffffffffffffffffffffff1602179055508173ffffffffffffffffffffffffffffffffffffffff168173ffffffffffffffffffffffffffffffffffffffff167f8be0079c531659141344cd1fd0a4f28419497f9722a3daafe3b4186f6b6457e060405160405180910390a35050565b6115468061010d6000396000f3fe60806040526004361061007b5760003560e01c806382b578771161004e57806382b578771461013f5780638da5cb5b1461015b578063dd915f2614610186578063f2fde38b146101af5761007b565b806307c9a13e146100805780635c9355d7146100a9578063715018a6146100e957806374adad1d14610100575b600080fd5b34801561008c57600080fd5b506100a760048036038101906100a29190610b32565b6101d8565b005b3480156100b557600080fd5b506100d060048036038101906100cb9190610bbd565b610351565b6040516100e09493929190610ca4565b60405180910390f35b3480156100f557600080fd5b506100fe61049e565b005b34801561010c57600080fd5b5061012760048036038101906101229190610bbd565b6104b2565b60405161013693929190610d06565b60405180910390f35b61015960048036038101906101549190610e72565b610509565b005b34801561016757600080fd5b5061017061069d565b60405161017d9190610efd565b60405180910390f35b34801561019257600080fd5b506101ad60048036038101906101a89190610bbd565b6106c6565b005b3480156101bb57600080fd5b506101d660048036038101906101d19190610bbd565b61091b565b005b600160003373ffffffffffffffffffffffffffffffffffffffff1673ffffffffffffffffffffffffffffffffffffffff16815260200190815260200160002060030160009054906101000a900460ff16610267576040517f08c379a000000000000000000000000000000000000000000000000000000000815260040161025e90610f64565b60405180910390fd5b60405180606001604052803373ffffffffffffffffffffffffffffffffffffffff16815260200182815260200160001515815250600260003373ffffffffffffffffffffffffffffffffffffffff1673ffffffffffffffffffffffffffffffffffffffff16815260200190815260200160002060008201518160000160006101000a81548173ffffffffffffffffffffffffffffffffffffffff021916908373ffffffffffffffffffffffffffffffffffffffff1602179055506020820151816001015560408201518160020160006101000a81548160ff02191690831515021790555090505050565b600160205280600052604060002060009150905080600001805461037490610fb3565b80601f01602080910402602001604051908101604052809291908181526020018280546103a090610fb3565b80156103ed5780601f106103c2576101008083540402835291602001916103ed565b820191906000526020600020905b8154815290600101906020018083116103d057829003601f168201915b50505050509080600101805461040290610fb3565b80601f016020809104026020016040519081016040528092919081815260200182805461042e90610fb3565b801561047b5780601f106104505761010080835404028352916020019161047b565b820191906000526020600020905b81548152906001019060200180831161045e57829003601f168201915b5050505050908060020154908060030160009054906101000a900460ff16905084565b6104a661099e565b6104b06000610a1c565b565b60026020528060005260406000206000915090508060000160009054906101000a900473ffffffffffffffffffffffffffffffffffffffff16908060010154908060020160009054906101000a900460ff16905083565b600160003373ffffffffffffffffffffffffffffffffffffffff1673ffffffffffffffffffffffffffffffffffffffff16815260200190815260200160002060030160009054906101000a900460ff1615610599576040517f08c379a000000000000000000000000000000000000000000000000000000000815260040161059090611030565b60405180910390fd5b600034116105dc576040517f08c379a00000000000000000000000000000000000000000000000000000000081526004016105d39061109c565b60405180910390fd5b604051806080016040528084815260200183815260200182815260200160011515815250600160003373ffffffffffffffffffffffffffffffffffffffff1673ffffffffffffffffffffffffffffffffffffffff16815260200190815260200160002060008201518160000190816106549190611268565b50602082015181600101908161066a9190611268565b506040820151816002015560608201518160030160006101000a81548160ff021916908315150217905550905050505050565b60008060009054906101000a900473ffffffffffffffffffffffffffffffffffffffff16905090565b6106ce61099e565b8073ffffffffffffffffffffffffffffffffffffffff16600260008373ffffffffffffffffffffffffffffffffffffffff1673ffffffffffffffffffffffffffffffffffffffff16815260200190815260200160002060000160009054906101000a900473ffffffffffffffffffffffffffffffffffffffff1673ffffffffffffffffffffffffffffffffffffffff161461079e576040517f08c379a000000000000000000000000000000000000000000000000000000000815260040161079590611386565b60405180910390fd5b60001515600260008373ffffffffffffffffffffffffffffffffffffffff1673ffffffffffffffffffffffffffffffffffffffff16815260200190815260200160002060020160009054906101000a900460ff16151514610834576040517f08c379a000000000000000000000000000000000000000000000000000000000815260040161082b906113f2565b60405180910390fd5b6001600260008373ffffffffffffffffffffffffffffffffffffffff1673ffffffffffffffffffffffffffffffffffffffff16815260200190815260200160002060020160006101000a81548160ff0219169083151502179055508073ffffffffffffffffffffffffffffffffffffffff166108fc600260008473ffffffffffffffffffffffffffffffffffffffff1673ffffffffffffffffffffffffffffffffffffffff168152602001908152602001600020600101549081150290604051600060405180830381858888f19350505050158015610917573d6000803e3d6000fd5b5050565b61092361099e565b600073ffffffffffffffffffffffffffffffffffffffff168173ffffffffffffffffffffffffffffffffffffffff1603610992576040517f08c379a000000000000000000000000000000000000000000000000000000000815260040161098990611484565b60405180910390fd5b61099b81610a1c565b50565b6109a6610ae0565b73ffffffffffffffffffffffffffffffffffffffff166109c461069d565b73ffffffffffffffffffffffffffffffffffffffff1614610a1a576040517f08c379a0000000000000000000000000000000000000000000000000000000008152600401610a11906114f0565b60405180910390fd5b565b60008060009054906101000a900473ffffffffffffffffffffffffffffffffffffffff169050816000806101000a81548173ffffffffffffffffffffffffffffffffffffffff021916908373ffffffffffffffffffffffffffffffffffffffff1602179055508173ffffffffffffffffffffffffffffffffffffffff168173ffffffffffffffffffffffffffffffffffffffff167f8be0079c531659141344cd1fd0a4f28419497f9722a3daafe3b4186f6b6457e060405160405180910390a35050565b600033905090565b6000604051905090565b600080fd5b600080fd5b6000819050919050565b610b0f81610afc565b8114610b1a57600080fd5b50565b600081359050610b2c81610b06565b92915050565b600060208284031215610b4857610b47610af2565b5b6000610b5684828501610b1d565b91505092915050565b600073ffffffffffffffffffffffffffffffffffffffff82169050919050565b6000610b8a82610b5f565b9050919050565b610b9a81610b7f565b8114610ba557600080fd5b50565b600081359050610bb781610b91565b92915050565b600060208284031215610bd357610bd2610af2565b5b6000610be184828501610ba8565b91505092915050565b600081519050919050565b600082825260208201905092915050565b60005b83811015610c24578082015181840152602081019050610c09565b60008484015250505050565b6000601f19601f8301169050919050565b6000610c4c82610bea565b610c568185610bf5565b9350610c66818560208601610c06565b610c6f81610c30565b840191505092915050565b610c8381610afc565b82525050565b60008115159050919050565b610c9e81610c89565b82525050565b60006080820190508181036000830152610cbe8187610c41565b90508181036020830152610cd28186610c41565b9050610ce16040830185610c7a565b610cee6060830184610c95565b95945050505050565b610d0081610b7f565b82525050565b6000606082019050610d1b6000830186610cf7565b610d286020830185610c7a565b610d356040830184610c95565b949350505050565b600080fd5b600080fd5b7f4e487b7100000000000000000000000000000000000000000000000000000000600052604160045260246000fd5b610d7f82610c30565b810181811067ffffffffffffffff82111715610d9e57610d9d610d47565b5b80604052505050565b6000610db1610ae8565b9050610dbd8282610d76565b919050565b600067ffffffffffffffff821115610ddd57610ddc610d47565b5b610de682610c30565b9050602081019050919050565b82818337600083830152505050565b6000610e15610e1084610dc2565b610da7565b905082815260208101848484011115610e3157610e30610d42565b5b610e3c848285610df3565b509392505050565b600082601f830112610e5957610e58610d3d565b5b8135610e69848260208601610e02565b91505092915050565b600080600060608486031215610e8b57610e8a610af2565b5b600084013567ffffffffffffffff811115610ea957610ea8610af7565b5b610eb586828701610e44565b935050602084013567ffffffffffffffff811115610ed657610ed5610af7565b5b610ee286828701610e44565b9250506040610ef386828701610b1d565b9150509250925092565b6000602082019050610f126000830184610cf7565b92915050565b7f6e6f742073756273637269626564000000000000000000000000000000000000600082015250565b6000610f4e600e83610bf5565b9150610f5982610f18565b602082019050919050565b60006020820190508181036000830152610f7d81610f41565b9050919050565b7f4e487b7100000000000000000000000000000000000000000000000000000000600052602260045260246000fd5b60006002820490506001821680610fcb57607f821691505b602082108103610fde57610fdd610f84565b5b50919050565b7f616c726561647920736562736372696265000000000000000000000000000000600082015250565b600061101a601183610bf5565b915061102582610fe4565b602082019050919050565b600060208201905081810360008301526110498161100d565b9050919050565b7f696e76616c696564200000000000000000000000000000000000000000000000600082015250565b6000611086600983610bf5565b915061109182611050565b602082019050919050565b600060208201905081810360008301526110b581611079565b9050919050565b60008190508160005260206000209050919050565b60006020601f8301049050919050565b600082821b905092915050565b60006008830261111e7fffffffffffffffffffffffffffffffffffffffffffffffffffffffffffffffff826110e1565b61112886836110e1565b95508019841693508086168417925050509392505050565b6000819050919050565b600061116561116061115b84610afc565b611140565b610afc565b9050919050565b6000819050919050565b61117f8361114a565b61119361118b8261116c565b8484546110ee565b825550505050565b600090565b6111a861119b565b6111b3818484611176565b505050565b5b818110156111d7576111cc6000826111a0565b6001810190506111b9565b5050565b601f82111561121c576111ed816110bc565b6111f6846110d1565b81016020851015611205578190505b611219611211856110d1565b8301826111b8565b50505b505050565b600082821c905092915050565b600061123f60001984600802611221565b1980831691505092915050565b6000611258838361122e565b9150826002028217905092915050565b61127182610bea565b67ffffffffffffffff81111561128a57611289610d47565b5b6112948254610fb3565b61129f8282856111db565b600060209050601f8311600181146112d257600084156112c0578287015190505b6112ca858261124c565b865550611332565b601f1984166112e0866110bc565b60005b82811015611308578489015182556001820191506020850194506020810190506112e3565b868310156113255784890151611321601f89168261122e565b8355505b6001600288020188555050505b505050505050565b7f206e6f2072757175657374000000000000000000000000000000000000000000600082015250565b6000611370600b83610bf5565b915061137b8261133a565b602082019050919050565b6000602082019050818103600083015261139f81611363565b9050919050565b7f72657175657374616c726561647920617070726f766564000000000000000000600082015250565b60006113dc601783610bf5565b91506113e7826113a6565b602082019050919050565b6000602082019050818103600083015261140b816113cf565b9050919050565b7f4f776e61626c653a206e6577206f776e657220697320746865207a65726f206160008201527f6464726573730000000000000000000000000000000000000000000000000000602082015250565b600061146e602683610bf5565b915061147982611412565b604082019050919050565b6000602082019050818103600083015261149d81611461565b9050919050565b7f4f776e61626c653a2063616c6c6572206973206e6f7420746865206f776e6572600082015250565b60006114da602083610bf5565b91506114e5826114a4565b602082019050919050565b60006020820190508181036000830152611509816114cd565b905091905056fea2646970667358221220f72a913055a37225c0e53adc0b87fa972812455a397749f881aaa9135a5baca864736f6c63430008140033",
			"opcodes": "PUSH1 0x80 PUSH1 0x40 MSTORE CALLVALUE DUP1 ISZERO PUSH2 0x10 JUMPI PUSH1 0x0 DUP1 REVERT JUMPDEST POP PUSH2 0x2D PUSH2 0x22 PUSH2 0x32 PUSH1 0x20 SHL PUSH1 0x20 SHR JUMP JUMPDEST PUSH2 0x3A PUSH1 0x20 SHL PUSH1 0x20 SHR JUMP JUMPDEST PUSH2 0xFE JUMP JUMPDEST PUSH1 0x0 CALLER SWAP1 POP SWAP1 JUMP JUMPDEST PUSH1 0x0 DUP1 PUSH1 0x0 SWAP1 SLOAD SWAP1 PUSH2 0x100 EXP SWAP1 DIV PUSH20 0xFFFFFFFFFFFFFFFFFFFFFFFFFFFFFFFFFFFFFFFF AND SWAP1 POP DUP2 PUSH1 0x0 DUP1 PUSH2 0x100 EXP DUP2 SLOAD DUP2 PUSH20 0xFFFFFFFFFFFFFFFFFFFFFFFFFFFFFFFFFFFFFFFF MUL NOT AND SWAP1 DUP4 PUSH20 0xFFFFFFFFFFFFFFFFFFFFFFFFFFFFFFFFFFFFFFFF AND MUL OR SWAP1 SSTORE POP DUP2 PUSH20 0xFFFFFFFFFFFFFFFFFFFFFFFFFFFFFFFFFFFFFFFF AND DUP2 PUSH20 0xFFFFFFFFFFFFFFFFFFFFFFFFFFFFFFFFFFFFFFFF AND PUSH32 0x8BE0079C531659141344CD1FD0A4F28419497F9722A3DAAFE3B4186F6B6457E0 PUSH1 0x40 MLOAD PUSH1 0x40 MLOAD DUP1 SWAP2 SUB SWAP1 LOG3 POP POP JUMP JUMPDEST PUSH2 0x1546 DUP1 PUSH2 0x10D PUSH1 0x0 CODECOPY PUSH1 0x0 RETURN INVALID PUSH1 0x80 PUSH1 0x40 MSTORE PUSH1 0x4 CALLDATASIZE LT PUSH2 0x7B JUMPI PUSH1 0x0 CALLDATALOAD PUSH1 0xE0 SHR DUP1 PUSH4 0x82B57877 GT PUSH2 0x4E JUMPI DUP1 PUSH4 0x82B57877 EQ PUSH2 0x13F JUMPI DUP1 PUSH4 0x8DA5CB5B EQ PUSH2 0x15B JUMPI DUP1 PUSH4 0xDD915F26 EQ PUSH2 0x186 JUMPI DUP1 PUSH4 0xF2FDE38B EQ PUSH2 0x1AF JUMPI PUSH2 0x7B JUMP JUMPDEST DUP1 PUSH4 0x7C9A13E EQ PUSH2 0x80 JUMPI DUP1 PUSH4 0x5C9355D7 EQ PUSH2 0xA9 JUMPI DUP1 PUSH4 0x715018A6 EQ PUSH2 0xE9 JUMPI DUP1 PUSH4 0x74ADAD1D EQ PUSH2 0x100 JUMPI JUMPDEST PUSH1 0x0 DUP1 REVERT JUMPDEST CALLVALUE DUP1 ISZERO PUSH2 0x8C JUMPI PUSH1 0x0 DUP1 REVERT JUMPDEST POP PUSH2 0xA7 PUSH1 0x4 DUP1 CALLDATASIZE SUB DUP2 ADD SWAP1 PUSH2 0xA2 SWAP2 SWAP1 PUSH2 0xB32 JUMP JUMPDEST PUSH2 0x1D8 JUMP JUMPDEST STOP JUMPDEST CALLVALUE DUP1 ISZERO PUSH2 0xB5 JUMPI PUSH1 0x0 DUP1 REVERT JUMPDEST POP PUSH2 0xD0 PUSH1 0x4 DUP1 CALLDATASIZE SUB DUP2 ADD SWAP1 PUSH2 0xCB SWAP2 SWAP1 PUSH2 0xBBD JUMP JUMPDEST PUSH2 0x351 JUMP JUMPDEST PUSH1 0x40 MLOAD PUSH2 0xE0 SWAP5 SWAP4 SWAP3 SWAP2 SWAP1 PUSH2 0xCA4 JUMP JUMPDEST PUSH1 0x40 MLOAD DUP1 SWAP2 SUB SWAP1 RETURN JUMPDEST CALLVALUE DUP1 ISZERO PUSH2 0xF5 JUMPI PUSH1 0x0 DUP1 REVERT JUMPDEST POP PUSH2 0xFE PUSH2 0x49E JUMP JUMPDEST STOP JUMPDEST CALLVALUE DUP1 ISZERO PUSH2 0x10C JUMPI PUSH1 0x0 DUP1 REVERT JUMPDEST POP PUSH2 0x127 PUSH1 0x4 DUP1 CALLDATASIZE SUB DUP2 ADD SWAP1 PUSH2 0x122 SWAP2 SWAP1 PUSH2 0xBBD JUMP JUMPDEST PUSH2 0x4B2 JUMP JUMPDEST PUSH1 0x40 MLOAD PUSH2 0x136 SWAP4 SWAP3 SWAP2 SWAP1 PUSH2 0xD06 JUMP JUMPDEST PUSH1 0x40 MLOAD DUP1 SWAP2 SUB SWAP1 RETURN JUMPDEST PUSH2 0x159 PUSH1 0x4 DUP1 CALLDATASIZE SUB DUP2 ADD SWAP1 PUSH2 0x154 SWAP2 SWAP1 PUSH2 0xE72 JUMP JUMPDEST PUSH2 0x509 JUMP JUMPDEST STOP JUMPDEST CALLVALUE DUP1 ISZERO PUSH2 0x167 JUMPI PUSH1 0x0 DUP1 REVERT JUMPDEST POP PUSH2 0x170 PUSH2 0x69D JUMP JUMPDEST PUSH1 0x40 MLOAD PUSH2 0x17D SWAP2 SWAP1 PUSH2 0xEFD JUMP JUMPDEST PUSH1 0x40 MLOAD DUP1 SWAP2 SUB SWAP1 RETURN JUMPDEST CALLVALUE DUP1 ISZERO PUSH2 0x192 JUMPI PUSH1 0x0 DUP1 REVERT JUMPDEST POP PUSH2 0x1AD PUSH1 0x4 DUP1 CALLDATASIZE SUB DUP2 ADD SWAP1 PUSH2 0x1A8 SWAP2 SWAP1 PUSH2 0xBBD JUMP JUMPDEST PUSH2 0x6C6 JUMP JUMPDEST STOP JUMPDEST CALLVALUE DUP1 ISZERO PUSH2 0x1BB JUMPI PUSH1 0x0 DUP1 REVERT JUMPDEST POP PUSH2 0x1D6 PUSH1 0x4 DUP1 CALLDATASIZE SUB DUP2 ADD SWAP1 PUSH2 0x1D1 SWAP2 SWAP1 PUSH2 0xBBD JUMP JUMPDEST PUSH2 0x91B JUMP JUMPDEST STOP JUMPDEST PUSH1 0x1 PUSH1 0x0 CALLER PUSH20 0xFFFFFFFFFFFFFFFFFFFFFFFFFFFFFFFFFFFFFFFF AND PUSH20 0xFFFFFFFFFFFFFFFFFFFFFFFFFFFFFFFFFFFFFFFF AND DUP2 MSTORE PUSH1 0x20 ADD SWAP1 DUP2 MSTORE PUSH1 0x20 ADD PUSH1 0x0 KECCAK256 PUSH1 0x3 ADD PUSH1 0x0 SWAP1 SLOAD SWAP1 PUSH2 0x100 EXP SWAP1 DIV PUSH1 0xFF AND PUSH2 0x267 JUMPI PUSH1 0x40 MLOAD PUSH32 0x8C379A000000000000000000000000000000000000000000000000000000000 DUP2 MSTORE PUSH1 0x4 ADD PUSH2 0x25E SWAP1 PUSH2 0xF64 JUMP JUMPDEST PUSH1 0x40 MLOAD DUP1 SWAP2 SUB SWAP1 REVERT JUMPDEST PUSH1 0x40 MLOAD DUP1 PUSH1 0x60 ADD PUSH1 0x40 MSTORE DUP1 CALLER PUSH20 0xFFFFFFFFFFFFFFFFFFFFFFFFFFFFFFFFFFFFFFFF AND DUP2 MSTORE PUSH1 0x20 ADD DUP3 DUP2 MSTORE PUSH1 0x20 ADD PUSH1 0x0 ISZERO ISZERO DUP2 MSTORE POP PUSH1 0x2 PUSH1 0x0 CALLER PUSH20 0xFFFFFFFFFFFFFFFFFFFFFFFFFFFFFFFFFFFFFFFF AND PUSH20 0xFFFFFFFFFFFFFFFFFFFFFFFFFFFFFFFFFFFFFFFF AND DUP2 MSTORE PUSH1 0x20 ADD SWAP1 DUP2 MSTORE PUSH1 0x20 ADD PUSH1 0x0 KECCAK256 PUSH1 0x0 DUP3 ADD MLOAD DUP2 PUSH1 0x0 ADD PUSH1 0x0 PUSH2 0x100 EXP DUP2 SLOAD DUP2 PUSH20 0xFFFFFFFFFFFFFFFFFFFFFFFFFFFFFFFFFFFFFFFF MUL NOT AND SWAP1 DUP4 PUSH20 0xFFFFFFFFFFFFFFFFFFFFFFFFFFFFFFFFFFFFFFFF AND MUL OR SWAP1 SSTORE POP PUSH1 0x20 DUP3 ADD MLOAD DUP2 PUSH1 0x1 ADD SSTORE PUSH1 0x40 DUP3 ADD MLOAD DUP2 PUSH1 0x2 ADD PUSH1 0x0 PUSH2 0x100 EXP DUP2 SLOAD DUP2 PUSH1 0xFF MUL NOT AND SWAP1 DUP4 ISZERO ISZERO MUL OR SWAP1 SSTORE POP SWAP1 POP POP POP JUMP JUMPDEST PUSH1 0x1 PUSH1 0x20 MSTORE DUP1 PUSH1 0x0 MSTORE PUSH1 0x40 PUSH1 0x0 KECCAK256 PUSH1 0x0 SWAP2 POP SWAP1 POP DUP1 PUSH1 0x0 ADD DUP1 SLOAD PUSH2 0x374 SWAP1 PUSH2 0xFB3 JUMP JUMPDEST DUP1 PUSH1 0x1F ADD PUSH1 0x20 DUP1 SWAP2 DIV MUL PUSH1 0x20 ADD PUSH1 0x40 MLOAD SWAP1 DUP2 ADD PUSH1 0x40 MSTORE DUP1 SWAP3 SWAP2 SWAP1 DUP2 DUP2 MSTORE PUSH1 0x20 ADD DUP3 DUP1 SLOAD PUSH2 0x3A0 SWAP1 PUSH2 0xFB3 JUMP JUMPDEST DUP1 ISZERO PUSH2 0x3ED JUMPI DUP1 PUSH1 0x1F LT PUSH2 0x3C2 JUMPI PUSH2 0x100 DUP1 DUP4 SLOAD DIV MUL DUP4 MSTORE SWAP2 PUSH1 0x20 ADD SWAP2 PUSH2 0x3ED JUMP JUMPDEST DUP3 ADD SWAP2 SWAP1 PUSH1 0x0 MSTORE PUSH1 0x20 PUSH1 0x0 KECCAK256 SWAP1 JUMPDEST DUP2 SLOAD DUP2 MSTORE SWAP1 PUSH1 0x1 ADD SWAP1 PUSH1 0x20 ADD DUP1 DUP4 GT PUSH2 0x3D0 JUMPI DUP3 SWAP1 SUB PUSH1 0x1F AND DUP3 ADD SWAP2 JUMPDEST POP POP POP POP POP SWAP1 DUP1 PUSH1 0x1 ADD DUP1 SLOAD PUSH2 0x402 SWAP1 PUSH2 0xFB3 JUMP JUMPDEST DUP1 PUSH1 0x1F ADD PUSH1 0x20 DUP1 SWAP2 DIV MUL PUSH1 0x20 ADD PUSH1 0x40 MLOAD SWAP1 DUP2 ADD PUSH1 0x40 MSTORE DUP1 SWAP3 SWAP2 SWAP1 DUP2 DUP2 MSTORE PUSH1 0x20 ADD DUP3 DUP1 SLOAD PUSH2 0x42E SWAP1 PUSH2 0xFB3 JUMP JUMPDEST DUP1 ISZERO PUSH2 0x47B JUMPI DUP1 PUSH1 0x1F LT PUSH2 0x450 JUMPI PUSH2 0x100 DUP1 DUP4 SLOAD DIV MUL DUP4 MSTORE SWAP2 PUSH1 0x20 ADD SWAP2 PUSH2 0x47B JUMP JUMPDEST DUP3 ADD SWAP2 SWAP1 PUSH1 0x0 MSTORE PUSH1 0x20 PUSH1 0x0 KECCAK256 SWAP1 JUMPDEST DUP2 SLOAD DUP2 MSTORE SWAP1 PUSH1 0x1 ADD SWAP1 PUSH1 0x20 ADD DUP1 DUP4 GT PUSH2 0x45E JUMPI DUP3 SWAP1 SUB PUSH1 0x1F AND DUP3 ADD SWAP2 JUMPDEST POP POP POP POP POP SWAP1 DUP1 PUSH1 0x2 ADD SLOAD SWAP1 DUP1 PUSH1 0x3 ADD PUSH1 0x0 SWAP1 SLOAD SWAP1 PUSH2 0x100 EXP SWAP1 DIV PUSH1 0xFF AND SWAP1 POP DUP5 JUMP JUMPDEST PUSH2 0x4A6 PUSH2 0x99E JUMP JUMPDEST PUSH2 0x4B0 PUSH1 0x0 PUSH2 0xA1C JUMP JUMPDEST JUMP JUMPDEST PUSH1 0x2 PUSH1 0x20 MSTORE DUP1 PUSH1 0x0 MSTORE PUSH1 0x40 PUSH1 0x0 KECCAK256 PUSH1 0x0 SWAP2 POP SWAP1 POP DUP1 PUSH1 0x0 ADD PUSH1 0x0 SWAP1 SLOAD SWAP1 PUSH2 0x100 EXP SWAP1 DIV PUSH20 0xFFFFFFFFFFFFFFFFFFFFFFFFFFFFFFFFFFFFFFFF AND SWAP1 DUP1 PUSH1 0x1 ADD SLOAD SWAP1 DUP1 PUSH1 0x2 ADD PUSH1 0x0 SWAP1 SLOAD SWAP1 PUSH2 0x100 EXP SWAP1 DIV PUSH1 0xFF AND SWAP1 POP DUP4 JUMP JUMPDEST PUSH1 0x1 PUSH1 0x0 CALLER PUSH20 0xFFFFFFFFFFFFFFFFFFFFFFFFFFFFFFFFFFFFFFFF AND PUSH20 0xFFFFFFFFFFFFFFFFFFFFFFFFFFFFFFFFFFFFFFFF AND DUP2 MSTORE PUSH1 0x20 ADD SWAP1 DUP2 MSTORE PUSH1 0x20 ADD PUSH1 0x0 KECCAK256 PUSH1 0x3 ADD PUSH1 0x0 SWAP1 SLOAD SWAP1 PUSH2 0x100 EXP SWAP1 DIV PUSH1 0xFF AND ISZERO PUSH2 0x599 JUMPI PUSH1 0x40 MLOAD PUSH32 0x8C379A000000000000000000000000000000000000000000000000000000000 DUP2 MSTORE PUSH1 0x4 ADD PUSH2 0x590 SWAP1 PUSH2 0x1030 JUMP JUMPDEST PUSH1 0x40 MLOAD DUP1 SWAP2 SUB SWAP1 REVERT JUMPDEST PUSH1 0x0 CALLVALUE GT PUSH2 0x5DC JUMPI PUSH1 0x40 MLOAD PUSH32 0x8C379A000000000000000000000000000000000000000000000000000000000 DUP2 MSTORE PUSH1 0x4 ADD PUSH2 0x5D3 SWAP1 PUSH2 0x109C JUMP JUMPDEST PUSH1 0x40 MLOAD DUP1 SWAP2 SUB SWAP1 REVERT JUMPDEST PUSH1 0x40 MLOAD DUP1 PUSH1 0x80 ADD PUSH1 0x40 MSTORE DUP1 DUP5 DUP2 MSTORE PUSH1 0x20 ADD DUP4 DUP2 MSTORE PUSH1 0x20 ADD DUP3 DUP2 MSTORE PUSH1 0x20 ADD PUSH1 0x1 ISZERO ISZERO DUP2 MSTORE POP PUSH1 0x1 PUSH1 0x0 CALLER PUSH20 0xFFFFFFFFFFFFFFFFFFFFFFFFFFFFFFFFFFFFFFFF AND PUSH20 0xFFFFFFFFFFFFFFFFFFFFFFFFFFFFFFFFFFFFFFFF AND DUP2 MSTORE PUSH1 0x20 ADD SWAP1 DUP2 MSTORE PUSH1 0x20 ADD PUSH1 0x0 KECCAK256 PUSH1 0x0 DUP3 ADD MLOAD DUP2 PUSH1 0x0 ADD SWAP1 DUP2 PUSH2 0x654 SWAP2 SWAP1 PUSH2 0x1268 JUMP JUMPDEST POP PUSH1 0x20 DUP3 ADD MLOAD DUP2 PUSH1 0x1 ADD SWAP1 DUP2 PUSH2 0x66A SWAP2 SWAP1 PUSH2 0x1268 JUMP JUMPDEST POP PUSH1 0x40 DUP3 ADD MLOAD DUP2 PUSH1 0x2 ADD SSTORE PUSH1 0x60 DUP3 ADD MLOAD DUP2 PUSH1 0x3 ADD PUSH1 0x0 PUSH2 0x100 EXP DUP2 SLOAD DUP2 PUSH1 0xFF MUL NOT AND SWAP1 DUP4 ISZERO ISZERO MUL OR SWAP1 SSTORE POP SWAP1 POP POP POP POP POP JUMP JUMPDEST PUSH1 0x0 DUP1 PUSH1 0x0 SWAP1 SLOAD SWAP1 PUSH2 0x100 EXP SWAP1 DIV PUSH20 0xFFFFFFFFFFFFFFFFFFFFFFFFFFFFFFFFFFFFFFFF AND SWAP1 POP SWAP1 JUMP JUMPDEST PUSH2 0x6CE PUSH2 0x99E JUMP JUMPDEST DUP1 PUSH20 0xFFFFFFFFFFFFFFFFFFFFFFFFFFFFFFFFFFFFFFFF AND PUSH1 0x2 PUSH1 0x0 DUP4 PUSH20 0xFFFFFFFFFFFFFFFFFFFFFFFFFFFFFFFFFFFFFFFF AND PUSH20 0xFFFFFFFFFFFFFFFFFFFFFFFFFFFFFFFFFFFFFFFF AND DUP2 MSTORE PUSH1 0x20 ADD SWAP1 DUP2 MSTORE PUSH1 0x20 ADD PUSH1 0x0 KECCAK256 PUSH1 0x0 ADD PUSH1 0x0 SWAP1 SLOAD SWAP1 PUSH2 0x100 EXP SWAP1 DIV PUSH20 0xFFFFFFFFFFFFFFFFFFFFFFFFFFFFFFFFFFFFFFFF AND PUSH20 0xFFFFFFFFFFFFFFFFFFFFFFFFFFFFFFFFFFFFFFFF AND EQ PUSH2 0x79E JUMPI PUSH1 0x40 MLOAD PUSH32 0x8C379A000000000000000000000000000000000000000000000000000000000 DUP2 MSTORE PUSH1 0x4 ADD PUSH2 0x795 SWAP1 PUSH2 0x1386 JUMP JUMPDEST PUSH1 0x40 MLOAD DUP1 SWAP2 SUB SWAP1 REVERT JUMPDEST PUSH1 0x0 ISZERO ISZERO PUSH1 0x2 PUSH1 0x0 DUP4 PUSH20 0xFFFFFFFFFFFFFFFFFFFFFFFFFFFFFFFFFFFFFFFF AND PUSH20 0xFFFFFFFFFFFFFFFFFFFFFFFFFFFFFFFFFFFFFFFF AND DUP2 MSTORE PUSH1 0x20 ADD SWAP1 DUP2 MSTORE PUSH1 0x20 ADD PUSH1 0x0 KECCAK256 PUSH1 0x2 ADD PUSH1 0x0 SWAP1 SLOAD SWAP1 PUSH2 0x100 EXP SWAP1 DIV PUSH1 0xFF AND ISZERO ISZERO EQ PUSH2 0x834 JUMPI PUSH1 0x40 MLOAD PUSH32 0x8C379A000000000000000000000000000000000000000000000000000000000 DUP2 MSTORE PUSH1 0x4 ADD PUSH2 0x82B SWAP1 PUSH2 0x13F2 JUMP JUMPDEST PUSH1 0x40 MLOAD DUP1 SWAP2 SUB SWAP1 REVERT JUMPDEST PUSH1 0x1 PUSH1 0x2 PUSH1 0x0 DUP4 PUSH20 0xFFFFFFFFFFFFFFFFFFFFFFFFFFFFFFFFFFFFFFFF AND PUSH20 0xFFFFFFFFFFFFFFFFFFFFFFFFFFFFFFFFFFFFFFFF AND DUP2 MSTORE PUSH1 0x20 ADD SWAP1 DUP2 MSTORE PUSH1 0x20 ADD PUSH1 0x0 KECCAK256 PUSH1 0x2 ADD PUSH1 0x0 PUSH2 0x100 EXP DUP2 SLOAD DUP2 PUSH1 0xFF MUL NOT AND SWAP1 DUP4 ISZERO ISZERO MUL OR SWAP1 SSTORE POP DUP1 PUSH20 0xFFFFFFFFFFFFFFFFFFFFFFFFFFFFFFFFFFFFFFFF AND PUSH2 0x8FC PUSH1 0x2 PUSH1 0x0 DUP5 PUSH20 0xFFFFFFFFFFFFFFFFFFFFFFFFFFFFFFFFFFFFFFFF AND PUSH20 0xFFFFFFFFFFFFFFFFFFFFFFFFFFFFFFFFFFFFFFFF AND DUP2 MSTORE PUSH1 0x20 ADD SWAP1 DUP2 MSTORE PUSH1 0x20 ADD PUSH1 0x0 KECCAK256 PUSH1 0x1 ADD SLOAD SWAP1 DUP2 ISZERO MUL SWAP1 PUSH1 0x40 MLOAD PUSH1 0x0 PUSH1 0x40 MLOAD DUP1 DUP4 SUB DUP2 DUP6 DUP9 DUP9 CALL SWAP4 POP POP POP POP ISZERO DUP1 ISZERO PUSH2 0x917 JUMPI RETURNDATASIZE PUSH1 0x0 DUP1 RETURNDATACOPY RETURNDATASIZE PUSH1 0x0 REVERT JUMPDEST POP POP JUMP JUMPDEST PUSH2 0x923 PUSH2 0x99E JUMP JUMPDEST PUSH1 0x0 PUSH20 0xFFFFFFFFFFFFFFFFFFFFFFFFFFFFFFFFFFFFFFFF AND DUP2 PUSH20 0xFFFFFFFFFFFFFFFFFFFFFFFFFFFFFFFFFFFFFFFF AND SUB PUSH2 0x992 JUMPI PUSH1 0x40 MLOAD PUSH32 0x8C379A000000000000000000000000000000000000000000000000000000000 DUP2 MSTORE PUSH1 0x4 ADD PUSH2 0x989 SWAP1 PUSH2 0x1484 JUMP JUMPDEST PUSH1 0x40 MLOAD DUP1 SWAP2 SUB SWAP1 REVERT JUMPDEST PUSH2 0x99B DUP2 PUSH2 0xA1C JUMP JUMPDEST POP JUMP JUMPDEST PUSH2 0x9A6 PUSH2 0xAE0 JUMP JUMPDEST PUSH20 0xFFFFFFFFFFFFFFFFFFFFFFFFFFFFFFFFFFFFFFFF AND PUSH2 0x9C4 PUSH2 0x69D JUMP JUMPDEST PUSH20 0xFFFFFFFFFFFFFFFFFFFFFFFFFFFFFFFFFFFFFFFF AND EQ PUSH2 0xA1A JUMPI PUSH1 0x40 MLOAD PUSH32 0x8C379A000000000000000000000000000000000000000000000000000000000 DUP2 MSTORE PUSH1 0x4 ADD PUSH2 0xA11 SWAP1 PUSH2 0x14F0 JUMP JUMPDEST PUSH1 0x40 MLOAD DUP1 SWAP2 SUB SWAP1 REVERT JUMPDEST JUMP JUMPDEST PUSH1 0x0 DUP1 PUSH1 0x0 SWAP1 SLOAD SWAP1 PUSH2 0x100 EXP SWAP1 DIV PUSH20 0xFFFFFFFFFFFFFFFFFFFFFFFFFFFFFFFFFFFFFFFF AND SWAP1 POP DUP2 PUSH1 0x0 DUP1 PUSH2 0x100 EXP DUP2 SLOAD DUP2 PUSH20 0xFFFFFFFFFFFFFFFFFFFFFFFFFFFFFFFFFFFFFFFF MUL NOT AND SWAP1 DUP4 PUSH20 0xFFFFFFFFFFFFFFFFFFFFFFFFFFFFFFFFFFFFFFFF AND MUL OR SWAP1 SSTORE POP DUP2 PUSH20 0xFFFFFFFFFFFFFFFFFFFFFFFFFFFFFFFFFFFFFFFF AND DUP2 PUSH20 0xFFFFFFFFFFFFFFFFFFFFFFFFFFFFFFFFFFFFFFFF AND PUSH32 0x8BE0079C531659141344CD1FD0A4F28419497F9722A3DAAFE3B4186F6B6457E0 PUSH1 0x40 MLOAD PUSH1 0x40 MLOAD DUP1 SWAP2 SUB SWAP1 LOG3 POP POP JUMP JUMPDEST PUSH1 0x0 CALLER SWAP1 POP SWAP1 JUMP JUMPDEST PUSH1 0x0 PUSH1 0x40 MLOAD SWAP1 POP SWAP1 JUMP JUMPDEST PUSH1 0x0 DUP1 REVERT JUMPDEST PUSH1 0x0 DUP1 REVERT JUMPDEST PUSH1 0x0 DUP2 SWAP1 POP SWAP2 SWAP1 POP JUMP JUMPDEST PUSH2 0xB0F DUP2 PUSH2 0xAFC JUMP JUMPDEST DUP2 EQ PUSH2 0xB1A JUMPI PUSH1 0x0 DUP1 REVERT JUMPDEST POP JUMP JUMPDEST PUSH1 0x0 DUP2 CALLDATALOAD SWAP1 POP PUSH2 0xB2C DUP2 PUSH2 0xB06 JUMP JUMPDEST SWAP3 SWAP2 POP POP JUMP JUMPDEST PUSH1 0x0 PUSH1 0x20 DUP3 DUP5 SUB SLT ISZERO PUSH2 0xB48 JUMPI PUSH2 0xB47 PUSH2 0xAF2 JUMP JUMPDEST JUMPDEST PUSH1 0x0 PUSH2 0xB56 DUP5 DUP3 DUP6 ADD PUSH2 0xB1D JUMP JUMPDEST SWAP2 POP POP SWAP3 SWAP2 POP POP JUMP JUMPDEST PUSH1 0x0 PUSH20 0xFFFFFFFFFFFFFFFFFFFFFFFFFFFFFFFFFFFFFFFF DUP3 AND SWAP1 POP SWAP2 SWAP1 POP JUMP JUMPDEST PUSH1 0x0 PUSH2 0xB8A DUP3 PUSH2 0xB5F JUMP JUMPDEST SWAP1 POP SWAP2 SWAP1 POP JUMP JUMPDEST PUSH2 0xB9A DUP2 PUSH2 0xB7F JUMP JUMPDEST DUP2 EQ PUSH2 0xBA5 JUMPI PUSH1 0x0 DUP1 REVERT JUMPDEST POP JUMP JUMPDEST PUSH1 0x0 DUP2 CALLDATALOAD SWAP1 POP PUSH2 0xBB7 DUP2 PUSH2 0xB91 JUMP JUMPDEST SWAP3 SWAP2 POP POP JUMP JUMPDEST PUSH1 0x0 PUSH1 0x20 DUP3 DUP5 SUB SLT ISZERO PUSH2 0xBD3 JUMPI PUSH2 0xBD2 PUSH2 0xAF2 JUMP JUMPDEST JUMPDEST PUSH1 0x0 PUSH2 0xBE1 DUP5 DUP3 DUP6 ADD PUSH2 0xBA8 JUMP JUMPDEST SWAP2 POP POP SWAP3 SWAP2 POP POP JUMP JUMPDEST PUSH1 0x0 DUP2 MLOAD SWAP1 POP SWAP2 SWAP1 POP JUMP JUMPDEST PUSH1 0x0 DUP3 DUP3 MSTORE PUSH1 0x20 DUP3 ADD SWAP1 POP SWAP3 SWAP2 POP POP JUMP JUMPDEST PUSH1 0x0 JUMPDEST DUP4 DUP2 LT ISZERO PUSH2 0xC24 JUMPI DUP1 DUP3 ADD MLOAD DUP2 DUP5 ADD MSTORE PUSH1 0x20 DUP2 ADD SWAP1 POP PUSH2 0xC09 JUMP JUMPDEST PUSH1 0x0 DUP5 DUP5 ADD MSTORE POP POP POP POP JUMP JUMPDEST PUSH1 0x0 PUSH1 0x1F NOT PUSH1 0x1F DUP4 ADD AND SWAP1 POP SWAP2 SWAP1 POP JUMP JUMPDEST PUSH1 0x0 PUSH2 0xC4C DUP3 PUSH2 0xBEA JUMP JUMPDEST PUSH2 0xC56 DUP2 DUP6 PUSH2 0xBF5 JUMP JUMPDEST SWAP4 POP PUSH2 0xC66 DUP2 DUP6 PUSH1 0x20 DUP7 ADD PUSH2 0xC06 JUMP JUMPDEST PUSH2 0xC6F DUP2 PUSH2 0xC30 JUMP JUMPDEST DUP5 ADD SWAP2 POP POP SWAP3 SWAP2 POP POP JUMP JUMPDEST PUSH2 0xC83 DUP2 PUSH2 0xAFC JUMP JUMPDEST DUP3 MSTORE POP POP JUMP JUMPDEST PUSH1 0x0 DUP2 ISZERO ISZERO SWAP1 POP SWAP2 SWAP1 POP JUMP JUMPDEST PUSH2 0xC9E DUP2 PUSH2 0xC89 JUMP JUMPDEST DUP3 MSTORE POP POP JUMP JUMPDEST PUSH1 0x0 PUSH1 0x80 DUP3 ADD SWAP1 POP DUP2 DUP2 SUB PUSH1 0x0 DUP4 ADD MSTORE PUSH2 0xCBE DUP2 DUP8 PUSH2 0xC41 JUMP JUMPDEST SWAP1 POP DUP2 DUP2 SUB PUSH1 0x20 DUP4 ADD MSTORE PUSH2 0xCD2 DUP2 DUP7 PUSH2 0xC41 JUMP JUMPDEST SWAP1 POP PUSH2 0xCE1 PUSH1 0x40 DUP4 ADD DUP6 PUSH2 0xC7A JUMP JUMPDEST PUSH2 0xCEE PUSH1 0x60 DUP4 ADD DUP5 PUSH2 0xC95 JUMP JUMPDEST SWAP6 SWAP5 POP POP POP POP POP JUMP JUMPDEST PUSH2 0xD00 DUP2 PUSH2 0xB7F JUMP JUMPDEST DUP3 MSTORE POP POP JUMP JUMPDEST PUSH1 0x0 PUSH1 0x60 DUP3 ADD SWAP1 POP PUSH2 0xD1B PUSH1 0x0 DUP4 ADD DUP7 PUSH2 0xCF7 JUMP JUMPDEST PUSH2 0xD28 PUSH1 0x20 DUP4 ADD DUP6 PUSH2 0xC7A JUMP JUMPDEST PUSH2 0xD35 PUSH1 0x40 DUP4 ADD DUP5 PUSH2 0xC95 JUMP JUMPDEST SWAP5 SWAP4 POP POP POP POP JUMP JUMPDEST PUSH1 0x0 DUP1 REVERT JUMPDEST PUSH1 0x0 DUP1 REVERT JUMPDEST PUSH32 0x4E487B7100000000000000000000000000000000000000000000000000000000 PUSH1 0x0 MSTORE PUSH1 0x41 PUSH1 0x4 MSTORE PUSH1 0x24 PUSH1 0x0 REVERT JUMPDEST PUSH2 0xD7F DUP3 PUSH2 0xC30 JUMP JUMPDEST DUP2 ADD DUP2 DUP2 LT PUSH8 0xFFFFFFFFFFFFFFFF DUP3 GT OR ISZERO PUSH2 0xD9E JUMPI PUSH2 0xD9D PUSH2 0xD47 JUMP JUMPDEST JUMPDEST DUP1 PUSH1 0x40 MSTORE POP POP POP JUMP JUMPDEST PUSH1 0x0 PUSH2 0xDB1 PUSH2 0xAE8 JUMP JUMPDEST SWAP1 POP PUSH2 0xDBD DUP3 DUP3 PUSH2 0xD76 JUMP JUMPDEST SWAP2 SWAP1 POP JUMP JUMPDEST PUSH1 0x0 PUSH8 0xFFFFFFFFFFFFFFFF DUP3 GT ISZERO PUSH2 0xDDD JUMPI PUSH2 0xDDC PUSH2 0xD47 JUMP JUMPDEST JUMPDEST PUSH2 0xDE6 DUP3 PUSH2 0xC30 JUMP JUMPDEST SWAP1 POP PUSH1 0x20 DUP2 ADD SWAP1 POP SWAP2 SWAP1 POP JUMP JUMPDEST DUP3 DUP2 DUP4 CALLDATACOPY PUSH1 0x0 DUP4 DUP4 ADD MSTORE POP POP POP JUMP JUMPDEST PUSH1 0x0 PUSH2 0xE15 PUSH2 0xE10 DUP5 PUSH2 0xDC2 JUMP JUMPDEST PUSH2 0xDA7 JUMP JUMPDEST SWAP1 POP DUP3 DUP2 MSTORE PUSH1 0x20 DUP2 ADD DUP5 DUP5 DUP5 ADD GT ISZERO PUSH2 0xE31 JUMPI PUSH2 0xE30 PUSH2 0xD42 JUMP JUMPDEST JUMPDEST PUSH2 0xE3C DUP5 DUP3 DUP6 PUSH2 0xDF3 JUMP JUMPDEST POP SWAP4 SWAP3 POP POP POP JUMP JUMPDEST PUSH1 0x0 DUP3 PUSH1 0x1F DUP4 ADD SLT PUSH2 0xE59 JUMPI PUSH2 0xE58 PUSH2 0xD3D JUMP JUMPDEST JUMPDEST DUP2 CALLDATALOAD PUSH2 0xE69 DUP5 DUP3 PUSH1 0x20 DUP7 ADD PUSH2 0xE02 JUMP JUMPDEST SWAP2 POP POP SWAP3 SWAP2 POP POP JUMP JUMPDEST PUSH1 0x0 DUP1 PUSH1 0x0 PUSH1 0x60 DUP5 DUP7 SUB SLT ISZERO PUSH2 0xE8B JUMPI PUSH2 0xE8A PUSH2 0xAF2 JUMP JUMPDEST JUMPDEST PUSH1 0x0 DUP5 ADD CALLDATALOAD PUSH8 0xFFFFFFFFFFFFFFFF DUP2 GT ISZERO PUSH2 0xEA9 JUMPI PUSH2 0xEA8 PUSH2 0xAF7 JUMP JUMPDEST JUMPDEST PUSH2 0xEB5 DUP7 DUP3 DUP8 ADD PUSH2 0xE44 JUMP JUMPDEST SWAP4 POP POP PUSH1 0x20 DUP5 ADD CALLDATALOAD PUSH8 0xFFFFFFFFFFFFFFFF DUP2 GT ISZERO PUSH2 0xED6 JUMPI PUSH2 0xED5 PUSH2 0xAF7 JUMP JUMPDEST JUMPDEST PUSH2 0xEE2 DUP7 DUP3 DUP8 ADD PUSH2 0xE44 JUMP JUMPDEST SWAP3 POP POP PUSH1 0x40 PUSH2 0xEF3 DUP7 DUP3 DUP8 ADD PUSH2 0xB1D JUMP JUMPDEST SWAP2 POP POP SWAP3 POP SWAP3 POP SWAP3 JUMP JUMPDEST PUSH1 0x0 PUSH1 0x20 DUP3 ADD SWAP1 POP PUSH2 0xF12 PUSH1 0x0 DUP4 ADD DUP5 PUSH2 0xCF7 JUMP JUMPDEST SWAP3 SWAP2 POP POP JUMP JUMPDEST PUSH32 0x6E6F742073756273637269626564000000000000000000000000000000000000 PUSH1 0x0 DUP3 ADD MSTORE POP JUMP JUMPDEST PUSH1 0x0 PUSH2 0xF4E PUSH1 0xE DUP4 PUSH2 0xBF5 JUMP JUMPDEST SWAP2 POP PUSH2 0xF59 DUP3 PUSH2 0xF18 JUMP JUMPDEST PUSH1 0x20 DUP3 ADD SWAP1 POP SWAP2 SWAP1 POP JUMP JUMPDEST PUSH1 0x0 PUSH1 0x20 DUP3 ADD SWAP1 POP DUP2 DUP2 SUB PUSH1 0x0 DUP4 ADD MSTORE PUSH2 0xF7D DUP2 PUSH2 0xF41 JUMP JUMPDEST SWAP1 POP SWAP2 SWAP1 POP JUMP JUMPDEST PUSH32 0x4E487B7100000000000000000000000000000000000000000000000000000000 PUSH1 0x0 MSTORE PUSH1 0x22 PUSH1 0x4 MSTORE PUSH1 0x24 PUSH1 0x0 REVERT JUMPDEST PUSH1 0x0 PUSH1 0x2 DUP3 DIV SWAP1 POP PUSH1 0x1 DUP3 AND DUP1 PUSH2 0xFCB JUMPI PUSH1 0x7F DUP3 AND SWAP2 POP JUMPDEST PUSH1 0x20 DUP3 LT DUP2 SUB PUSH2 0xFDE JUMPI PUSH2 0xFDD PUSH2 0xF84 JUMP JUMPDEST JUMPDEST POP SWAP2 SWAP1 POP JUMP JUMPDEST PUSH32 0x616C726561647920736562736372696265000000000000000000000000000000 PUSH1 0x0 DUP3 ADD MSTORE POP JUMP JUMPDEST PUSH1 0x0 PUSH2 0x101A PUSH1 0x11 DUP4 PUSH2 0xBF5 JUMP JUMPDEST SWAP2 POP PUSH2 0x1025 DUP3 PUSH2 0xFE4 JUMP JUMPDEST PUSH1 0x20 DUP3 ADD SWAP1 POP SWAP2 SWAP1 POP JUMP JUMPDEST PUSH1 0x0 PUSH1 0x20 DUP3 ADD SWAP1 POP DUP2 DUP2 SUB PUSH1 0x0 DUP4 ADD MSTORE PUSH2 0x1049 DUP2 PUSH2 0x100D JUMP JUMPDEST SWAP1 POP SWAP2 SWAP1 POP JUMP JUMPDEST PUSH32 0x696E76616C696564200000000000000000000000000000000000000000000000 PUSH1 0x0 DUP3 ADD MSTORE POP JUMP JUMPDEST PUSH1 0x0 PUSH2 0x1086 PUSH1 0x9 DUP4 PUSH2 0xBF5 JUMP JUMPDEST SWAP2 POP PUSH2 0x1091 DUP3 PUSH2 0x1050 JUMP JUMPDEST PUSH1 0x20 DUP3 ADD SWAP1 POP SWAP2 SWAP1 POP JUMP JUMPDEST PUSH1 0x0 PUSH1 0x20 DUP3 ADD SWAP1 POP DUP2 DUP2 SUB PUSH1 0x0 DUP4 ADD MSTORE PUSH2 0x10B5 DUP2 PUSH2 0x1079 JUMP JUMPDEST SWAP1 POP SWAP2 SWAP1 POP JUMP JUMPDEST PUSH1 0x0 DUP2 SWAP1 POP DUP2 PUSH1 0x0 MSTORE PUSH1 0x20 PUSH1 0x0 KECCAK256 SWAP1 POP SWAP2 SWAP1 POP JUMP JUMPDEST PUSH1 0x0 PUSH1 0x20 PUSH1 0x1F DUP4 ADD DIV SWAP1 POP SWAP2 SWAP1 POP JUMP JUMPDEST PUSH1 0x0 DUP3 DUP3 SHL SWAP1 POP SWAP3 SWAP2 POP POP JUMP JUMPDEST PUSH1 0x0 PUSH1 0x8 DUP4 MUL PUSH2 0x111E PUSH32 0xFFFFFFFFFFFFFFFFFFFFFFFFFFFFFFFFFFFFFFFFFFFFFFFFFFFFFFFFFFFFFFFF DUP3 PUSH2 0x10E1 JUMP JUMPDEST PUSH2 0x1128 DUP7 DUP4 PUSH2 0x10E1 JUMP JUMPDEST SWAP6 POP DUP1 NOT DUP5 AND SWAP4 POP DUP1 DUP7 AND DUP5 OR SWAP3 POP POP POP SWAP4 SWAP3 POP POP POP JUMP JUMPDEST PUSH1 0x0 DUP2 SWAP1 POP SWAP2 SWAP1 POP JUMP JUMPDEST PUSH1 0x0 PUSH2 0x1165 PUSH2 0x1160 PUSH2 0x115B DUP5 PUSH2 0xAFC JUMP JUMPDEST PUSH2 0x1140 JUMP JUMPDEST PUSH2 0xAFC JUMP JUMPDEST SWAP1 POP SWAP2 SWAP1 POP JUMP JUMPDEST PUSH1 0x0 DUP2 SWAP1 POP SWAP2 SWAP1 POP JUMP JUMPDEST PUSH2 0x117F DUP4 PUSH2 0x114A JUMP JUMPDEST PUSH2 0x1193 PUSH2 0x118B DUP3 PUSH2 0x116C JUMP JUMPDEST DUP5 DUP5 SLOAD PUSH2 0x10EE JUMP JUMPDEST DUP3 SSTORE POP POP POP POP JUMP JUMPDEST PUSH1 0x0 SWAP1 JUMP JUMPDEST PUSH2 0x11A8 PUSH2 0x119B JUMP JUMPDEST PUSH2 0x11B3 DUP2 DUP5 DUP5 PUSH2 0x1176 JUMP JUMPDEST POP POP POP JUMP JUMPDEST JUMPDEST DUP2 DUP2 LT ISZERO PUSH2 0x11D7 JUMPI PUSH2 0x11CC PUSH1 0x0 DUP3 PUSH2 0x11A0 JUMP JUMPDEST PUSH1 0x1 DUP2 ADD SWAP1 POP PUSH2 0x11B9 JUMP JUMPDEST POP POP JUMP JUMPDEST PUSH1 0x1F DUP3 GT ISZERO PUSH2 0x121C JUMPI PUSH2 0x11ED DUP2 PUSH2 0x10BC JUMP JUMPDEST PUSH2 0x11F6 DUP5 PUSH2 0x10D1 JUMP JUMPDEST DUP2 ADD PUSH1 0x20 DUP6 LT ISZERO PUSH2 0x1205 JUMPI DUP2 SWAP1 POP JUMPDEST PUSH2 0x1219 PUSH2 0x1211 DUP6 PUSH2 0x10D1 JUMP JUMPDEST DUP4 ADD DUP3 PUSH2 0x11B8 JUMP JUMPDEST POP POP JUMPDEST POP POP POP JUMP JUMPDEST PUSH1 0x0 DUP3 DUP3 SHR SWAP1 POP SWAP3 SWAP2 POP POP JUMP JUMPDEST PUSH1 0x0 PUSH2 0x123F PUSH1 0x0 NOT DUP5 PUSH1 0x8 MUL PUSH2 0x1221 JUMP JUMPDEST NOT DUP1 DUP4 AND SWAP2 POP POP SWAP3 SWAP2 POP POP JUMP JUMPDEST PUSH1 0x0 PUSH2 0x1258 DUP4 DUP4 PUSH2 0x122E JUMP JUMPDEST SWAP2 POP DUP3 PUSH1 0x2 MUL DUP3 OR SWAP1 POP SWAP3 SWAP2 POP POP JUMP JUMPDEST PUSH2 0x1271 DUP3 PUSH2 0xBEA JUMP JUMPDEST PUSH8 0xFFFFFFFFFFFFFFFF DUP2 GT ISZERO PUSH2 0x128A JUMPI PUSH2 0x1289 PUSH2 0xD47 JUMP JUMPDEST JUMPDEST PUSH2 0x1294 DUP3 SLOAD PUSH2 0xFB3 JUMP JUMPDEST PUSH2 0x129F DUP3 DUP3 DUP6 PUSH2 0x11DB JUMP JUMPDEST PUSH1 0x0 PUSH1 0x20 SWAP1 POP PUSH1 0x1F DUP4 GT PUSH1 0x1 DUP2 EQ PUSH2 0x12D2 JUMPI PUSH1 0x0 DUP5 ISZERO PUSH2 0x12C0 JUMPI DUP3 DUP8 ADD MLOAD SWAP1 POP JUMPDEST PUSH2 0x12CA DUP6 DUP3 PUSH2 0x124C JUMP JUMPDEST DUP7 SSTORE POP PUSH2 0x1332 JUMP JUMPDEST PUSH1 0x1F NOT DUP5 AND PUSH2 0x12E0 DUP7 PUSH2 0x10BC JUMP JUMPDEST PUSH1 0x0 JUMPDEST DUP3 DUP2 LT ISZERO PUSH2 0x1308 JUMPI DUP5 DUP10 ADD MLOAD DUP3 SSTORE PUSH1 0x1 DUP3 ADD SWAP2 POP PUSH1 0x20 DUP6 ADD SWAP5 POP PUSH1 0x20 DUP2 ADD SWAP1 POP PUSH2 0x12E3 JUMP JUMPDEST DUP7 DUP4 LT ISZERO PUSH2 0x1325 JUMPI DUP5 DUP10 ADD MLOAD PUSH2 0x1321 PUSH1 0x1F DUP10 AND DUP3 PUSH2 0x122E JUMP JUMPDEST DUP4 SSTORE POP JUMPDEST PUSH1 0x1 PUSH1 0x2 DUP9 MUL ADD DUP9 SSTORE POP POP POP JUMPDEST POP POP POP POP POP POP JUMP JUMPDEST PUSH32 0x206E6F2072757175657374000000000000000000000000000000000000000000 PUSH1 0x0 DUP3 ADD MSTORE POP JUMP JUMPDEST PUSH1 0x0 PUSH2 0x1370 PUSH1 0xB DUP4 PUSH2 0xBF5 JUMP JUMPDEST SWAP2 POP PUSH2 0x137B DUP3 PUSH2 0x133A JUMP JUMPDEST PUSH1 0x20 DUP3 ADD SWAP1 POP SWAP2 SWAP1 POP JUMP JUMPDEST PUSH1 0x0 PUSH1 0x20 DUP3 ADD SWAP1 POP DUP2 DUP2 SUB PUSH1 0x0 DUP4 ADD MSTORE PUSH2 0x139F DUP2 PUSH2 0x1363 JUMP JUMPDEST SWAP1 POP SWAP2 SWAP1 POP JUMP JUMPDEST PUSH32 0x72657175657374616C726561647920617070726F766564000000000000000000 PUSH1 0x0 DUP3 ADD MSTORE POP JUMP JUMPDEST PUSH1 0x0 PUSH2 0x13DC PUSH1 0x17 DUP4 PUSH2 0xBF5 JUMP JUMPDEST SWAP2 POP PUSH2 0x13E7 DUP3 PUSH2 0x13A6 JUMP JUMPDEST PUSH1 0x20 DUP3 ADD SWAP1 POP SWAP2 SWAP1 POP JUMP JUMPDEST PUSH1 0x0 PUSH1 0x20 DUP3 ADD SWAP1 POP DUP2 DUP2 SUB PUSH1 0x0 DUP4 ADD MSTORE PUSH2 0x140B DUP2 PUSH2 0x13CF JUMP JUMPDEST SWAP1 POP SWAP2 SWAP1 POP JUMP JUMPDEST PUSH32 0x4F776E61626C653A206E6577206F776E657220697320746865207A65726F2061 PUSH1 0x0 DUP3 ADD MSTORE PUSH32 0x6464726573730000000000000000000000000000000000000000000000000000 PUSH1 0x20 DUP3 ADD MSTORE POP JUMP JUMPDEST PUSH1 0x0 PUSH2 0x146E PUSH1 0x26 DUP4 PUSH2 0xBF5 JUMP JUMPDEST SWAP2 POP PUSH2 0x1479 DUP3 PUSH2 0x1412 JUMP JUMPDEST PUSH1 0x40 DUP3 ADD SWAP1 POP SWAP2 SWAP1 POP JUMP JUMPDEST PUSH1 0x0 PUSH1 0x20 DUP3 ADD SWAP1 POP DUP2 DUP2 SUB PUSH1 0x0 DUP4 ADD MSTORE PUSH2 0x149D DUP2 PUSH2 0x1461 JUMP JUMPDEST SWAP1 POP SWAP2 SWAP1 POP JUMP JUMPDEST PUSH32 0x4F776E61626C653A2063616C6C6572206973206E6F7420746865206F776E6572 PUSH1 0x0 DUP3 ADD MSTORE POP JUMP JUMPDEST PUSH1 0x0 PUSH2 0x14DA PUSH1 0x20 DUP4 PUSH2 0xBF5 JUMP JUMPDEST SWAP2 POP PUSH2 0x14E5 DUP3 PUSH2 0x14A4 JUMP JUMPDEST PUSH1 0x20 DUP3 ADD SWAP1 POP SWAP2 SWAP1 POP JUMP JUMPDEST PUSH1 0x0 PUSH1 0x20 DUP3 ADD SWAP1 POP DUP2 DUP2 SUB PUSH1 0x0 DUP4 ADD MSTORE PUSH2 0x1509 DUP2 PUSH2 0x14CD JUMP JUMPDEST SWAP1 POP SWAP2 SWAP1 POP JUMP INVALID LOG2 PUSH5 0x6970667358 0x22 SLT KECCAK256 0xF7 0x2A SWAP2 ADDRESS SSTORE LOG3 PUSH19 0x25C0E53ADC0B87FA972812455A397749F881AA 0xA9 SGT GAS JUMPDEST 0xAC 0xA8 PUSH5 0x736F6C6343 STOP ADDMOD EQ STOP CALLER "
		},
		"gasEstimates": {
			"creation": {
				"codeDepositCost": "1089200",
				"executionCost": "infinite",
				"totalCost": "infinite"
			},
			"external": {
				"Info(address)": "infinite",
				"RPayout(uint256)": "73527",
				"Rapprove(address)": "infinite",
				"owner()": "2544",
				"renounceOwnership()": "30443",
				"requests(address)": "infinite",
				"sebscribe(string,string,uint256)": "infinite",
				"transferOwnership(address)": "30810"
			}
		},
		"methodIdentifiers": {
			"Info(address)": "5c9355d7",
			"RPayout(uint256)": "07c9a13e",
			"Rapprove(address)": "dd915f26",
			"owner()": "8da5cb5b",
			"renounceOwnership()": "715018a6",
			"requests(address)": "74adad1d",
			"sebscribe(string,string,uint256)": "82b57877",
			"transferOwnership(address)": "f2fde38b"
		}
	},
	"abi": [
		{
			"anonymous": false,
			"inputs": [
				{
					"indexed": true,
					"internalType": "address",
					"name": "previousOwner",
					"type": "address"
				},
				{
					"indexed": true,
					"internalType": "address",
					"name": "newOwner",
					"type": "address"
				}
			],
			"name": "OwnershipTransferred",
			"type": "event"
		},
		{
			"inputs": [
				{
					"internalType": "address",
					"name": "",
					"type": "address"
				}
			],
			"name": "Info",
			"outputs": [
				{
					"internalType": "string",
					"name": "name",
					"type": "string"
				},
				{
					"internalType": "string",
					"name": "addr",
					"type": "string"
				},
				{
					"internalType": "uint256",
					"name": "age",
					"type": "uint256"
				},
				{
					"internalType": "bool",
					"name": "subscribed",
					"type": "bool"
				}
			],
			"stateMutability": "view",
			"type": "function"
		},
		{
			"inputs": [
				{
					"internalType": "uint256",
					"name": "amount1",
					"type": "uint256"
				}
			],
			"name": "RPayout",
			"outputs": [],
			"stateMutability": "nonpayable",
			"type": "function"
		},
		{
			"inputs": [
				{
					"internalType": "address",
					"name": "user1",
					"type": "address"
				}
			],
			"name": "Rapprove",
			"outputs": [],
			"stateMutability": "nonpayable",
			"type": "function"
		},
		{
			"inputs": [],
			"name": "owner",
			"outputs": [
				{
					"internalType": "address",
					"name": "",
					"type": "address"
				}
			],
			"stateMutability": "view",
			"type": "function"
		},
		{
			"inputs": [],
			"name": "renounceOwnership",
			"outputs": [],
			"stateMutability": "nonpayable",
			"type": "function"
		},
		{
			"inputs": [
				{
					"internalType": "address",
					"name": "",
					"type": "address"
				}
			],
			"name": "requests",
			"outputs": [
				{
					"internalType": "address",
					"name": "user",
					"type": "address"
				},
				{
					"internalType": "uint256",
					"name": "amount",
					"type": "uint256"
				},
				{
					"internalType": "bool",
					"name": "approved",
					"type": "bool"
				}
			],
			"stateMutability": "view",
			"type": "function"
		},
		{
			"inputs": [
				{
					"internalType": "string",
					"name": "name1",
					"type": "string"
				},
				{
					"internalType": "string",
					"name": "addr1",
					"type": "string"
				},
				{
					"internalType": "uint256",
					"name": "age1",
					"type": "uint256"
				}
			],
			"name": "sebscribe",
			"outputs": [],
			"stateMutability": "payable",
			"type": "function"
		},
		{
			"inputs": [
				{
					"internalType": "address",
					"name": "newOwner",
					"type": "address"
				}
			],
			"name": "transferOwnership",
			"outputs": [],
			"stateMutability": "nonpayable",
			"type": "function"
		}
	]
}